{
  "transactions": [
    {
      "hash": "0xa286724fcd6014b847e5c935880d067c0ab56056dcc3f46d8071e5ff45acf258",
      "transactionType": "CALL",
      "contractName": null,
      "contractAddress": "0x8004a818bfb912233c491871b3d84c89a494bd9e",
      "function": "register(string)",
      "arguments": [
        "ipfs://QmArcPassDeployer"
      ],
      "transaction": {
        "from": "0x04e0353b7218b66d6803725ce7342e6e1225db1b",
        "to": "0x8004a818bfb912233c491871b3d84c89a494bd9e",
        "gas": "0x26f7b",
        "value": "0x0",
        "input": "0xf2c298be00000000000000000000000000000000000000000000000000000000000000200000000000000000000000000000000000000000000000000000000000000018697066733a2f2f516d417263506173734465706c6f7965720000000000000000",
        "nonce": "0x5a",
        "chainId": "0x4cef52"
      },
      "additionalContracts": [],
      "isFixedGasLimit": false
    }
  ],
  "receipts": [
    {
      "type": "0x2",
      "status": "0x1",
      "cumulativeGasUsed": "0x1c7860b",
      "logs": [
        {
          "address": "0x8004a818bfb912233c491871b3d84c89a494bd9e",
          "topics": [
            "0xddf252ad1be2c89b69c2b068fc378daa952ba7f163c4a11628f55a4df523b3ef",
            "0x0000000000000000000000000000000000000000000000000000000000000000",
            "0x00000000000000000000000004e0353b7218b66d6803725ce7342e6e1225db1b",
            "0x000000000000000000000000000000000000000000000000000000000009e385"
          ],
          "data": "0x",
          "blockHash": "0x08428bde96e114769941ad9401ebcd1ecb3263ad287b26ea81db4682b53a6bbe",
          "blockNumber": "0x2d18227",
          "blockTimestamp": "0x6a30eaaf",
          "transactionHash": "0xa286724fcd6014b847e5c935880d067c0ab56056dcc3f46d8071e5ff45acf258",
          "transactionIndex": "0x4c",
          "logIndex": "0xe7",
          "removed": false
        },
        {
          "address": "0x8004a818bfb912233c491871b3d84c89a494bd9e",
          "topics": [
            "0xf8e1a15aba9398e019f0b49df1a4fde98ee17ae345cb5f6b5e2c27f5033e8ce7"
          ],
          "data": "0x000000000000000000000000000000000000000000000000000000000009e385",
          "blockHash": "0x08428bde96e114769941ad9401ebcd1ecb3263ad287b26ea81db4682b53a6bbe",
          "blockNumber": "0x2d18227",
          "blockTimestamp": "0x6a30eaaf",
          "transactionHash": "0xa286724fcd6014b847e5c935880d067c0ab56056dcc3f46d8071e5ff45acf258",
          "transactionIndex": "0x4c",
          "logIndex": "0xe8",
          "removed": false
        },
        {
          "address": "0x8004a818bfb912233c491871b3d84c89a494bd9e",
          "topics": [
            "0xca52e62c367d81bb2e328eb795f7c7ba24afb478408a26c0e201d155c449bc4a",
            "0x000000000000000000000000000000000000000000000000000000000009e385",
            "0x00000000000000000000000004e0353b7218b66d6803725ce7342e6e1225db1b"
          ],
          "data": "0x00000000000000000000000000000000000000000000000000000000000000200000000000000000000000000000000000000000000000000000000000000018697066733a2f2f516d417263506173734465706c6f7965720000000000000000",
          "blockHash": "0x08428bde96e114769941ad9401ebcd1ecb3263ad287b26ea81db4682b53a6bbe",
          "blockNumber": "0x2d18227",
          "blockTimestamp": "0x6a30eaaf",
          "transactionHash": "0xa286724fcd6014b847e5c935880d067c0ab56056dcc3f46d8071e5ff45acf258",
          "transactionIndex": "0x4c",
          "logIndex": "0xe9",
          "removed": false
        },
        {
          "address": "0x8004a818bfb912233c491871b3d84c89a494bd9e",
          "topics": [
            "0x2c149ed548c6d2993cd73efe187df6eccabe4538091b33adbd25fafdb8a1468b",
            "0x000000000000000000000000000000000000000000000000000000000009e385",
            "0x2ac6109326e720d1435c0db66f7e35eda7839f52b6f1f5520a60788e132b4e39"
          ],
          "data": "0x00000000000000000000000000000000000000000000000000000000000000400000000000000000000000000000000000000000000000000000000000000080000000000000000000000000000000000000000000000000000000000000000b6167656e7457616c6c6574000000000000000000000000000000000000000000000000000000000000000000000000000000000000000000000000000000001404e0353b7218b66d6803725ce7342e6e1225db1b000000000000000000000000",
          "blockHash": "0x08428bde96e114769941ad9401ebcd1ecb3263ad287b26ea81db4682b53a6bbe",
          "blockNumber": "0x2d18227",
          "blockTimestamp": "0x6a30eaaf",
          "transactionHash": "0xa286724fcd6014b847e5c935880d067c0ab56056dcc3f46d8071e5ff45acf258",
          "transactionIndex": "0x4c",
          "logIndex": "0xea",
          "removed": false
        }
      ],
      "logsBloom": "0x00000000000040000000000000000000000000000000000000000000000000000000000080000000000000000000010000000000000000000000000000000000000000000000000000010008000000000000000000000000000000000000000010000000830000000000000008000800000000000000000000000010000000000000000000100000000000000000000080000000000000000000000000000000000000000000000040000000000000002000000000000000010000000000008000000002000000000000000000000000000000000000000000800000000020000000001000010200200002000000000000000000000000000000000004000000",
      "transactionHash": "0xa286724fcd6014b847e5c935880d067c0ab56056dcc3f46d8071e5ff45acf258",
      "transactionIndex": "0x4c",
      "blockHash": "0x08428bde96e114769941ad9401ebcd1ecb3263ad287b26ea81db4682b53a6bbe",
      "blockNumber": "0x2d18227",
      "gasUsed": "0x1c364",
      "effectiveGasPrice": "0x4c7eb5e6a",
      "from": "0x04e0353b7218b66d6803725ce7342e6e1225db1b",
      "to": "0x8004a818bfb912233c491871b3d84c89a494bd9e",
      "contractAddress": null
    }
  ],
  "libraries": [],
  "pending": [],
  "returns": {},
  "timestamp": 1781590706668,
  "chain": 5042002,
  "commit": "c136dbe"
}