{
  "transactions": [
    {
      "hash": "0x5349cd3efc0b53d64c483a301057e35b1debecb64bcf5433228e34eece122b2d",
      "transactionType": "CALL",
      "contractName": null,
      "contractAddress": "0x4096b75c387df6c16841153cd54418378bdcb15d",
      "function": "grantRole(bytes32,address)",
      "arguments": [
        "0x114e74f6ea3bd819998f78687bfcb11b140da08e9b7d222fa9c1f1ba1f2aa122",
        "0x96e3Feba977C720c6Ad15FA72A67D849ce7Af198"
      ],
      "transaction": {
        "from": "0x04e0353b7218b66d6803725ce7342e6e1225db1b",
        "to": "0x4096b75c387df6c16841153cd54418378bdcb15d",
        "gas": "0x23dbc",
        "value": "0x0",
        "input": "0x2f2ff15d114e74f6ea3bd819998f78687bfcb11b140da08e9b7d222fa9c1f1ba1f2aa12200000000000000000000000096e3feba977c720c6ad15fa72a67d849ce7af198",
        "nonce": "0x5b",
        "chainId": "0x4cef52"
      },
      "additionalContracts": [],
      "isFixedGasLimit": false
    }
  ],
  "receipts": [
    {
      "type": "0x2",
      "status": "0x1",
      "cumulativeGasUsed": "0x99151c",
      "logs": [
        {
          "address": "0x4096b75c387df6c16841153cd54418378bdcb15d",
          "topics": [
            "0x2f8788117e7eff1d82e926ec794901d17c78024a50270940304540a733656f0d",
            "0x114e74f6ea3bd819998f78687bfcb11b140da08e9b7d222fa9c1f1ba1f2aa122",
            "0x00000000000000000000000096e3feba977c720c6ad15fa72a67d849ce7af198",
            "0x00000000000000000000000004e0353b7218b66d6803725ce7342e6e1225db1b"
          ],
          "data": "0x",
          "blockHash": "0xf7d94705864b9e666fd85718f93b81c953f6e062b4661d30d115e863fde509d4",
          "blockNumber": "0x2da1a7a",
          "blockTimestamp": "0x6a367c0b",
          "transactionHash": "0x5349cd3efc0b53d64c483a301057e35b1debecb64bcf5433228e34eece122b2d",
          "transactionIndex": "0x2b",
          "logIndex": "0x7f",
          "removed": false
        }
      ],
      "logsBloom": "0x00000004000000000000000000000000000000000000000000000000000000000000000000000000000000000000000000000000000000000000000400000000000000000000000000000000000000000000000000000000000000000000000010000000010000000000000000000000000000000000000000000040000000000000800000000000004000000000000000000000000000000000000000000000000000000000000000000000000000000000080002000000001000000001000000000000000000000000000000000000000000000000000100000000000000000000000004000000000002000000000000000000000000000000000008000000",
      "transactionHash": "0x5349cd3efc0b53d64c483a301057e35b1debecb64bcf5433228e34eece122b2d",
      "transactionIndex": "0x2b",
      "blockHash": "0xf7d94705864b9e666fd85718f93b81c953f6e062b4661d30d115e863fde509d4",
      "blockNumber": "0x2da1a7a",
      "gasUsed": "0x19f60",
      "effectiveGasPrice": "0x4aa52cffe",
      "from": "0x04e0353b7218b66d6803725ce7342e6e1225db1b",
      "to": "0x4096b75c387df6c16841153cd54418378bdcb15d",
      "contractAddress": null
    }
  ],
  "libraries": [],
  "pending": [],
  "returns": {},
  "timestamp": 1781955597424,
  "chain": 5042002,
  "commit": "c136dbe"
}