{
  "transactions": [
    {
      "hash": "0xee449a569832e4e2a73f1b2a6f6cf5042f1a8838312ac3caa4c3b891dc5377cc",
      "transactionType": "CALL",
      "contractName": null,
      "contractAddress": "0x4096b75c387df6c16841153cd54418378bdcb15d",
      "function": "grantRole(bytes32,address)",
      "arguments": [
        "0x114e74f6ea3bd819998f78687bfcb11b140da08e9b7d222fa9c1f1ba1f2aa122",
        "0x1804c8AB1F12E6bbf3894d4083f33e07309d1f38"
      ],
      "transaction": {
        "from": "0x04e0353b7218b66d6803725ce7342e6e1225db1b",
        "to": "0x4096b75c387df6c16841153cd54418378bdcb15d",
        "gas": "0x23dbc",
        "value": "0x0",
        "input": "0x2f2ff15d114e74f6ea3bd819998f78687bfcb11b140da08e9b7d222fa9c1f1ba1f2aa1220000000000000000000000001804c8ab1f12e6bbf3894d4083f33e07309d1f38",
        "nonce": "0x26",
        "chainId": "0x4cef52"
      },
      "additionalContracts": [],
      "isFixedGasLimit": false
    },
    {
      "hash": "0xce6a3dc2cfb2aaf7ae095329eb0e343db4936b6ca939990816eec884a4d0ce09",
      "transactionType": "CALL",
      "contractName": null,
      "contractAddress": "0x4096b75c387df6c16841153cd54418378bdcb15d",
      "function": "grantRole(bytes32,address)",
      "arguments": [
        "0xce3f34913921da558f105cefb578d87278debbbd073a8d552b5de0d168deee30",
        "0x1804c8AB1F12E6bbf3894d4083f33e07309d1f38"
      ],
      "transaction": {
        "from": "0x04e0353b7218b66d6803725ce7342e6e1225db1b",
        "to": "0x4096b75c387df6c16841153cd54418378bdcb15d",
        "gas": "0x13229",
        "value": "0x0",
        "input": "0x2f2ff15dce3f34913921da558f105cefb578d87278debbbd073a8d552b5de0d168deee300000000000000000000000001804c8ab1f12e6bbf3894d4083f33e07309d1f38",
        "nonce": "0x27",
        "chainId": "0x4cef52"
      },
      "additionalContracts": [],
      "isFixedGasLimit": false
    },
    {
      "hash": "0x8b8bdbe46c4b4ec2c274d7d4cca3f680056667e119e3295231a030fe222805d6",
      "transactionType": "CALL",
      "contractName": null,
      "contractAddress": "0x00902216bcaff0d205f4dfb8468f178aadcf325f",
      "function": "registerSchema(string,string,string)",
      "arguments": [
        "arcpass_identity",
        "2.0.0",
        "[{\\\"name\\\":\\\"displayName\\\",\\\"type\\\":\\\"string\\\"},{\\\"name\\\":\\\"avatarCid\\\",\\\"type\\\":\\\"string\\\"},{\\\"name\\\":\\\"createdAt\\\",\\\"type\\\":\\\"uint64\\\"}]"
      ],
      "transaction": {
        "from": "0x04e0353b7218b66d6803725ce7342e6e1225db1b",
        "to": "0x00902216bcaff0d205f4dfb8468f178aadcf325f",
        "gas": "0x6f4ed",
        "value": "0x0",
        "input": "0x53d1945d000000000000000000000000000000000000000000000000000000000000006000000000000000000000000000000000000000000000000000000000000000a000000000000000000000000000000000000000000000000000000000000000e00000000000000000000000000000000000000000000000000000000000000010617263706173735f6964656e74697479000000000000000000000000000000000000000000000000000000000000000000000000000000000000000000000005322e302e3000000000000000000000000000000000000000000000000000000000000000000000000000000000000000000000000000000000000000000000725b7b226e616d65223a22646973706c61794e616d65222c2274797065223a22737472696e67227d2c7b226e616d65223a22617661746172436964222c2274797065223a22737472696e67227d2c7b226e616d65223a22637265617465644174222c2274797065223a2275696e743634227d5d0000000000000000000000000000",
        "nonce": "0x28",
        "chainId": "0x4cef52"
      },
      "additionalContracts": [],
      "isFixedGasLimit": false
    },
    {
      "hash": "0x2cf359a6762a8275ed70d236f91954e866eaf8639dffab4db019fc050a1e15cb",
      "transactionType": "CALL",
      "contractName": null,
      "contractAddress": "0x4096b75c387df6c16841153cd54418378bdcb15d",
      "function": "attest(address,bytes32,bytes32,uint256)",
      "arguments": [
        "0x04e0353B7218b66D6803725ce7342E6e1225DB1b",
        "0x8f1fcdd96febe917f0a199a598c833f55cda30ac0a6cb8c337c76a26790c65dc",
        "0x3326512c0e6aef0286f642f7e0f47e60b6ee2a8d9111e707b841ac4b367b8f81",
        "0"
      ],
      "transaction": {
        "from": "0x04e0353b7218b66d6803725ce7342e6e1225db1b",
        "to": "0x4096b75c387df6c16841153cd54418378bdcb15d",
        "gas": "0x4e749",
        "value": "0x0",
        "input": "0xfafd163200000000000000000000000004e0353b7218b66d6803725ce7342e6e1225db1b8f1fcdd96febe917f0a199a598c833f55cda30ac0a6cb8c337c76a26790c65dc3326512c0e6aef0286f642f7e0f47e60b6ee2a8d9111e707b841ac4b367b8f810000000000000000000000000000000000000000000000000000000000000000",
        "nonce": "0x29",
        "chainId": "0x4cef52"
      },
      "additionalContracts": [],
      "isFixedGasLimit": false
    },
    {
      "hash": "0xff98d18e1240c6e3101b7e73d2edcbb6795215a653f6f40a6ebc8adec12874ff",
      "transactionType": "CALL",
      "contractName": null,
      "contractAddress": "0x00902216bcaff0d205f4dfb8468f178aadcf325f",
      "function": "registerSchema(string,string,string)",
      "arguments": [
        "arcpass_kyc_basic",
        "2.0.0",
        "[{\\\"name\\\":\\\"level\\\",\\\"type\\\":\\\"uint8\\\"},{\\\"name\\\":\\\"country\\\",\\\"type\\\":\\\"string\\\"},{\\\"name\\\":\\\"provider\\\",\\\"type\\\":\\\"string\\\"},{\\\"name\\\":\\\"checkedAt\\\",\\\"type\\\":\\\"uint64\\\"}]"
      ],
      "transaction": {
        "from": "0x04e0353b7218b66d6803725ce7342e6e1225db1b",
        "to": "0x00902216bcaff0d205f4dfb8468f178aadcf325f",
        "gas": "0x70c52",
        "value": "0x0",
        "input": "0x53d1945d000000000000000000000000000000000000000000000000000000000000006000000000000000000000000000000000000000000000000000000000000000a000000000000000000000000000000000000000000000000000000000000000e00000000000000000000000000000000000000000000000000000000000000011617263706173735f6b79635f62617369630000000000000000000000000000000000000000000000000000000000000000000000000000000000000000000005322e302e30000000000000000000000000000000000000000000000000000000000000000000000000000000000000000000000000000000000000000000008d5b7b226e616d65223a226c6576656c222c2274797065223a2275696e7438227d2c7b226e616d65223a22636f756e747279222c2274797065223a22737472696e67227d2c7b226e616d65223a2270726f7669646572222c2274797065223a22737472696e67227d2c7b226e616d65223a22636865636b65644174222c2274797065223a2275696e743634227d5d00000000000000000000000000000000000000",
        "nonce": "0x2a",
        "chainId": "0x4cef52"
      },
      "additionalContracts": [],
      "isFixedGasLimit": false
    },
    {
      "hash": "0x4f766367f6a0656af74b8cf5847c3565f0dd6e2469b54fd17e9f68a9c2c37294",
      "transactionType": "CALL",
      "contractName": null,
      "contractAddress": "0x4096b75c387df6c16841153cd54418378bdcb15d",
      "function": "attest(address,bytes32,bytes32,uint256)",
      "arguments": [
        "0x04e0353B7218b66D6803725ce7342E6e1225DB1b",
        "0x2517b2f71473e64f0a129086e698e3a3161daa5d0231ee014d61489626338e70",
        "0xe020462e216161607cac70babe93af1fb760aeff48bb6f8fc4c567f058a674b8",
        "0"
      ],
      "transaction": {
        "from": "0x04e0353b7218b66d6803725ce7342e6e1225db1b",
        "to": "0x4096b75c387df6c16841153cd54418378bdcb15d",
        "gas": "0x4cf70",
        "value": "0x0",
        "input": "0xfafd163200000000000000000000000004e0353b7218b66d6803725ce7342e6e1225db1b2517b2f71473e64f0a129086e698e3a3161daa5d0231ee014d61489626338e70e020462e216161607cac70babe93af1fb760aeff48bb6f8fc4c567f058a674b80000000000000000000000000000000000000000000000000000000000000000",
        "nonce": "0x2b",
        "chainId": "0x4cef52"
      },
      "additionalContracts": [],
      "isFixedGasLimit": false
    },
    {
      "hash": "0xa81853dd65f2826588f717cd662307cc8c68d2f809aaacc96cb1417739491492",
      "transactionType": "CALL",
      "contractName": null,
      "contractAddress": "0x00902216bcaff0d205f4dfb8468f178aadcf325f",
      "function": "registerSchema(string,string,string)",
      "arguments": [
        "arcpass_aml_screening",
        "2.0.0",
        "[{\\\"name\\\":\\\"passed\\\",\\\"type\\\":\\\"bool\\\"},{\\\"name\\\":\\\"provider\\\",\\\"type\\\":\\\"string\\\"},{\\\"name\\\":\\\"checkedAt\\\",\\\"type\\\":\\\"uint64\\\"}]"
      ],
      "transaction": {
        "from": "0x04e0353b7218b66d6803725ce7342e6e1225db1b",
        "to": "0x00902216bcaff0d205f4dfb8468f178aadcf325f",
        "gas": "0x691cb",
        "value": "0x0",
        "input": "0x53d1945d000000000000000000000000000000000000000000000000000000000000006000000000000000000000000000000000000000000000000000000000000000a000000000000000000000000000000000000000000000000000000000000000e00000000000000000000000000000000000000000000000000000000000000015617263706173735f616d6c5f73637265656e696e6700000000000000000000000000000000000000000000000000000000000000000000000000000000000005322e302e30000000000000000000000000000000000000000000000000000000000000000000000000000000000000000000000000000000000000000000006a5b7b226e616d65223a22706173736564222c2274797065223a22626f6f6c227d2c7b226e616d65223a2270726f7669646572222c2274797065223a22737472696e67227d2c7b226e616d65223a22636865636b65644174222c2274797065223a2275696e743634227d5d00000000000000000000000000000000000000000000",
        "nonce": "0x2c",
        "chainId": "0x4cef52"
      },
      "additionalContracts": [],
      "isFixedGasLimit": false
    },
    {
      "hash": "0x6b2e25d2f0cf0257b50c6cebeaf6e05faef3c462e879ba261b8fc7f48fc1a927",
      "transactionType": "CALL",
      "contractName": null,
      "contractAddress": "0x4096b75c387df6c16841153cd54418378bdcb15d",
      "function": "attest(address,bytes32,bytes32,uint256)",
      "arguments": [
        "0x04e0353B7218b66D6803725ce7342E6e1225DB1b",
        "0x7fcb88027d0fedec4bedc9badfebf25c25caf0842d640d0b471c6d4672370f5b",
        "0x91fc8d9752df582f504459d1017f1d16d6f87ce9520a2a027d131e57667c6d89",
        "0"
      ],
      "transaction": {
        "from": "0x04e0353b7218b66d6803725ce7342e6e1225db1b",
        "to": "0x4096b75c387df6c16841153cd54418378bdcb15d",
        "gas": "0x4cf70",
        "value": "0x0",
        "input": "0xfafd163200000000000000000000000004e0353b7218b66d6803725ce7342e6e1225db1b7fcb88027d0fedec4bedc9badfebf25c25caf0842d640d0b471c6d4672370f5b91fc8d9752df582f504459d1017f1d16d6f87ce9520a2a027d131e57667c6d890000000000000000000000000000000000000000000000000000000000000000",
        "nonce": "0x2d",
        "chainId": "0x4cef52"
      },
      "additionalContracts": [],
      "isFixedGasLimit": false
    },
    {
      "hash": "0xc2db04e0b068706f07307fd2052413ea2c5c2f86dbb950c5136128d37daf1529",
      "transactionType": "CALL",
      "contractName": null,
      "contractAddress": "0x00902216bcaff0d205f4dfb8468f178aadcf325f",
      "function": "registerSchema(string,string,string)",
      "arguments": [
        "arcpass_certification",
        "2.0.0",
        "[{\\\"name\\\":\\\"certName\\\",\\\"type\\\":\\\"string\\\"},{\\\"name\\\":\\\"issuingBody\\\",\\\"type\\\":\\\"string\\\"},{\\\"name\\\":\\\"certId\\\",\\\"type\\\":\\\"string\\\"},{\\\"name\\\":\\\"issuedAt\\\",\\\"type\\\":\\\"uint64\\\"},{\\\"name\\\":\\\"validUntil\\\",\\\"type\\\":\\\"uint64\\\"}]"
      ],
      "transaction": {
        "from": "0x04e0353b7218b66d6803725ce7342e6e1225db1b",
        "to": "0x00902216bcaff0d205f4dfb8468f178aadcf325f",
        "gas": "0x7f94b",
        "value": "0x0",
        "input": "0x53d1945d000000000000000000000000000000000000000000000000000000000000006000000000000000000000000000000000000000000000000000000000000000a000000000000000000000000000000000000000000000000000000000000000e00000000000000000000000000000000000000000000000000000000000000015617263706173735f63657274696669636174696f6e00000000000000000000000000000000000000000000000000000000000000000000000000000000000005322e302e3000000000000000000000000000000000000000000000000000000000000000000000000000000000000000000000000000000000000000000000b85b7b226e616d65223a22636572744e616d65222c2274797065223a22737472696e67227d2c7b226e616d65223a2269737375696e67426f6479222c2274797065223a22737472696e67227d2c7b226e616d65223a22636572744964222c2274797065223a22737472696e67227d2c7b226e616d65223a226973737565644174222c2274797065223a2275696e743634227d2c7b226e616d65223a2276616c6964556e74696c222c2274797065223a2275696e743634227d5d0000000000000000",
        "nonce": "0x2e",
        "chainId": "0x4cef52"
      },
      "additionalContracts": [],
      "isFixedGasLimit": false
    },
    {
      "hash": "0xce6a83bdf9aa375efa1b6533d581b9691e32e90f396a7860b067738f7c71d8e4",
      "transactionType": "CALL",
      "contractName": null,
      "contractAddress": "0x4096b75c387df6c16841153cd54418378bdcb15d",
      "function": "attest(address,bytes32,bytes32,uint256)",
      "arguments": [
        "0x04e0353B7218b66D6803725ce7342E6e1225DB1b",
        "0x3798fcd5e336193b78d6c342a061f31fbc5668f5084ba17ee4bd59a1fb972419",
        "0xad4bf9ddbe85b301cf691c7bac16e9d42af14d6909a2ba6dcf08008c35b88351",
        "0"
      ],
      "transaction": {
        "from": "0x04e0353b7218b66d6803725ce7342e6e1225db1b",
        "to": "0x4096b75c387df6c16841153cd54418378bdcb15d",
        "gas": "0x48af6",
        "value": "0x0",
        "input": "0xfafd163200000000000000000000000004e0353b7218b66d6803725ce7342e6e1225db1b3798fcd5e336193b78d6c342a061f31fbc5668f5084ba17ee4bd59a1fb972419ad4bf9ddbe85b301cf691c7bac16e9d42af14d6909a2ba6dcf08008c35b883510000000000000000000000000000000000000000000000000000000000000000",
        "nonce": "0x2f",
        "chainId": "0x4cef52"
      },
      "additionalContracts": [],
      "isFixedGasLimit": false
    },
    {
      "hash": "0xfb346a5213ac0309558639010bc97ec51462be476d299c2fbf4189c10495ac83",
      "transactionType": "CALL",
      "contractName": null,
      "contractAddress": "0x00902216bcaff0d205f4dfb8468f178aadcf325f",
      "function": "registerSchema(string,string,string)",
      "arguments": [
        "arcpass_skill",
        "2.0.0",
        "[{\\\"name\\\":\\\"skill\\\",\\\"type\\\":\\\"string\\\"},{\\\"name\\\":\\\"level\\\",\\\"type\\\":\\\"uint8\\\"},{\\\"name\\\":\\\"endorsedBy\\\",\\\"type\\\":\\\"address\\\"}]"
      ],
      "transaction": {
        "from": "0x04e0353b7218b66d6803725ce7342e6e1225db1b",
        "to": "0x00902216bcaff0d205f4dfb8468f178aadcf325f",
        "gas": "0x6f40e",
        "value": "0x0",
        "input": "0x53d1945d000000000000000000000000000000000000000000000000000000000000006000000000000000000000000000000000000000000000000000000000000000a000000000000000000000000000000000000000000000000000000000000000e0000000000000000000000000000000000000000000000000000000000000000d617263706173735f736b696c6c000000000000000000000000000000000000000000000000000000000000000000000000000000000000000000000000000005322e302e3000000000000000000000000000000000000000000000000000000000000000000000000000000000000000000000000000000000000000000000695b7b226e616d65223a22736b696c6c222c2274797065223a22737472696e67227d2c7b226e616d65223a226c6576656c222c2274797065223a2275696e7438227d2c7b226e616d65223a22656e646f727365644279222c2274797065223a2261646472657373227d5d0000000000000000000000000000000000000000000000",
        "nonce": "0x30",
        "chainId": "0x4cef52"
      },
      "additionalContracts": [],
      "isFixedGasLimit": false
    },
    {
      "hash": "0xeb8612c4711dc0f75e572b03df5a137940ec084f16849ffda36d90d3555d39df",
      "transactionType": "CALL",
      "contractName": null,
      "contractAddress": "0x4096b75c387df6c16841153cd54418378bdcb15d",
      "function": "attest(address,bytes32,bytes32,uint256)",
      "arguments": [
        "0x04e0353B7218b66D6803725ce7342E6e1225DB1b",
        "0xdad22fdebbf6d8f3ed75b8256b9a085e57276df9f244912294ea6342a10bd209",
        "0x032eeeaa2fcde1298d30ee6847c5ef9ab03df80577bb52d641c0c455cae78dc3",
        "0"
      ],
      "transaction": {
        "from": "0x04e0353b7218b66d6803725ce7342e6e1225db1b",
        "to": "0x4096b75c387df6c16841153cd54418378bdcb15d",
        "gas": "0x4cf70",
        "value": "0x0",
        "input": "0xfafd163200000000000000000000000004e0353b7218b66d6803725ce7342e6e1225db1bdad22fdebbf6d8f3ed75b8256b9a085e57276df9f244912294ea6342a10bd209032eeeaa2fcde1298d30ee6847c5ef9ab03df80577bb52d641c0c455cae78dc30000000000000000000000000000000000000000000000000000000000000000",
        "nonce": "0x31",
        "chainId": "0x4cef52"
      },
      "additionalContracts": [],
      "isFixedGasLimit": false
    },
    {
      "hash": "0xa29907992e15064b39a020f3ae34c343224eba4a9d0721a32a811c76a7b40e22",
      "transactionType": "CALL",
      "contractName": null,
      "contractAddress": "0x00902216bcaff0d205f4dfb8468f178aadcf325f",
      "function": "registerSchema(string,string,string)",
      "arguments": [
        "arcpass_dao_membership",
        "2.0.0",
        "[{\\\"name\\\":\\\"daoName\\\",\\\"type\\\":\\\"string\\\"},{\\\"name\\\":\\\"daoAddress\\\",\\\"type\\\":\\\"address\\\"},{\\\"name\\\":\\\"role\\\",\\\"type\\\":\\\"string\\\"},{\\\"name\\\":\\\"joinedAt\\\",\\\"type\\\":\\\"uint64\\\"},{\\\"name\\\":\\\"votingWeight\\\",\\\"type\\\":\\\"uint256\\\"}]"
      ],
      "transaction": {
        "from": "0x04e0353b7218b66d6803725ce7342e6e1225db1b",
        "to": "0x00902216bcaff0d205f4dfb8468f178aadcf325f",
        "gas": "0x787f3",
        "value": "0x0",
        "input": "0x53d1945d000000000000000000000000000000000000000000000000000000000000006000000000000000000000000000000000000000000000000000000000000000a000000000000000000000000000000000000000000000000000000000000000e00000000000000000000000000000000000000000000000000000000000000016617263706173735f64616f5f6d656d62657273686970000000000000000000000000000000000000000000000000000000000000000000000000000000000005322e302e3000000000000000000000000000000000000000000000000000000000000000000000000000000000000000000000000000000000000000000000b85b7b226e616d65223a2264616f4e616d65222c2274797065223a22737472696e67227d2c7b226e616d65223a2264616f41646472657373222c2274797065223a2261646472657373227d2c7b226e616d65223a22726f6c65222c2274797065223a22737472696e67227d2c7b226e616d65223a226a6f696e65644174222c2274797065223a2275696e743634227d2c7b226e616d65223a22766f74696e67576569676874222c2274797065223a2275696e74323536227d5d0000000000000000",
        "nonce": "0x32",
        "chainId": "0x4cef52"
      },
      "additionalContracts": [],
      "isFixedGasLimit": false
    },
    {
      "hash": "0x8dbcc022281dcb6fe5b83e3b6227d47aabc753f60a93497dc9bfaf1abc79d000",
      "transactionType": "CALL",
      "contractName": null,
      "contractAddress": "0x4096b75c387df6c16841153cd54418378bdcb15d",
      "function": "attest(address,bytes32,bytes32,uint256)",
      "arguments": [
        "0x04e0353B7218b66D6803725ce7342E6e1225DB1b",
        "0x747bf8f89f18076f079862efc876607d35408187c52a65f9e93686123c8da311",
        "0x390dd15d6a8316a2ffee9c1303308f619914dbc4f467e57a86549adce62de792",
        "0"
      ],
      "transaction": {
        "from": "0x04e0353b7218b66d6803725ce7342e6e1225db1b",
        "to": "0x4096b75c387df6c16841153cd54418378bdcb15d",
        "gas": "0x4cf70",
        "value": "0x0",
        "input": "0xfafd163200000000000000000000000004e0353b7218b66d6803725ce7342e6e1225db1b747bf8f89f18076f079862efc876607d35408187c52a65f9e93686123c8da311390dd15d6a8316a2ffee9c1303308f619914dbc4f467e57a86549adce62de7920000000000000000000000000000000000000000000000000000000000000000",
        "nonce": "0x33",
        "chainId": "0x4cef52"
      },
      "additionalContracts": [],
      "isFixedGasLimit": false
    },
    {
      "hash": "0x0b40f1aed34b0b4894c6f87181bb6a7c69f5d03b50600c5bf1209811135f05a0",
      "transactionType": "CALL",
      "contractName": null,
      "contractAddress": "0x00902216bcaff0d205f4dfb8468f178aadcf325f",
      "function": "registerSchema(string,string,string)",
      "arguments": [
        "arcpass_reputation_score",
        "2.0.0",
        "[{\\\"name\\\":\\\"score\\\",\\\"type\\\":\\\"uint256\\\"},{\\\"name\\\":\\\"domain\\\",\\\"type\\\":\\\"string\\\"},{\\\"name\\\":\\\"dataPoints\\\",\\\"type\\\":\\\"uint32\\\"},{\\\"name\\\":\\\"updatedAt\\\",\\\"type\\\":\\\"uint64\\\"}]"
      ],
      "transaction": {
        "from": "0x04e0353b7218b66d6803725ce7342e6e1225db1b",
        "to": "0x00902216bcaff0d205f4dfb8468f178aadcf325f",
        "gas": "0x70cf9",
        "value": "0x0",
        "input": "0x53d1945d000000000000000000000000000000000000000000000000000000000000006000000000000000000000000000000000000000000000000000000000000000a000000000000000000000000000000000000000000000000000000000000000e00000000000000000000000000000000000000000000000000000000000000018617263706173735f72657075746174696f6e5f73636f726500000000000000000000000000000000000000000000000000000000000000000000000000000005322e302e3000000000000000000000000000000000000000000000000000000000000000000000000000000000000000000000000000000000000000000000905b7b226e616d65223a2273636f7265222c2274797065223a2275696e74323536227d2c7b226e616d65223a22646f6d61696e222c2274797065223a22737472696e67227d2c7b226e616d65223a2264617461506f696e7473222c2274797065223a2275696e743332227d2c7b226e616d65223a22757064617465644174222c2274797065223a2275696e743634227d5d00000000000000000000000000000000",
        "nonce": "0x34",
        "chainId": "0x4cef52"
      },
      "additionalContracts": [],
      "isFixedGasLimit": false
    },
    {
      "hash": "0xe6fa7817e5228acaf536bd80b152ed381717362e1c966f70deb797045f4289bb",
      "transactionType": "CALL",
      "contractName": null,
      "contractAddress": "0x4096b75c387df6c16841153cd54418378bdcb15d",
      "function": "attest(address,bytes32,bytes32,uint256)",
      "arguments": [
        "0x04e0353B7218b66D6803725ce7342E6e1225DB1b",
        "0x6c4b8518b9f64f0598c663cfc4b0fc4c5707be1ec010013b17c587f44ae6b866",
        "0xc13ec1462198fec74588231cb921c9bed6f83d3f070af0146d78dea99e6fcff8",
        "0"
      ],
      "transaction": {
        "from": "0x04e0353b7218b66d6803725ce7342e6e1225db1b",
        "to": "0x4096b75c387df6c16841153cd54418378bdcb15d",
        "gas": "0x4cf70",
        "value": "0x0",
        "input": "0xfafd163200000000000000000000000004e0353b7218b66d6803725ce7342e6e1225db1b6c4b8518b9f64f0598c663cfc4b0fc4c5707be1ec010013b17c587f44ae6b866c13ec1462198fec74588231cb921c9bed6f83d3f070af0146d78dea99e6fcff80000000000000000000000000000000000000000000000000000000000000000",
        "nonce": "0x35",
        "chainId": "0x4cef52"
      },
      "additionalContracts": [],
      "isFixedGasLimit": false
    },
    {
      "hash": "0x2d74c213e8dca7bae55856905a59bdd9b3f29b5a959a3f611ff9847b834bc2a7",
      "transactionType": "CALL",
      "contractName": null,
      "contractAddress": "0x00902216bcaff0d205f4dfb8468f178aadcf325f",
      "function": "registerSchema(string,string,string)",
      "arguments": [
        "arcpass_employment",
        "2.0.0",
        "[{\\\"name\\\":\\\"employer\\\",\\\"type\\\":\\\"string\\\"},{\\\"name\\\":\\\"role\\\",\\\"type\\\":\\\"string\\\"},{\\\"name\\\":\\\"startDate\\\",\\\"type\\\":\\\"uint64\\\"},{\\\"name\\\":\\\"endDate\\\",\\\"type\\\":\\\"uint64\\\"},{\\\"name\\\":\\\"employerDid\\\",\\\"type\\\":\\\"string\\\"}]"
      ],
      "transaction": {
        "from": "0x04e0353b7218b66d6803725ce7342e6e1225db1b",
        "to": "0x00902216bcaff0d205f4dfb8468f178aadcf325f",
        "gas": "0x7876e",
        "value": "0x0",
        "input": "0x53d1945d000000000000000000000000000000000000000000000000000000000000006000000000000000000000000000000000000000000000000000000000000000a000000000000000000000000000000000000000000000000000000000000000e00000000000000000000000000000000000000000000000000000000000000012617263706173735f656d706c6f796d656e7400000000000000000000000000000000000000000000000000000000000000000000000000000000000000000005322e302e3000000000000000000000000000000000000000000000000000000000000000000000000000000000000000000000000000000000000000000000b45b7b226e616d65223a22656d706c6f796572222c2274797065223a22737472696e67227d2c7b226e616d65223a22726f6c65222c2274797065223a22737472696e67227d2c7b226e616d65223a22737461727444617465222c2274797065223a2275696e743634227d2c7b226e616d65223a22656e6444617465222c2274797065223a2275696e743634227d2c7b226e616d65223a22656d706c6f796572446964222c2274797065223a22737472696e67227d5d000000000000000000000000",
        "nonce": "0x36",
        "chainId": "0x4cef52"
      },
      "additionalContracts": [],
      "isFixedGasLimit": false
    },
    {
      "hash": "0xd104ff390219c92782e0daa5fb2a4036698d452ef5be7e6ce50937f429e43231",
      "transactionType": "CALL",
      "contractName": null,
      "contractAddress": "0x4096b75c387df6c16841153cd54418378bdcb15d",
      "function": "attest(address,bytes32,bytes32,uint256)",
      "arguments": [
        "0x04e0353B7218b66D6803725ce7342E6e1225DB1b",
        "0x70149bcccd703fe7f4dc1e50f585a873b44f223350e0bbcc599d4493c6193f5c",
        "0xa970fc53e563472222f9c3a0ccd6659a68aad069a658a44d13cabac1f13822d7",
        "0"
      ],
      "transaction": {
        "from": "0x04e0353b7218b66d6803725ce7342e6e1225db1b",
        "to": "0x4096b75c387df6c16841153cd54418378bdcb15d",
        "gas": "0x4cf70",
        "value": "0x0",
        "input": "0xfafd163200000000000000000000000004e0353b7218b66d6803725ce7342e6e1225db1b70149bcccd703fe7f4dc1e50f585a873b44f223350e0bbcc599d4493c6193f5ca970fc53e563472222f9c3a0ccd6659a68aad069a658a44d13cabac1f13822d70000000000000000000000000000000000000000000000000000000000000000",
        "nonce": "0x37",
        "chainId": "0x4cef52"
      },
      "additionalContracts": [],
      "isFixedGasLimit": false
    },
    {
      "hash": "0xeb795b68656f35a74ac0ef4516b8466dfede24c39199d9edd09698171cde77d8",
      "transactionType": "CALL",
      "contractName": null,
      "contractAddress": "0x00902216bcaff0d205f4dfb8468f178aadcf325f",
      "function": "registerSchema(string,string,string)",
      "arguments": [
        "arcpass_degree",
        "2.0.0",
        "[{\\\"name\\\":\\\"institution\\\",\\\"type\\\":\\\"string\\\"},{\\\"name\\\":\\\"degree\\\",\\\"type\\\":\\\"string\\\"},{\\\"name\\\":\\\"fieldOfStudy\\\",\\\"type\\\":\\\"string\\\"},{\\\"name\\\":\\\"graduationYear\\\",\\\"type\\\":\\\"uint16\\\"},{\\\"name\\\":\\\"institutionDid\\\",\\\"type\\\":\\\"string\\\"}]"
      ],
      "transaction": {
        "from": "0x04e0353b7218b66d6803725ce7342e6e1225db1b",
        "to": "0x00902216bcaff0d205f4dfb8468f178aadcf325f",
        "gas": "0x800cf",
        "value": "0x0",
        "input": "0x53d1945d000000000000000000000000000000000000000000000000000000000000006000000000000000000000000000000000000000000000000000000000000000a000000000000000000000000000000000000000000000000000000000000000e0000000000000000000000000000000000000000000000000000000000000000e617263706173735f6465677265650000000000000000000000000000000000000000000000000000000000000000000000000000000000000000000000000005322e302e3000000000000000000000000000000000000000000000000000000000000000000000000000000000000000000000000000000000000000000000c65b7b226e616d65223a22696e737469747574696f6e222c2274797065223a22737472696e67227d2c7b226e616d65223a22646567726565222c2274797065223a22737472696e67227d2c7b226e616d65223a226669656c644f665374756479222c2274797065223a22737472696e67227d2c7b226e616d65223a2267726164756174696f6e59656172222c2274797065223a2275696e743136227d2c7b226e616d65223a22696e737469747574696f6e446964222c2274797065223a22737472696e67227d5d0000000000000000000000000000000000000000000000000000",
        "nonce": "0x38",
        "chainId": "0x4cef52"
      },
      "additionalContracts": [],
      "isFixedGasLimit": false
    },
    {
      "hash": "0x036b9c38258a86ffa3230280402a5d166dae9d53ed24527f59e02a94930dd6d4",
      "transactionType": "CALL",
      "contractName": null,
      "contractAddress": "0x4096b75c387df6c16841153cd54418378bdcb15d",
      "function": "attest(address,bytes32,bytes32,uint256)",
      "arguments": [
        "0x04e0353B7218b66D6803725ce7342E6e1225DB1b",
        "0x6841a9081aeaec4c82842dc4efd610d65bc4033baa038fd2cc22985ed1670f34",
        "0x794e5ebe65ff8a8f56e762f23674cf6a304be6ddca8d87e04550a7dd9ef201f7",
        "0"
      ],
      "transaction": {
        "from": "0x04e0353b7218b66d6803725ce7342e6e1225db1b",
        "to": "0x4096b75c387df6c16841153cd54418378bdcb15d",
        "gas": "0x4cf70",
        "value": "0x0",
        "input": "0xfafd163200000000000000000000000004e0353b7218b66d6803725ce7342e6e1225db1b6841a9081aeaec4c82842dc4efd610d65bc4033baa038fd2cc22985ed1670f34794e5ebe65ff8a8f56e762f23674cf6a304be6ddca8d87e04550a7dd9ef201f70000000000000000000000000000000000000000000000000000000000000000",
        "nonce": "0x39",
        "chainId": "0x4cef52"
      },
      "additionalContracts": [],
      "isFixedGasLimit": false
    },
    {
      "hash": "0xe567d70d38679ba232aa9a6e619e7285d3807482dbb066223c141e96675e188c",
      "transactionType": "CALL",
      "contractName": null,
      "contractAddress": "0x00902216bcaff0d205f4dfb8468f178aadcf325f",
      "function": "registerSchema(string,string,string)",
      "arguments": [
        "arcpass_social_account",
        "2.0.0",
        "[{\\\"name\\\":\\\"platform\\\",\\\"type\\\":\\\"string\\\"},{\\\"name\\\":\\\"handle\\\",\\\"type\\\":\\\"string\\\"},{\\\"name\\\":\\\"profileId\\\",\\\"type\\\":\\\"string\\\"},{\\\"name\\\":\\\"verifiedAt\\\",\\\"type\\\":\\\"uint64\\\"}]"
      ],
      "transaction": {
        "from": "0x04e0353b7218b66d6803725ce7342e6e1225db1b",
        "to": "0x00902216bcaff0d205f4dfb8468f178aadcf325f",
        "gas": "0x70cf9",
        "value": "0x0",
        "input": "0x53d1945d000000000000000000000000000000000000000000000000000000000000006000000000000000000000000000000000000000000000000000000000000000a000000000000000000000000000000000000000000000000000000000000000e00000000000000000000000000000000000000000000000000000000000000016617263706173735f736f6369616c5f6163636f756e74000000000000000000000000000000000000000000000000000000000000000000000000000000000005322e302e3000000000000000000000000000000000000000000000000000000000000000000000000000000000000000000000000000000000000000000000925b7b226e616d65223a22706c6174666f726d222c2274797065223a22737472696e67227d2c7b226e616d65223a2268616e646c65222c2274797065223a22737472696e67227d2c7b226e616d65223a2270726f66696c654964222c2274797065223a22737472696e67227d2c7b226e616d65223a2276657269666965644174222c2274797065223a2275696e743634227d5d0000000000000000000000000000",
        "nonce": "0x3a",
        "chainId": "0x4cef52"
      },
      "additionalContracts": [],
      "isFixedGasLimit": false
    },
    {
      "hash": "0xe109e1837e5e7f81cb53ed6319741aa2db041b65499d321abf3ef33a99eb56ed",
      "transactionType": "CALL",
      "contractName": null,
      "contractAddress": "0x4096b75c387df6c16841153cd54418378bdcb15d",
      "function": "attest(address,bytes32,bytes32,uint256)",
      "arguments": [
        "0x04e0353B7218b66D6803725ce7342E6e1225DB1b",
        "0x3254b28ba70cbb687d543d2586a24ebfd9fbfda6f2cee962bfaf4ee62a45b18d",
        "0x99c0c360dce4d20680d78a996cbd8616a8bc935c5c6b62c4e7432174c7add9c9",
        "0"
      ],
      "transaction": {
        "from": "0x04e0353b7218b66d6803725ce7342e6e1225db1b",
        "to": "0x4096b75c387df6c16841153cd54418378bdcb15d",
        "gas": "0x4cf70",
        "value": "0x0",
        "input": "0xfafd163200000000000000000000000004e0353b7218b66d6803725ce7342e6e1225db1b3254b28ba70cbb687d543d2586a24ebfd9fbfda6f2cee962bfaf4ee62a45b18d99c0c360dce4d20680d78a996cbd8616a8bc935c5c6b62c4e7432174c7add9c90000000000000000000000000000000000000000000000000000000000000000",
        "nonce": "0x3b",
        "chainId": "0x4cef52"
      },
      "additionalContracts": [],
      "isFixedGasLimit": false
    },
    {
      "hash": "0xaabc18d92f8c86712a5476bfe5f91a4995c1a5d4f81a6e76759ba3884b204273",
      "transactionType": "CALL",
      "contractName": null,
      "contractAddress": "0x00902216bcaff0d205f4dfb8468f178aadcf325f",
      "function": "registerSchema(string,string,string)",
      "arguments": [
        "arcpass_humanity",
        "2.0.0",
        "[{\\\"name\\\":\\\"verified\\\",\\\"type\\\":\\\"bool\\\"},{\\\"name\\\":\\\"mechanism\\\",\\\"type\\\":\\\"string\\\"},{\\\"name\\\":\\\"nullifier\\\",\\\"type\\\":\\\"bytes32\\\"},{\\\"name\\\":\\\"checkedAt\\\",\\\"type\\\":\\\"uint64\\\"}]"
      ],
      "transaction": {
        "from": "0x04e0353b7218b66d6803725ce7342e6e1225db1b",
        "to": "0x00902216bcaff0d205f4dfb8468f178aadcf325f",
        "gas": "0x776ce",
        "value": "0x0",
        "input": "0x53d1945d000000000000000000000000000000000000000000000000000000000000006000000000000000000000000000000000000000000000000000000000000000a000000000000000000000000000000000000000000000000000000000000000e00000000000000000000000000000000000000000000000000000000000000010617263706173735f68756d616e697479000000000000000000000000000000000000000000000000000000000000000000000000000000000000000000000005322e302e3000000000000000000000000000000000000000000000000000000000000000000000000000000000000000000000000000000000000000000000935b7b226e616d65223a227665726966696564222c2274797065223a22626f6f6c227d2c7b226e616d65223a226d656368616e69736d222c2274797065223a22737472696e67227d2c7b226e616d65223a226e756c6c6966696572222c2274797065223a2262797465733332227d2c7b226e616d65223a22636865636b65644174222c2274797065223a2275696e743634227d5d00000000000000000000000000",
        "nonce": "0x3c",
        "chainId": "0x4cef52"
      },
      "additionalContracts": [],
      "isFixedGasLimit": false
    },
    {
      "hash": "0xac57462df924f67c8fb9a1f87a68f1cccb2ca89be85547514f81ff322fe7a496",
      "transactionType": "CALL",
      "contractName": null,
      "contractAddress": "0x4096b75c387df6c16841153cd54418378bdcb15d",
      "function": "attest(address,bytes32,bytes32,uint256)",
      "arguments": [
        "0x04e0353B7218b66D6803725ce7342E6e1225DB1b",
        "0x8baa4dbb09a74d4d8f10d265aa312996d1b73d3cc671140b05abc4c154dada78",
        "0x67effa0dd5e90d2bd1541f050f08c4916c62f2d04cfae15515b7309a03b54c61",
        "0"
      ],
      "transaction": {
        "from": "0x04e0353b7218b66d6803725ce7342e6e1225db1b",
        "to": "0x4096b75c387df6c16841153cd54418378bdcb15d",
        "gas": "0x4cf70",
        "value": "0x0",
        "input": "0xfafd163200000000000000000000000004e0353b7218b66d6803725ce7342e6e1225db1b8baa4dbb09a74d4d8f10d265aa312996d1b73d3cc671140b05abc4c154dada7867effa0dd5e90d2bd1541f050f08c4916c62f2d04cfae15515b7309a03b54c610000000000000000000000000000000000000000000000000000000000000000",
        "nonce": "0x3d",
        "chainId": "0x4cef52"
      },
      "additionalContracts": [],
      "isFixedGasLimit": false
    },
    {
      "hash": "0xc55a6df392fcd5da0b87c60cfc2f99d6430bc22a56516c56c9a86b60b01b42c0",
      "transactionType": "CALL",
      "contractName": null,
      "contractAddress": "0x00902216bcaff0d205f4dfb8468f178aadcf325f",
      "function": "registerSchema(string,string,string)",
      "arguments": [
        "arcpass_custom_example",
        "2.0.0",
        "[{\\\"name\\\":\\\"fieldName\\\",\\\"type\\\":\\\"string\\\"},{\\\"name\\\":\\\"fieldValue\\\",\\\"type\\\":\\\"string\\\"}]"
      ],
      "transaction": {
        "from": "0x04e0353b7218b66d6803725ce7342e6e1225db1b",
        "to": "0x00902216bcaff0d205f4dfb8468f178aadcf325f",
        "gas": "0x67320",
        "value": "0x0",
        "input": "0x53d1945d000000000000000000000000000000000000000000000000000000000000006000000000000000000000000000000000000000000000000000000000000000a000000000000000000000000000000000000000000000000000000000000000e00000000000000000000000000000000000000000000000000000000000000016617263706173735f637573746f6d5f6578616d706c65000000000000000000000000000000000000000000000000000000000000000000000000000000000005322e302e30000000000000000000000000000000000000000000000000000000000000000000000000000000000000000000000000000000000000000000004c5b7b226e616d65223a226669656c644e616d65222c2274797065223a22737472696e67227d2c7b226e616d65223a226669656c6456616c7565222c2274797065223a22737472696e67227d5d0000000000000000000000000000000000000000",
        "nonce": "0x3e",
        "chainId": "0x4cef52"
      },
      "additionalContracts": [],
      "isFixedGasLimit": false
    },
    {
      "hash": "0x43168ec2191954fd90e37fcd80badc177fa1adfc65ccb20712683f19faa79dbe",
      "transactionType": "CALL",
      "contractName": null,
      "contractAddress": "0x4096b75c387df6c16841153cd54418378bdcb15d",
      "function": "attest(address,bytes32,bytes32,uint256)",
      "arguments": [
        "0x04e0353B7218b66D6803725ce7342E6e1225DB1b",
        "0xb8784670a608c6a5270d86aa400498a17efe327fa41cfb7f35e2a80a0908d96f",
        "0x337d25f2c51c7e5bb5dee038a58d637f88003158cbe640d0c866ebd6f3bf82fe",
        "0"
      ],
      "transaction": {
        "from": "0x04e0353b7218b66d6803725ce7342e6e1225db1b",
        "to": "0x4096b75c387df6c16841153cd54418378bdcb15d",
        "gas": "0x48af6",
        "value": "0x0",
        "input": "0xfafd163200000000000000000000000004e0353b7218b66d6803725ce7342e6e1225db1bb8784670a608c6a5270d86aa400498a17efe327fa41cfb7f35e2a80a0908d96f337d25f2c51c7e5bb5dee038a58d637f88003158cbe640d0c866ebd6f3bf82fe0000000000000000000000000000000000000000000000000000000000000000",
        "nonce": "0x3f",
        "chainId": "0x4cef52"
      },
      "additionalContracts": [],
      "isFixedGasLimit": false
    }
  ],
  "receipts": [
    {
      "type": "0x2",
      "status": "0x1",
      "cumulativeGasUsed": "0xe44795",
      "logs": [
        {
          "address": "0x4096b75c387df6c16841153cd54418378bdcb15d",
          "topics": [
            "0x2f8788117e7eff1d82e926ec794901d17c78024a50270940304540a733656f0d",
            "0x114e74f6ea3bd819998f78687bfcb11b140da08e9b7d222fa9c1f1ba1f2aa122",
            "0x0000000000000000000000001804c8ab1f12e6bbf3894d4083f33e07309d1f38",
            "0x00000000000000000000000004e0353b7218b66d6803725ce7342e6e1225db1b"
          ],
          "data": "0x",
          "blockHash": "0xea333829d70f33f24924682d12f741fa2154b311430dcc3cc2086ce2cfccd017",
          "blockNumber": "0x2d05f63",
          "blockTimestamp": "0x6a302f1e",
          "transactionHash": "0xee449a569832e4e2a73f1b2a6f6cf5042f1a8838312ac3caa4c3b891dc5377cc",
          "transactionIndex": "0x1c",
          "logIndex": "0x201",
          "removed": false
        }
      ],
      "logsBloom": "0x00000004000000000000000000000000000000000000000000000000000000000000000000000000000000000000000000000000000000000000000400000000000000000000000000000000000000000000000000000000000000000000000010000000010000000001000000000000000000000000000000000040000000000000000000000000004004000000000000000000000000000000000000000000000000000000000000000000000000000000000000000000001000000001000000000000000004000000000000000000000000000000000100000000000000000000000004000000000002000000000000000000000000000000000008000000",
      "transactionHash": "0xee449a569832e4e2a73f1b2a6f6cf5042f1a8838312ac3caa4c3b891dc5377cc",
      "transactionIndex": "0x1c",
      "blockHash": "0xea333829d70f33f24924682d12f741fa2154b311430dcc3cc2086ce2cfccd017",
      "blockNumber": "0x2d05f63",
      "gasUsed": "0x19f60",
      "effectiveGasPrice": "0x4e7b90869",
      "from": "0x04e0353b7218b66d6803725ce7342e6e1225db1b",
      "to": "0x4096b75c387df6c16841153cd54418378bdcb15d",
      "contractAddress": null
    },
    {
      "type": "0x2",
      "status": "0x1",
      "cumulativeGasUsed": "0xe5253d",
      "logs": [
        {
          "address": "0x4096b75c387df6c16841153cd54418378bdcb15d",
          "topics": [
            "0x2f8788117e7eff1d82e926ec794901d17c78024a50270940304540a733656f0d",
            "0xce3f34913921da558f105cefb578d87278debbbd073a8d552b5de0d168deee30",
            "0x0000000000000000000000001804c8ab1f12e6bbf3894d4083f33e07309d1f38",
            "0x00000000000000000000000004e0353b7218b66d6803725ce7342e6e1225db1b"
          ],
          "data": "0x",
          "blockHash": "0xea333829d70f33f24924682d12f741fa2154b311430dcc3cc2086ce2cfccd017",
          "blockNumber": "0x2d05f63",
          "blockTimestamp": "0x6a302f1e",
          "transactionHash": "0xce6a3dc2cfb2aaf7ae095329eb0e343db4936b6ca939990816eec884a4d0ce09",
          "transactionIndex": "0x1d",
          "logIndex": "0x202",
          "removed": false
        }
      ],
      "logsBloom": "0x00000004000000000000000000000000000000000000000000000000000000000000000000000000000000000000000000000000000000000000000400000000000000000000000000080000000000000000000000000000000000004000000010000200010000000001000000000000000000000000000000000000000000000000000000000000004004000000000000000000000000000000000000000000000000000000000000000000000000000000000000000000001000000000000000000000000004000000000000000000000000000000000100000000000000000000000000000000000002000000000000000000000000000000000008000000",
      "transactionHash": "0xce6a3dc2cfb2aaf7ae095329eb0e343db4936b6ca939990816eec884a4d0ce09",
      "transactionIndex": "0x1d",
      "blockHash": "0xea333829d70f33f24924682d12f741fa2154b311430dcc3cc2086ce2cfccd017",
      "blockNumber": "0x2d05f63",
      "gasUsed": "0xdda8",
      "effectiveGasPrice": "0x4e7b90869",
      "from": "0x04e0353b7218b66d6803725ce7342e6e1225db1b",
      "to": "0x4096b75c387df6c16841153cd54418378bdcb15d",
      "contractAddress": null
    },
    {
      "type": "0x2",
      "status": "0x1",
      "cumulativeGasUsed": "0xe9e6f8",
      "logs": [
        {
          "address": "0x00902216bcaff0d205f4dfb8468f178aadcf325f",
          "topics": [
            "0xcc8ffa41e049f188a802e4d9c56cc32f0635bfae836764488c6747dc6e711d65",
            "0x8f1fcdd96febe917f0a199a598c833f55cda30ac0a6cb8c337c76a26790c65dc",
            "0x00000000000000000000000004e0353b7218b66d6803725ce7342e6e1225db1b"
          ],
          "data": "0x000000000000000000000000000000000000000000000000000000000000004000000000000000000000000000000000000000000000000000000000000000800000000000000000000000000000000000000000000000000000000000000010617263706173735f6964656e74697479000000000000000000000000000000000000000000000000000000000000000000000000000000000000000000000005322e302e30000000000000000000000000000000000000000000000000000000",
          "blockHash": "0xea333829d70f33f24924682d12f741fa2154b311430dcc3cc2086ce2cfccd017",
          "blockNumber": "0x2d05f63",
          "blockTimestamp": "0x6a302f1e",
          "transactionHash": "0x8b8bdbe46c4b4ec2c274d7d4cca3f680056667e119e3295231a030fe222805d6",
          "transactionIndex": "0x1e",
          "logIndex": "0x203",
          "removed": false
        }
      ],
      "logsBloom": "0x00000000000000000000000080000000000000000000000020000000000000000000000000000000000000082000000000000000000000000000000000000000000000000000000000000000000000000000000000000020000000000000000010000000010000000000000000000000000000000000000000000000000000000000100000000000000000000000000000000000000000000000000000000000000000000000000000000000000000000000000000000000000000000000000000000000000000000000000000000000100000400000000000000000000000000000000000004000000002000000000000000000000000000000000000000000",
      "transactionHash": "0x8b8bdbe46c4b4ec2c274d7d4cca3f680056667e119e3295231a030fe222805d6",
      "transactionIndex": "0x1e",
      "blockHash": "0xea333829d70f33f24924682d12f741fa2154b311430dcc3cc2086ce2cfccd017",
      "blockNumber": "0x2d05f63",
      "gasUsed": "0x4c1bb",
      "effectiveGasPrice": "0x4e7b90869",
      "from": "0x04e0353b7218b66d6803725ce7342e6e1225db1b",
      "to": "0x00902216bcaff0d205f4dfb8468f178aadcf325f",
      "contractAddress": null
    },
    {
      "type": "0x2",
      "status": "0x1",
      "cumulativeGasUsed": "0xed73c7",
      "logs": [
        {
          "address": "0x4096b75c387df6c16841153cd54418378bdcb15d",
          "topics": [
            "0x17a6fd8ad70546156a551284d0884ffae65dd055132d1fe7a347f4b7de730f47",
            "0xd78d553197329c6ff6a6f7aae31e089e79aa656f746fdd9f62f7299bac12260b",
            "0x00000000000000000000000004e0353b7218b66d6803725ce7342e6e1225db1b",
            "0x00000000000000000000000004e0353b7218b66d6803725ce7342e6e1225db1b"
          ],
          "data": "0x8f1fcdd96febe917f0a199a598c833f55cda30ac0a6cb8c337c76a26790c65dc",
          "blockHash": "0xea333829d70f33f24924682d12f741fa2154b311430dcc3cc2086ce2cfccd017",
          "blockNumber": "0x2d05f63",
          "blockTimestamp": "0x6a302f1e",
          "transactionHash": "0x4f766367f6a0656af74b8cf5847c3565f0dd6e2469b54fd17e9f68a9c2c37294",
          "transactionIndex": "0x1f",
          "logIndex": "0x204",
          "removed": false
        }
      ],
      "logsBloom": "0x00000000000000000000000000000000000000000000001000000000000000000000000000000000000000000000000000200200000000000000000401000000000000000000000000000000000000000000000000000000000000000000000010000000010000000000000000000000000000000000000000000000000000000000000000100000004000000000000000000000000000000000000000000000000000000000000000000000000000000000000000000000000000000000000000000000000000000000040000000000000000000000000000000000000000000000000000000000000002000000000000000000000000000000000008000000",
      "transactionHash": "0x4f766367f6a0656af74b8cf5847c3565f0dd6e2469b54fd17e9f68a9c2c37294",
      "transactionIndex": "0x1f",
      "blockHash": "0xea333829d70f33f24924682d12f741fa2154b311430dcc3cc2086ce2cfccd017",
      "blockNumber": "0x2d05f63",
      "gasUsed": "0x38ccf",
      "effectiveGasPrice": "0x4e7b90869",
      "from": "0x04e0353b7218b66d6803725ce7342e6e1225db1b",
      "to": "0x4096b75c387df6c16841153cd54418378bdcb15d",
      "contractAddress": null
    },
    {
      "type": "0x2",
      "status": "0x1",
      "cumulativeGasUsed": "0xf28e14",
      "logs": [
        {
          "address": "0x00902216bcaff0d205f4dfb8468f178aadcf325f",
          "topics": [
            "0xcc8ffa41e049f188a802e4d9c56cc32f0635bfae836764488c6747dc6e711d65",
            "0x2517b2f71473e64f0a129086e698e3a3161daa5d0231ee014d61489626338e70",
            "0x00000000000000000000000004e0353b7218b66d6803725ce7342e6e1225db1b"
          ],
          "data": "0x000000000000000000000000000000000000000000000000000000000000004000000000000000000000000000000000000000000000000000000000000000800000000000000000000000000000000000000000000000000000000000000011617263706173735f6b79635f62617369630000000000000000000000000000000000000000000000000000000000000000000000000000000000000000000005322e302e30000000000000000000000000000000000000000000000000000000",
          "blockHash": "0xea333829d70f33f24924682d12f741fa2154b311430dcc3cc2086ce2cfccd017",
          "blockNumber": "0x2d05f63",
          "blockTimestamp": "0x6a302f1e",
          "transactionHash": "0x2cf359a6762a8275ed70d236f91954e866eaf8639dffab4db019fc050a1e15cb",
          "transactionIndex": "0x20",
          "logIndex": "0x205",
          "removed": false
        }
      ],
      "logsBloom": "0x00000000000000000000000080000008000000000000000020000000000000000000000000000000000000082000000000000000000000000000000000000000000000000000000000000000000000000000004000000000000000000000000010000000010000000000000000000000000000000020000000000000000000000000000000000000000000000000000000000000000000000000000000000000000000000000000000000000000000000000000000000000000000000000000000000000000000000000000000000000100000400000000000000000000000000000000000000000000002000000000000000000000000000000000000000000",
      "transactionHash": "0x2cf359a6762a8275ed70d236f91954e866eaf8639dffab4db019fc050a1e15cb",
      "transactionIndex": "0x20",
      "blockHash": "0xea333829d70f33f24924682d12f741fa2154b311430dcc3cc2086ce2cfccd017",
      "blockNumber": "0x2d05f63",
      "gasUsed": "0x51a4d",
      "effectiveGasPrice": "0x4e7b90869",
      "from": "0x04e0353b7218b66d6803725ce7342e6e1225db1b",
      "to": "0x00902216bcaff0d205f4dfb8468f178aadcf325f",
      "contractAddress": null
    },
    {
      "type": "0x2",
      "status": "0x1",
      "cumulativeGasUsed": "0xf9f7b1",
      "logs": [
        {
          "address": "0x4096b75c387df6c16841153cd54418378bdcb15d",
          "topics": [
            "0x17a6fd8ad70546156a551284d0884ffae65dd055132d1fe7a347f4b7de730f47",
            "0xce7d7b8371033353ffee85b4192299baca57af05cffec632526021d5ee90fedf",
            "0x00000000000000000000000004e0353b7218b66d6803725ce7342e6e1225db1b",
            "0x00000000000000000000000004e0353b7218b66d6803725ce7342e6e1225db1b"
          ],
          "data": "0x2517b2f71473e64f0a129086e698e3a3161daa5d0231ee014d61489626338e70",
          "blockHash": "0xea333829d70f33f24924682d12f741fa2154b311430dcc3cc2086ce2cfccd017",
          "blockNumber": "0x2d05f63",
          "blockTimestamp": "0x6a302f1e",
          "transactionHash": "0xc2db04e0b068706f07307fd2052413ea2c5c2f86dbb950c5136128d37daf1529",
          "transactionIndex": "0x23",
          "logIndex": "0x208",
          "removed": false
        }
      ],
      "logsBloom": "0x00000000004000000000000000000000000000000000000000000000000000000000000000000000000000000000000000000200000000000000000400000000000000000000000000000000000000000000000000000000000000000000000010000000010000800000000000000000000000000000000000000000000000000000000000100000004000000000000000000000000000000000000000000000000000000000000000000000000000000000000000000000000000000000000000000000000000000000040000000000000000000000000000000000000000000000000000000000000002000000000000000000000000000000000018000000",
      "transactionHash": "0xc2db04e0b068706f07307fd2052413ea2c5c2f86dbb950c5136128d37daf1529",
      "transactionIndex": "0x23",
      "blockHash": "0xea333829d70f33f24924682d12f741fa2154b311430dcc3cc2086ce2cfccd017",
      "blockNumber": "0x2d05f63",
      "gasUsed": "0x34a03",
      "effectiveGasPrice": "0x4e7b90869",
      "from": "0x04e0353b7218b66d6803725ce7342e6e1225db1b",
      "to": "0x4096b75c387df6c16841153cd54418378bdcb15d",
      "contractAddress": null
    },
    {
      "type": "0x2",
      "status": "0x1",
      "cumulativeGasUsed": "0xfeb948",
      "logs": [
        {
          "address": "0x00902216bcaff0d205f4dfb8468f178aadcf325f",
          "topics": [
            "0xcc8ffa41e049f188a802e4d9c56cc32f0635bfae836764488c6747dc6e711d65",
            "0x7fcb88027d0fedec4bedc9badfebf25c25caf0842d640d0b471c6d4672370f5b",
            "0x00000000000000000000000004e0353b7218b66d6803725ce7342e6e1225db1b"
          ],
          "data": "0x000000000000000000000000000000000000000000000000000000000000004000000000000000000000000000000000000000000000000000000000000000800000000000000000000000000000000000000000000000000000000000000015617263706173735f616d6c5f73637265656e696e6700000000000000000000000000000000000000000000000000000000000000000000000000000000000005322e302e30000000000000000000000000000000000000000000000000000000",
          "blockHash": "0xea333829d70f33f24924682d12f741fa2154b311430dcc3cc2086ce2cfccd017",
          "blockNumber": "0x2d05f63",
          "blockTimestamp": "0x6a302f1e",
          "transactionHash": "0xa81853dd65f2826588f717cd662307cc8c68d2f809aaacc96cb1417739491492",
          "transactionIndex": "0x24",
          "logIndex": "0x209",
          "removed": false
        }
      ],
      "logsBloom": "0x00000000000000000000000080000000000000000000000020000000000000000000000000000000000000082000000000000000001000000000000000000000000000000000000000000000000000000000000000000000000000000000000010000000010000000000000000000000000000000000000000000000000000000000000000000000000000000200000000000000000000000000000000000000000000000000000000000000000000000000000000000000000000000000000000000000000000000000000000000000108000400000000000000000000000000000000000000000000002000000000000000000000000000000000000000000",
      "transactionHash": "0xa81853dd65f2826588f717cd662307cc8c68d2f809aaacc96cb1417739491492",
      "transactionIndex": "0x24",
      "blockHash": "0xea333829d70f33f24924682d12f741fa2154b311430dcc3cc2086ce2cfccd017",
      "blockNumber": "0x2d05f63",
      "gasUsed": "0x4c197",
      "effectiveGasPrice": "0x4e7b90869",
      "from": "0x04e0353b7218b66d6803725ce7342e6e1225db1b",
      "to": "0x00902216bcaff0d205f4dfb8468f178aadcf325f",
      "contractAddress": null
    },
    {
      "type": "0x2",
      "status": "0x1",
      "cumulativeGasUsed": "0x102034b",
      "logs": [
        {
          "address": "0x4096b75c387df6c16841153cd54418378bdcb15d",
          "topics": [
            "0x17a6fd8ad70546156a551284d0884ffae65dd055132d1fe7a347f4b7de730f47",
            "0x8b79bffeb1b329218fcf6fb2476d32adc2c07eaa228ca36c3cd0a3dd77a68366",
            "0x00000000000000000000000004e0353b7218b66d6803725ce7342e6e1225db1b",
            "0x00000000000000000000000004e0353b7218b66d6803725ce7342e6e1225db1b"
          ],
          "data": "0x7fcb88027d0fedec4bedc9badfebf25c25caf0842d640d0b471c6d4672370f5b",
          "blockHash": "0xea333829d70f33f24924682d12f741fa2154b311430dcc3cc2086ce2cfccd017",
          "blockNumber": "0x2d05f63",
          "blockTimestamp": "0x6a302f1e",
          "transactionHash": "0xff98d18e1240c6e3101b7e73d2edcbb6795215a653f6f40a6ebc8adec12874ff",
          "transactionIndex": "0x25",
          "logIndex": "0x20a",
          "removed": false
        }
      ],
      "logsBloom": "0x00000000000000000000000000000000000000000000000000000000000000000000000000000000000000000000000000000200000000000000000400000000000000000000000000000000000000000000000000000000000000000000040010000000010000000000000000000000000000000000000000000000000000000000000000100000004000000000000000000000000000000000000000000000000000000000000000000000000000000000000000000000000000000000000000000000080000000000040000000000000000000000000000000000000000000000000000000000000002000000000000800000000000000000000008000000",
      "transactionHash": "0xff98d18e1240c6e3101b7e73d2edcbb6795215a653f6f40a6ebc8adec12874ff",
      "transactionIndex": "0x25",
      "blockHash": "0xea333829d70f33f24924682d12f741fa2154b311430dcc3cc2086ce2cfccd017",
      "blockNumber": "0x2d05f63",
      "gasUsed": "0x34a03",
      "effectiveGasPrice": "0x4e7b90869",
      "from": "0x04e0353b7218b66d6803725ce7342e6e1225db1b",
      "to": "0x4096b75c387df6c16841153cd54418378bdcb15d",
      "contractAddress": null
    },
    {
      "type": "0x2",
      "status": "0x1",
      "cumulativeGasUsed": "0x10b75b4",
      "logs": [
        {
          "address": "0x00902216bcaff0d205f4dfb8468f178aadcf325f",
          "topics": [
            "0xcc8ffa41e049f188a802e4d9c56cc32f0635bfae836764488c6747dc6e711d65",
            "0x3798fcd5e336193b78d6c342a061f31fbc5668f5084ba17ee4bd59a1fb972419",
            "0x00000000000000000000000004e0353b7218b66d6803725ce7342e6e1225db1b"
          ],
          "data": "0x000000000000000000000000000000000000000000000000000000000000004000000000000000000000000000000000000000000000000000000000000000800000000000000000000000000000000000000000000000000000000000000015617263706173735f63657274696669636174696f6e00000000000000000000000000000000000000000000000000000000000000000000000000000000000005322e302e30000000000000000000000000000000000000000000000000000000",
          "blockHash": "0xea333829d70f33f24924682d12f741fa2154b311430dcc3cc2086ce2cfccd017",
          "blockNumber": "0x2d05f63",
          "blockTimestamp": "0x6a302f1e",
          "transactionHash": "0xce6a83bdf9aa375efa1b6533d581b9691e32e90f396a7860b067738f7c71d8e4",
          "transactionIndex": "0x28",
          "logIndex": "0x20f",
          "removed": false
        }
      ],
      "logsBloom": "0x00000000000000000000000080000000000008000000000020000000000000000000000000000000000000082000000000000000000000000000000000000000000000000000000000000000000000000000000000000000000000000000000010000000010000000000000000000000000000000000000000000000000000000000000000000000000000000000000000000000000000000000000000000000000000000000000000000000000000000000000000000000000000000000000000000000040000000000000000000000100000400000000000000000000000000000000000000000000002000000000001000000000000000000000000000000",
      "transactionHash": "0xce6a83bdf9aa375efa1b6533d581b9691e32e90f396a7860b067738f7c71d8e4",
      "transactionIndex": "0x28",
      "blockHash": "0xea333829d70f33f24924682d12f741fa2154b311430dcc3cc2086ce2cfccd017",
      "blockNumber": "0x2d05f63",
      "gasUsed": "0x573c2",
      "effectiveGasPrice": "0x4e7b90869",
      "from": "0x04e0353b7218b66d6803725ce7342e6e1225db1b",
      "to": "0x00902216bcaff0d205f4dfb8468f178aadcf325f",
      "contractAddress": null
    },
    {
      "type": "0x2",
      "status": "0x1",
      "cumulativeGasUsed": "0x10ebfab",
      "logs": [
        {
          "address": "0x4096b75c387df6c16841153cd54418378bdcb15d",
          "topics": [
            "0x17a6fd8ad70546156a551284d0884ffae65dd055132d1fe7a347f4b7de730f47",
            "0x8e6bc2072748d1bbf8133a5091c41bbbe61973156433e5bb2b63d22a1f9371bc",
            "0x00000000000000000000000004e0353b7218b66d6803725ce7342e6e1225db1b",
            "0x00000000000000000000000004e0353b7218b66d6803725ce7342e6e1225db1b"
          ],
          "data": "0x3798fcd5e336193b78d6c342a061f31fbc5668f5084ba17ee4bd59a1fb972419",
          "blockHash": "0xea333829d70f33f24924682d12f741fa2154b311430dcc3cc2086ce2cfccd017",
          "blockNumber": "0x2d05f63",
          "blockTimestamp": "0x6a302f1e",
          "transactionHash": "0x6b2e25d2f0cf0257b50c6cebeaf6e05faef3c462e879ba261b8fc7f48fc1a927",
          "transactionIndex": "0x29",
          "logIndex": "0x210",
          "removed": false
        }
      ],
      "logsBloom": "0x00000000000000000000000000000040000000000000000000000000000000000000000000000000000000000000000000000200000000000000000400000000000000000000000000000000000000000000000000000000000000000000000010000000010000000000000000000000000000000000000000000000000000000000000000100000004000000000000000000000000000000000000000000000000000000000000000000000000000000000000000000000400000000000000000000000000000004000040000000000000000000000000000000000000000000000000000000000000002000000000000000000000000000000000008000000",
      "transactionHash": "0x6b2e25d2f0cf0257b50c6cebeaf6e05faef3c462e879ba261b8fc7f48fc1a927",
      "transactionIndex": "0x29",
      "blockHash": "0xea333829d70f33f24924682d12f741fa2154b311430dcc3cc2086ce2cfccd017",
      "blockNumber": "0x2d05f63",
      "gasUsed": "0x349f7",
      "effectiveGasPrice": "0x4e7b90869",
      "from": "0x04e0353b7218b66d6803725ce7342e6e1225db1b",
      "to": "0x4096b75c387df6c16841153cd54418378bdcb15d",
      "contractAddress": null
    },
    {
      "type": "0x2",
      "status": "0x1",
      "cumulativeGasUsed": "0x11380cd",
      "logs": [
        {
          "address": "0x00902216bcaff0d205f4dfb8468f178aadcf325f",
          "topics": [
            "0xcc8ffa41e049f188a802e4d9c56cc32f0635bfae836764488c6747dc6e711d65",
            "0xdad22fdebbf6d8f3ed75b8256b9a085e57276df9f244912294ea6342a10bd209",
            "0x00000000000000000000000004e0353b7218b66d6803725ce7342e6e1225db1b"
          ],
          "data": "0x00000000000000000000000000000000000000000000000000000000000000400000000000000000000000000000000000000000000000000000000000000080000000000000000000000000000000000000000000000000000000000000000d617263706173735f736b696c6c000000000000000000000000000000000000000000000000000000000000000000000000000000000000000000000000000005322e302e30000000000000000000000000000000000000000000000000000000",
          "blockHash": "0xea333829d70f33f24924682d12f741fa2154b311430dcc3cc2086ce2cfccd017",
          "blockNumber": "0x2d05f63",
          "blockTimestamp": "0x6a302f1e",
          "transactionHash": "0xfb346a5213ac0309558639010bc97ec51462be476d299c2fbf4189c10495ac83",
          "transactionIndex": "0x2a",
          "logIndex": "0x211",
          "removed": false
        }
      ],
      "logsBloom": "0x00000000000000000000000080000000000000000000000020000000000000000000000400000000000000082000000000000040000000000000000000000000000000000000000000000000000000000000000000000000000000000000000010000000010000000000000000000000000000000000000000000000000000000000000000000000000000000020000000000000000000000000000000000000000000000000000000000000000000000000000000000000000000000000000000000000000000000000000000000000100000400000000000000000000000000000000000000000000002000000000000000000000000000000000000000000",
      "transactionHash": "0xfb346a5213ac0309558639010bc97ec51462be476d299c2fbf4189c10495ac83",
      "transactionIndex": "0x2a",
      "blockHash": "0xea333829d70f33f24924682d12f741fa2154b311430dcc3cc2086ce2cfccd017",
      "blockNumber": "0x2d05f63",
      "gasUsed": "0x4c122",
      "effectiveGasPrice": "0x4e7b90869",
      "from": "0x04e0353b7218b66d6803725ce7342e6e1225db1b",
      "to": "0x00902216bcaff0d205f4dfb8468f178aadcf325f",
      "contractAddress": null
    },
    {
      "type": "0x2",
      "status": "0x1",
      "cumulativeGasUsed": "0x116cad0",
      "logs": [
        {
          "address": "0x4096b75c387df6c16841153cd54418378bdcb15d",
          "topics": [
            "0x17a6fd8ad70546156a551284d0884ffae65dd055132d1fe7a347f4b7de730f47",
            "0x32ebdbea416834312a9e28b94af387a607e2b0b13a88fa996b43bde2a99ce7c4",
            "0x00000000000000000000000004e0353b7218b66d6803725ce7342e6e1225db1b",
            "0x00000000000000000000000004e0353b7218b66d6803725ce7342e6e1225db1b"
          ],
          "data": "0xdad22fdebbf6d8f3ed75b8256b9a085e57276df9f244912294ea6342a10bd209",
          "blockHash": "0xea333829d70f33f24924682d12f741fa2154b311430dcc3cc2086ce2cfccd017",
          "blockNumber": "0x2d05f63",
          "blockTimestamp": "0x6a302f1e",
          "transactionHash": "0x8dbcc022281dcb6fe5b83e3b6227d47aabc753f60a93497dc9bfaf1abc79d000",
          "transactionIndex": "0x2b",
          "logIndex": "0x212",
          "removed": false
        }
      ],
      "logsBloom": "0x00000000000000000000000000000000000000000000000000000000000000000000000000000000000000000000000000000200000000000000000400000000000800000000000000000000000000000000000000001000000000000000000010000800010000000000000000000000000000000000000000000000000000000000000000100000004000000000000000000000000000000000000000000000000000000000000000000000000000000000000000000000000000000000000000000000000000000000040000000000000000000000000000000000000000000000000000000000000002000000000000000000000000000000000008000000",
      "transactionHash": "0x8dbcc022281dcb6fe5b83e3b6227d47aabc753f60a93497dc9bfaf1abc79d000",
      "transactionIndex": "0x2b",
      "blockHash": "0xea333829d70f33f24924682d12f741fa2154b311430dcc3cc2086ce2cfccd017",
      "blockNumber": "0x2d05f63",
      "gasUsed": "0x34a03",
      "effectiveGasPrice": "0x4e7b90869",
      "from": "0x04e0353b7218b66d6803725ce7342e6e1225db1b",
      "to": "0x4096b75c387df6c16841153cd54418378bdcb15d",
      "contractAddress": null
    },
    {
      "type": "0x2",
      "status": "0x1",
      "cumulativeGasUsed": "0x11c3e9e",
      "logs": [
        {
          "address": "0x00902216bcaff0d205f4dfb8468f178aadcf325f",
          "topics": [
            "0xcc8ffa41e049f188a802e4d9c56cc32f0635bfae836764488c6747dc6e711d65",
            "0x747bf8f89f18076f079862efc876607d35408187c52a65f9e93686123c8da311",
            "0x00000000000000000000000004e0353b7218b66d6803725ce7342e6e1225db1b"
          ],
          "data": "0x000000000000000000000000000000000000000000000000000000000000004000000000000000000000000000000000000000000000000000000000000000800000000000000000000000000000000000000000000000000000000000000016617263706173735f64616f5f6d656d62657273686970000000000000000000000000000000000000000000000000000000000000000000000000000000000005322e302e30000000000000000000000000000000000000000000000000000000",
          "blockHash": "0xea333829d70f33f24924682d12f741fa2154b311430dcc3cc2086ce2cfccd017",
          "blockNumber": "0x2d05f63",
          "blockTimestamp": "0x6a302f1e",
          "transactionHash": "0xeb8612c4711dc0f75e572b03df5a137940ec084f16849ffda36d90d3555d39df",
          "transactionIndex": "0x2c",
          "logIndex": "0x213",
          "removed": false
        }
      ],
      "logsBloom": "0x00000000000000000000000080000000000000000000000020000000000000000000000000000000080000082000000000000010000000000000000000000000000000000000000000000000000000000000000000000000000000000000000010000000010000000000000000000000000000000000000000000000000000000000000000000000000000000000000000000000000000000000000000000000000000000000000000000000000000000000000000000000000000020000000000000000000000000000000000000000100000400000000000000000000000000000000000000000000002000000000000000000000000000000000000000000",
      "transactionHash": "0xeb8612c4711dc0f75e572b03df5a137940ec084f16849ffda36d90d3555d39df",
      "transactionIndex": "0x2c",
      "blockHash": "0xea333829d70f33f24924682d12f741fa2154b311430dcc3cc2086ce2cfccd017",
      "blockNumber": "0x2d05f63",
      "gasUsed": "0x573ce",
      "effectiveGasPrice": "0x4e7b90869",
      "from": "0x04e0353b7218b66d6803725ce7342e6e1225db1b",
      "to": "0x00902216bcaff0d205f4dfb8468f178aadcf325f",
      "contractAddress": null
    },
    {
      "type": "0x2",
      "status": "0x1",
      "cumulativeGasUsed": "0x11f88a1",
      "logs": [
        {
          "address": "0x4096b75c387df6c16841153cd54418378bdcb15d",
          "topics": [
            "0x17a6fd8ad70546156a551284d0884ffae65dd055132d1fe7a347f4b7de730f47",
            "0x00f5c678dec1cec1acc0756b42397bcb7d5cb05364521bc811f153c8ad0e84d5",
            "0x00000000000000000000000004e0353b7218b66d6803725ce7342e6e1225db1b",
            "0x00000000000000000000000004e0353b7218b66d6803725ce7342e6e1225db1b"
          ],
          "data": "0x747bf8f89f18076f079862efc876607d35408187c52a65f9e93686123c8da311",
          "blockHash": "0xea333829d70f33f24924682d12f741fa2154b311430dcc3cc2086ce2cfccd017",
          "blockNumber": "0x2d05f63",
          "blockTimestamp": "0x6a302f1e",
          "transactionHash": "0x0b40f1aed34b0b4894c6f87181bb6a7c69f5d03b50600c5bf1209811135f05a0",
          "transactionIndex": "0x2d",
          "logIndex": "0x214",
          "removed": false
        }
      ],
      "logsBloom": "0x00000000000000000000000000000000000000000000000000000000000000000000000000000000000000000000000000000200000000000000000400000000000000000000000000000000000000000000000000000000000000000000000010000000010000000000000000000000000000000000000000000000000000000000020000100000004000000000000000000000000000000000000000000000000000000000000000000000000000000000000010000000000000000000000000000000000000000000040000000000000000040000000000000000000000000000000000000000000002000000000000000000000000000000000008000000",
      "transactionHash": "0x0b40f1aed34b0b4894c6f87181bb6a7c69f5d03b50600c5bf1209811135f05a0",
      "transactionIndex": "0x2d",
      "blockHash": "0xea333829d70f33f24924682d12f741fa2154b311430dcc3cc2086ce2cfccd017",
      "blockNumber": "0x2d05f63",
      "gasUsed": "0x34a03",
      "effectiveGasPrice": "0x4e7b90869",
      "from": "0x04e0353b7218b66d6803725ce7342e6e1225db1b",
      "to": "0x4096b75c387df6c16841153cd54418378bdcb15d",
      "contractAddress": null
    },
    {
      "type": "0x2",
      "status": "0x1",
      "cumulativeGasUsed": "0x124a366",
      "logs": [
        {
          "address": "0x00902216bcaff0d205f4dfb8468f178aadcf325f",
          "topics": [
            "0xcc8ffa41e049f188a802e4d9c56cc32f0635bfae836764488c6747dc6e711d65",
            "0x6c4b8518b9f64f0598c663cfc4b0fc4c5707be1ec010013b17c587f44ae6b866",
            "0x00000000000000000000000004e0353b7218b66d6803725ce7342e6e1225db1b"
          ],
          "data": "0x000000000000000000000000000000000000000000000000000000000000004000000000000000000000000000000000000000000000000000000000000000800000000000000000000000000000000000000000000000000000000000000018617263706173735f72657075746174696f6e5f73636f726500000000000000000000000000000000000000000000000000000000000000000000000000000005322e302e30000000000000000000000000000000000000000000000000000000",
          "blockHash": "0xea333829d70f33f24924682d12f741fa2154b311430dcc3cc2086ce2cfccd017",
          "blockNumber": "0x2d05f63",
          "blockTimestamp": "0x6a302f1e",
          "transactionHash": "0xe6fa7817e5228acaf536bd80b152ed381717362e1c966f70deb797045f4289bb",
          "transactionIndex": "0x2e",
          "logIndex": "0x215",
          "removed": false
        }
      ],
      "logsBloom": "0x00000000000000000000000280000000000000000000000020000000000000000000000000000000000000082000000000000000000000000000000000000000000000000000000000000000000000000000000000000000000000000000000010000000010000000000000000000000000000000000000000000000000000000000000000000000000000000000000000000000000000000000000000000000000000000000000000000000000000000000000000000000000000000000000000000000000000000000000000000000100000400000000000000000000000000000010800000000000002000000000000000000000000000000000000000000",
      "transactionHash": "0xe6fa7817e5228acaf536bd80b152ed381717362e1c966f70deb797045f4289bb",
      "transactionIndex": "0x2e",
      "blockHash": "0xea333829d70f33f24924682d12f741fa2154b311430dcc3cc2086ce2cfccd017",
      "blockNumber": "0x2d05f63",
      "gasUsed": "0x51ac5",
      "effectiveGasPrice": "0x4e7b90869",
      "from": "0x04e0353b7218b66d6803725ce7342e6e1225db1b",
      "to": "0x00902216bcaff0d205f4dfb8468f178aadcf325f",
      "contractAddress": null
    },
    {
      "type": "0x2",
      "status": "0x1",
      "cumulativeGasUsed": "0x127ed69",
      "logs": [
        {
          "address": "0x4096b75c387df6c16841153cd54418378bdcb15d",
          "topics": [
            "0x17a6fd8ad70546156a551284d0884ffae65dd055132d1fe7a347f4b7de730f47",
            "0xe646e7e4346fd8ae56047c5a709154f42e897e5a36573fa392def18b5746cdfc",
            "0x00000000000000000000000004e0353b7218b66d6803725ce7342e6e1225db1b",
            "0x00000000000000000000000004e0353b7218b66d6803725ce7342e6e1225db1b"
          ],
          "data": "0x6c4b8518b9f64f0598c663cfc4b0fc4c5707be1ec010013b17c587f44ae6b866",
          "blockHash": "0xea333829d70f33f24924682d12f741fa2154b311430dcc3cc2086ce2cfccd017",
          "blockNumber": "0x2d05f63",
          "blockTimestamp": "0x6a302f1e",
          "transactionHash": "0xa29907992e15064b39a020f3ae34c343224eba4a9d0721a32a811c76a7b40e22",
          "transactionIndex": "0x2f",
          "logIndex": "0x216",
          "removed": false
        }
      ],
      "logsBloom": "0x00000000000000000000000000000000000000000000000000000000000000000000000000000000000000000000000000000200000000000000000400000000000000000000000000000000000000000000000000000000000000000000000010000000010000000080000000000000000000000000000000000000000000000000000000100000004000000000000000000000000000000000000000000000000000000000000000000000000000000000000000000000000000000004000000000000000000000000040000000000000000000000000000000000000000000000000000000000000002000000000000000000000000000000000018000000",
      "transactionHash": "0xa29907992e15064b39a020f3ae34c343224eba4a9d0721a32a811c76a7b40e22",
      "transactionIndex": "0x2f",
      "blockHash": "0xea333829d70f33f24924682d12f741fa2154b311430dcc3cc2086ce2cfccd017",
      "blockNumber": "0x2d05f63",
      "gasUsed": "0x34a03",
      "effectiveGasPrice": "0x4e7b90869",
      "from": "0x04e0353b7218b66d6803725ce7342e6e1225db1b",
      "to": "0x4096b75c387df6c16841153cd54418378bdcb15d",
      "contractAddress": null
    },
    {
      "type": "0x2",
      "status": "0x1",
      "cumulativeGasUsed": "0x146d15",
      "logs": [
        {
          "address": "0x00902216bcaff0d205f4dfb8468f178aadcf325f",
          "topics": [
            "0xcc8ffa41e049f188a802e4d9c56cc32f0635bfae836764488c6747dc6e711d65",
            "0x70149bcccd703fe7f4dc1e50f585a873b44f223350e0bbcc599d4493c6193f5c",
            "0x00000000000000000000000004e0353b7218b66d6803725ce7342e6e1225db1b"
          ],
          "data": "0x000000000000000000000000000000000000000000000000000000000000004000000000000000000000000000000000000000000000000000000000000000800000000000000000000000000000000000000000000000000000000000000012617263706173735f656d706c6f796d656e7400000000000000000000000000000000000000000000000000000000000000000000000000000000000000000005322e302e30000000000000000000000000000000000000000000000000000000",
          "blockHash": "0x4d8f5acc4d32693182809ec51383af49ebf04b77dfecc93f732e18f4431f4713",
          "blockNumber": "0x2d05f67",
          "blockTimestamp": "0x6a302f21",
          "transactionHash": "0xeb795b68656f35a74ac0ef4516b8466dfede24c39199d9edd09698171cde77d8",
          "transactionIndex": "0x7",
          "logIndex": "0x13",
          "removed": false
        }
      ],
      "logsBloom": "0x00000000000000000000000080000000000000000000000020000000000000000000000000000000000000082000000000000000000000000000000000000000000000000000000000000000000000000000000800000000000000000000000010000000010000000000000000000000000000000000000000000000000000000000000000000000800000000000000000000000000000000000000000000000000000000000000000000000000000000000000000000000000000000000000000000000000000000000000000000000100000400000000000000000000000000000000000000000000002000000000020000000000000000000000000000000",
      "transactionHash": "0xeb795b68656f35a74ac0ef4516b8466dfede24c39199d9edd09698171cde77d8",
      "transactionIndex": "0x7",
      "blockHash": "0x4d8f5acc4d32693182809ec51383af49ebf04b77dfecc93f732e18f4431f4713",
      "blockNumber": "0x2d05f67",
      "gasUsed": "0x5736e",
      "effectiveGasPrice": "0x4e7b90869",
      "from": "0x04e0353b7218b66d6803725ce7342e6e1225db1b",
      "to": "0x00902216bcaff0d205f4dfb8468f178aadcf325f",
      "contractAddress": null
    },
    {
      "type": "0x2",
      "status": "0x1",
      "cumulativeGasUsed": "0x17b718",
      "logs": [
        {
          "address": "0x4096b75c387df6c16841153cd54418378bdcb15d",
          "topics": [
            "0x17a6fd8ad70546156a551284d0884ffae65dd055132d1fe7a347f4b7de730f47",
            "0x19cad0dd5daee37b882f8fa01808a47dfaabcd06a071d3c256cec5ce7d135156",
            "0x00000000000000000000000004e0353b7218b66d6803725ce7342e6e1225db1b",
            "0x00000000000000000000000004e0353b7218b66d6803725ce7342e6e1225db1b"
          ],
          "data": "0x70149bcccd703fe7f4dc1e50f585a873b44f223350e0bbcc599d4493c6193f5c",
          "blockHash": "0x4d8f5acc4d32693182809ec51383af49ebf04b77dfecc93f732e18f4431f4713",
          "blockNumber": "0x2d05f67",
          "blockTimestamp": "0x6a302f21",
          "transactionHash": "0xd104ff390219c92782e0daa5fb2a4036698d452ef5be7e6ce50937f429e43231",
          "transactionIndex": "0x8",
          "logIndex": "0x14",
          "removed": false
        }
      ],
      "logsBloom": "0x00000000000000000000000000000000000000000000000000000000000000000000000000000000000000000000000000000200000000000000000400000000000000000000000000000000000000000000000000000000000000000000000010000000010000000000000000000000000000000000000000200000000000000000000000100000004000000000000000000000000000000000000000000000000000000000000000000000000000000000000000000200000000000000000000000000000000000000040000000000000000000000000000000000000000000000000000000000000802000000000000000000000000000000000008000000",
      "transactionHash": "0xd104ff390219c92782e0daa5fb2a4036698d452ef5be7e6ce50937f429e43231",
      "transactionIndex": "0x8",
      "blockHash": "0x4d8f5acc4d32693182809ec51383af49ebf04b77dfecc93f732e18f4431f4713",
      "blockNumber": "0x2d05f67",
      "gasUsed": "0x34a03",
      "effectiveGasPrice": "0x4e7b90869",
      "from": "0x04e0353b7218b66d6803725ce7342e6e1225db1b",
      "to": "0x4096b75c387df6c16841153cd54418378bdcb15d",
      "contractAddress": null
    },
    {
      "type": "0x2",
      "status": "0x1",
      "cumulativeGasUsed": "0x1d8266",
      "logs": [
        {
          "address": "0x00902216bcaff0d205f4dfb8468f178aadcf325f",
          "topics": [
            "0xcc8ffa41e049f188a802e4d9c56cc32f0635bfae836764488c6747dc6e711d65",
            "0x6841a9081aeaec4c82842dc4efd610d65bc4033baa038fd2cc22985ed1670f34",
            "0x00000000000000000000000004e0353b7218b66d6803725ce7342e6e1225db1b"
          ],
          "data": "0x00000000000000000000000000000000000000000000000000000000000000400000000000000000000000000000000000000000000000000000000000000080000000000000000000000000000000000000000000000000000000000000000e617263706173735f6465677265650000000000000000000000000000000000000000000000000000000000000000000000000000000000000000000000000005322e302e30000000000000000000000000000000000000000000000000000000",
          "blockHash": "0x4d8f5acc4d32693182809ec51383af49ebf04b77dfecc93f732e18f4431f4713",
          "blockNumber": "0x2d05f67",
          "blockTimestamp": "0x6a302f21",
          "transactionHash": "0x2d74c213e8dca7bae55856905a59bdd9b3f29b5a959a3f611ff9847b834bc2a7",
          "transactionIndex": "0x9",
          "logIndex": "0x15",
          "removed": false
        }
      ],
      "logsBloom": "0x00000000000000000000000080000000000000000000000020000000000000000000000000000000000000082000000000000000000000100000000000000000000000000000000000000000000000000000000000000000000000000000000010000000010000000000000000000000000000000000004000000000000000000000000000000000000000000004000000000000000000000000000000000000000000000000000000000000000000000000000000000000000000000000000000000000000000000000000000000000100000400000000000000000000000000000000000000000000002000000000000000000000000000000000000000000",
      "transactionHash": "0x2d74c213e8dca7bae55856905a59bdd9b3f29b5a959a3f611ff9847b834bc2a7",
      "transactionIndex": "0x9",
      "blockHash": "0x4d8f5acc4d32693182809ec51383af49ebf04b77dfecc93f732e18f4431f4713",
      "blockNumber": "0x2d05f67",
      "gasUsed": "0x5cb4e",
      "effectiveGasPrice": "0x4e7b90869",
      "from": "0x04e0353b7218b66d6803725ce7342e6e1225db1b",
      "to": "0x00902216bcaff0d205f4dfb8468f178aadcf325f",
      "contractAddress": null
    },
    {
      "type": "0x2",
      "status": "0x1",
      "cumulativeGasUsed": "0x479a04",
      "logs": [
        {
          "address": "0x4096b75c387df6c16841153cd54418378bdcb15d",
          "topics": [
            "0x17a6fd8ad70546156a551284d0884ffae65dd055132d1fe7a347f4b7de730f47",
            "0x98b81d4dbdc1949baf349a09f12fb5be5812de6113c7cd6cc085384fc304fe08",
            "0x00000000000000000000000004e0353b7218b66d6803725ce7342e6e1225db1b",
            "0x00000000000000000000000004e0353b7218b66d6803725ce7342e6e1225db1b"
          ],
          "data": "0x6841a9081aeaec4c82842dc4efd610d65bc4033baa038fd2cc22985ed1670f34",
          "blockHash": "0x4d8f5acc4d32693182809ec51383af49ebf04b77dfecc93f732e18f4431f4713",
          "blockNumber": "0x2d05f67",
          "blockTimestamp": "0x6a302f21",
          "transactionHash": "0x036b9c38258a86ffa3230280402a5d166dae9d53ed24527f59e02a94930dd6d4",
          "transactionIndex": "0xb",
          "logIndex": "0x17",
          "removed": false
        }
      ],
      "logsBloom": "0x00000000000000000000000000000000000000000000000000000000000000000000000000000000000000000000000000000200000000000000000400000000000000000000000000000000000000000000000000000000000000000000000010000000010000000000000000000000000000000000000000000000000000000000000000100000004000000000200000000000000008000000000000000000000000000000000000000000000000000000000000000000000000000000000000000000000000000000040000000000000000040000000000000000000000000000000000000000000002000000000000000000000000000000000008000000",
      "transactionHash": "0x036b9c38258a86ffa3230280402a5d166dae9d53ed24527f59e02a94930dd6d4",
      "transactionIndex": "0xb",
      "blockHash": "0x4d8f5acc4d32693182809ec51383af49ebf04b77dfecc93f732e18f4431f4713",
      "blockNumber": "0x2d05f67",
      "gasUsed": "0x34a03",
      "effectiveGasPrice": "0x4e7b90869",
      "from": "0x04e0353b7218b66d6803725ce7342e6e1225db1b",
      "to": "0x4096b75c387df6c16841153cd54418378bdcb15d",
      "contractAddress": null
    },
    {
      "type": "0x2",
      "status": "0x1",
      "cumulativeGasUsed": "0x4cb4c9",
      "logs": [
        {
          "address": "0x00902216bcaff0d205f4dfb8468f178aadcf325f",
          "topics": [
            "0xcc8ffa41e049f188a802e4d9c56cc32f0635bfae836764488c6747dc6e711d65",
            "0x3254b28ba70cbb687d543d2586a24ebfd9fbfda6f2cee962bfaf4ee62a45b18d",
            "0x00000000000000000000000004e0353b7218b66d6803725ce7342e6e1225db1b"
          ],
          "data": "0x000000000000000000000000000000000000000000000000000000000000004000000000000000000000000000000000000000000000000000000000000000800000000000000000000000000000000000000000000000000000000000000016617263706173735f736f6369616c5f6163636f756e74000000000000000000000000000000000000000000000000000000000000000000000000000000000005322e302e30000000000000000000000000000000000000000000000000000000",
          "blockHash": "0x4d8f5acc4d32693182809ec51383af49ebf04b77dfecc93f732e18f4431f4713",
          "blockNumber": "0x2d05f67",
          "blockTimestamp": "0x6a302f21",
          "transactionHash": "0xe567d70d38679ba232aa9a6e619e7285d3807482dbb066223c141e96675e188c",
          "transactionIndex": "0xc",
          "logIndex": "0x18",
          "removed": false
        }
      ],
      "logsBloom": "0x00000000000000000000000080000000000000000000000020000000000000000000000000000000000000082000000000000000000000000000000000000000000000000000000000000000000000000000000000000000000000000000000010000000010000001000000000000000000000000000000000000000000000000000100000000000000000000000000000000000000000040000000000000000000000000000000000000000000000000000000000000000000000000000000000000000000000000000000000000000100000400000000000000000000000000000000000000000000002000000000000000000000000000000000000000000",
      "transactionHash": "0xe567d70d38679ba232aa9a6e619e7285d3807482dbb066223c141e96675e188c",
      "transactionIndex": "0xc",
      "blockHash": "0x4d8f5acc4d32693182809ec51383af49ebf04b77dfecc93f732e18f4431f4713",
      "blockNumber": "0x2d05f67",
      "gasUsed": "0x51ac5",
      "effectiveGasPrice": "0x4e7b90869",
      "from": "0x04e0353b7218b66d6803725ce7342e6e1225db1b",
      "to": "0x00902216bcaff0d205f4dfb8468f178aadcf325f",
      "contractAddress": null
    },
    {
      "type": "0x2",
      "status": "0x1",
      "cumulativeGasUsed": "0x4ffecc",
      "logs": [
        {
          "address": "0x4096b75c387df6c16841153cd54418378bdcb15d",
          "topics": [
            "0x17a6fd8ad70546156a551284d0884ffae65dd055132d1fe7a347f4b7de730f47",
            "0x76fc06f1131fecc444ea60a965aa54d66a20a0ccb3ce6616c289a27662963d6f",
            "0x00000000000000000000000004e0353b7218b66d6803725ce7342e6e1225db1b",
            "0x00000000000000000000000004e0353b7218b66d6803725ce7342e6e1225db1b"
          ],
          "data": "0x3254b28ba70cbb687d543d2586a24ebfd9fbfda6f2cee962bfaf4ee62a45b18d",
          "blockHash": "0x4d8f5acc4d32693182809ec51383af49ebf04b77dfecc93f732e18f4431f4713",
          "blockNumber": "0x2d05f67",
          "blockTimestamp": "0x6a302f21",
          "transactionHash": "0xe109e1837e5e7f81cb53ed6319741aa2db041b65499d321abf3ef33a99eb56ed",
          "transactionIndex": "0xd",
          "logIndex": "0x19",
          "removed": false
        }
      ],
      "logsBloom": "0x00000000000000000000000000000000000000002000000000000000000000000000000000000000000000000000000000000200000000000000000400000000000000000000000000000000000000000000000000000000000000000000000010000000010000000000000000000000000000000000000000000000000000000000000000100000004000000000000000000000000000100000000010000000000000000000000000000000000000000000000000000000000000000000000000000000000000000000040000000000000000000000000000000000000000000000000000000000000002000000000000000000000000000000000008000000",
      "transactionHash": "0xe109e1837e5e7f81cb53ed6319741aa2db041b65499d321abf3ef33a99eb56ed",
      "transactionIndex": "0xd",
      "blockHash": "0x4d8f5acc4d32693182809ec51383af49ebf04b77dfecc93f732e18f4431f4713",
      "blockNumber": "0x2d05f67",
      "gasUsed": "0x34a03",
      "effectiveGasPrice": "0x4e7b90869",
      "from": "0x04e0353b7218b66d6803725ce7342e6e1225db1b",
      "to": "0x4096b75c387df6c16841153cd54418378bdcb15d",
      "contractAddress": null
    },
    {
      "type": "0x2",
      "status": "0x1",
      "cumulativeGasUsed": "0x551955",
      "logs": [
        {
          "address": "0x00902216bcaff0d205f4dfb8468f178aadcf325f",
          "topics": [
            "0xcc8ffa41e049f188a802e4d9c56cc32f0635bfae836764488c6747dc6e711d65",
            "0x8baa4dbb09a74d4d8f10d265aa312996d1b73d3cc671140b05abc4c154dada78",
            "0x00000000000000000000000004e0353b7218b66d6803725ce7342e6e1225db1b"
          ],
          "data": "0x000000000000000000000000000000000000000000000000000000000000004000000000000000000000000000000000000000000000000000000000000000800000000000000000000000000000000000000000000000000000000000000010617263706173735f68756d616e697479000000000000000000000000000000000000000000000000000000000000000000000000000000000000000000000005322e302e30000000000000000000000000000000000000000000000000000000",
          "blockHash": "0x4d8f5acc4d32693182809ec51383af49ebf04b77dfecc93f732e18f4431f4713",
          "blockNumber": "0x2d05f67",
          "blockTimestamp": "0x6a302f21",
          "transactionHash": "0xaabc18d92f8c86712a5476bfe5f91a4995c1a5d4f81a6e76759ba3884b204273",
          "transactionIndex": "0xe",
          "logIndex": "0x1a",
          "removed": false
        }
      ],
      "logsBloom": "0x00000000000000000000000080000000000000000000000020000002000000000000000000000000000000082000000000000000000000000000000000000000000000000000000000000000000000000000000000000000000000000000000010000000010000000000000000000000000000000000000000000000000000000000000000000000000000000000000000000000000000000000000000000008000000000000000000000000000000000000000000000000000000000800000000000000000000000000000000000000100000400000000000000000000000000000000000000000000002000000000000000000000000000000000000000000",
      "transactionHash": "0xaabc18d92f8c86712a5476bfe5f91a4995c1a5d4f81a6e76759ba3884b204273",
      "transactionIndex": "0xe",
      "blockHash": "0x4d8f5acc4d32693182809ec51383af49ebf04b77dfecc93f732e18f4431f4713",
      "blockNumber": "0x2d05f67",
      "gasUsed": "0x51a89",
      "effectiveGasPrice": "0x4e7b90869",
      "from": "0x04e0353b7218b66d6803725ce7342e6e1225db1b",
      "to": "0x00902216bcaff0d205f4dfb8468f178aadcf325f",
      "contractAddress": null
    },
    {
      "type": "0x2",
      "status": "0x1",
      "cumulativeGasUsed": "0x586358",
      "logs": [
        {
          "address": "0x4096b75c387df6c16841153cd54418378bdcb15d",
          "topics": [
            "0x17a6fd8ad70546156a551284d0884ffae65dd055132d1fe7a347f4b7de730f47",
            "0x8a70ded9df9f2ae74b8ce146ffe0801f479ec99f543cea6891f0b402a3717306",
            "0x00000000000000000000000004e0353b7218b66d6803725ce7342e6e1225db1b",
            "0x00000000000000000000000004e0353b7218b66d6803725ce7342e6e1225db1b"
          ],
          "data": "0x8baa4dbb09a74d4d8f10d265aa312996d1b73d3cc671140b05abc4c154dada78",
          "blockHash": "0x4d8f5acc4d32693182809ec51383af49ebf04b77dfecc93f732e18f4431f4713",
          "blockNumber": "0x2d05f67",
          "blockTimestamp": "0x6a302f21",
          "transactionHash": "0xc55a6df392fcd5da0b87c60cfc2f99d6430bc22a56516c56c9a86b60b01b42c0",
          "transactionIndex": "0xf",
          "logIndex": "0x1b",
          "removed": false
        }
      ],
      "logsBloom": "0x00000000000000000000000000000000000000000000000000000000000000200000000000000000000000000000000000000200000000000000000400000000000000000000000000000000000000000000000000000000000000000000000010000000010000000000000000000000000000004000000000000000000000000000000000100000004008000000000000000000000000000000000000000000000000000000000000000000000000000000000000000000000000000000000000000000000000000000040000000000000000000000000000000000000000000000000000000000000002000000000000000000000000000000000008000000",
      "transactionHash": "0xc55a6df392fcd5da0b87c60cfc2f99d6430bc22a56516c56c9a86b60b01b42c0",
      "transactionIndex": "0xf",
      "blockHash": "0x4d8f5acc4d32693182809ec51383af49ebf04b77dfecc93f732e18f4431f4713",
      "blockNumber": "0x2d05f67",
      "gasUsed": "0x34a03",
      "effectiveGasPrice": "0x4e7b90869",
      "from": "0x04e0353b7218b66d6803725ce7342e6e1225db1b",
      "to": "0x4096b75c387df6c16841153cd54418378bdcb15d",
      "contractAddress": null
    },
    {
      "type": "0x2",
      "status": "0x1",
      "cumulativeGasUsed": "0x5ccc52",
      "logs": [
        {
          "address": "0x00902216bcaff0d205f4dfb8468f178aadcf325f",
          "topics": [
            "0xcc8ffa41e049f188a802e4d9c56cc32f0635bfae836764488c6747dc6e711d65",
            "0xb8784670a608c6a5270d86aa400498a17efe327fa41cfb7f35e2a80a0908d96f",
            "0x00000000000000000000000004e0353b7218b66d6803725ce7342e6e1225db1b"
          ],
          "data": "0x000000000000000000000000000000000000000000000000000000000000004000000000000000000000000000000000000000000000000000000000000000800000000000000000000000000000000000000000000000000000000000000016617263706173735f637573746f6d5f6578616d706c65000000000000000000000000000000000000000000000000000000000000000000000000000000000005322e302e30000000000000000000000000000000000000000000000000000000",
          "blockHash": "0x4d8f5acc4d32693182809ec51383af49ebf04b77dfecc93f732e18f4431f4713",
          "blockNumber": "0x2d05f67",
          "blockTimestamp": "0x6a302f21",
          "transactionHash": "0xac57462df924f67c8fb9a1f87a68f1cccb2ca89be85547514f81ff322fe7a496",
          "transactionIndex": "0x10",
          "logIndex": "0x1c",
          "removed": false
        }
      ],
      "logsBloom": "0x00000000000000000400000080000000000000000000000020000000000000000000000000000000000000082000000000000000000000000000000000000000000000000000000000000000000000000000000000000000000000000000000010000000010000000000000000000000000000000000000000000000000000000000000000000000000000000000000000000000000000000000000000004000000000000000000000000000000000000000000000002000000000000000000000000000000000000000000000000000100000400000000000000000000000000000000000000000000002000000000000000000000000000000000000000000",
      "transactionHash": "0xac57462df924f67c8fb9a1f87a68f1cccb2ca89be85547514f81ff322fe7a496",
      "transactionIndex": "0x10",
      "blockHash": "0x4d8f5acc4d32693182809ec51383af49ebf04b77dfecc93f732e18f4431f4713",
      "blockNumber": "0x2d05f67",
      "gasUsed": "0x468fa",
      "effectiveGasPrice": "0x4e7b90869",
      "from": "0x04e0353b7218b66d6803725ce7342e6e1225db1b",
      "to": "0x00902216bcaff0d205f4dfb8468f178aadcf325f",
      "contractAddress": null
    },
    {
      "type": "0x2",
      "status": "0x1",
      "cumulativeGasUsed": "0x601649",
      "logs": [
        {
          "address": "0x4096b75c387df6c16841153cd54418378bdcb15d",
          "topics": [
            "0x17a6fd8ad70546156a551284d0884ffae65dd055132d1fe7a347f4b7de730f47",
            "0x29577b44e27d6ca1b978ea320a9379f940250924f12de80bc9d387020b899fe8",
            "0x00000000000000000000000004e0353b7218b66d6803725ce7342e6e1225db1b",
            "0x00000000000000000000000004e0353b7218b66d6803725ce7342e6e1225db1b"
          ],
          "data": "0xb8784670a608c6a5270d86aa400498a17efe327fa41cfb7f35e2a80a0908d96f",
          "blockHash": "0x4d8f5acc4d32693182809ec51383af49ebf04b77dfecc93f732e18f4431f4713",
          "blockNumber": "0x2d05f67",
          "blockTimestamp": "0x6a302f21",
          "transactionHash": "0x43168ec2191954fd90e37fcd80badc177fa1adfc65ccb20712683f19faa79dbe",
          "transactionIndex": "0x11",
          "logIndex": "0x1d",
          "removed": false
        }
      ],
      "logsBloom": "0x00000000000000000000000000000000000000000000000000000000000000000000000000000080000000000000000000000200000000000000000400000000000000200000000000000000000000000000000000000000000000000000000010000000010000000000000000000000000000000000000000000000000000000000000000100000004000000000000000000000000000000000000000000000000000000000000000000000000000000000000000000000000000000000001000000000000000000000040000000000000000000000000000000000000000000000000000000000000002000000000000000000000000000000000008000000",
      "transactionHash": "0x43168ec2191954fd90e37fcd80badc177fa1adfc65ccb20712683f19faa79dbe",
      "transactionIndex": "0x11",
      "blockHash": "0x4d8f5acc4d32693182809ec51383af49ebf04b77dfecc93f732e18f4431f4713",
      "blockNumber": "0x2d05f67",
      "gasUsed": "0x349f7",
      "effectiveGasPrice": "0x4e7b90869",
      "from": "0x04e0353b7218b66d6803725ce7342e6e1225db1b",
      "to": "0x4096b75c387df6c16841153cd54418378bdcb15d",
      "contractAddress": null
    }
  ],
  "libraries": [],
  "pending": [],
  "returns": {},
  "timestamp": 1781542689716,
  "chain": 5042002,
  "commit": "c136dbe"
}