{
  "transactions": [
    {
      "hash": "0xb49b83102a870e5ca20a71fc2584a1b28eed81a3c81c8eb9c4ff4688331a3f08",
      "transactionType": "CALL",
      "contractName": null,
      "contractAddress": "0x4096b75c387df6c16841153cd54418378bdcb15d",
      "function": "grantRole(bytes32,address)",
      "arguments": [
        "0x114e74f6ea3bd819998f78687bfcb11b140da08e9b7d222fa9c1f1ba1f2aa122",
        "0x1804c8AB1F12E6bbf3894d4083f33e07309d1f38"
      ],
      "transaction": {
        "from": "0x04e0353b7218b66d6803725ce7342e6e1225db1b",
        "to": "0x4096b75c387df6c16841153cd54418378bdcb15d",
        "gas": "0xba35",
        "value": "0x0",
        "input": "0x2f2ff15d114e74f6ea3bd819998f78687bfcb11b140da08e9b7d222fa9c1f1ba1f2aa1220000000000000000000000001804c8ab1f12e6bbf3894d4083f33e07309d1f38",
        "nonce": "0x40",
        "chainId": "0x4cef52"
      },
      "additionalContracts": [],
      "isFixedGasLimit": false
    },
    {
      "hash": "0x630ff2b4084085750084777a9f236b136403de83c1cae30bbbabc3451bef4847",
      "transactionType": "CALL",
      "contractName": null,
      "contractAddress": "0x4096b75c387df6c16841153cd54418378bdcb15d",
      "function": "grantRole(bytes32,address)",
      "arguments": [
        "0xce3f34913921da558f105cefb578d87278debbbd073a8d552b5de0d168deee30",
        "0x1804c8AB1F12E6bbf3894d4083f33e07309d1f38"
      ],
      "transaction": {
        "from": "0x04e0353b7218b66d6803725ce7342e6e1225db1b",
        "to": "0x4096b75c387df6c16841153cd54418378bdcb15d",
        "gas": "0xc522",
        "value": "0x0",
        "input": "0x2f2ff15dce3f34913921da558f105cefb578d87278debbbd073a8d552b5de0d168deee300000000000000000000000001804c8ab1f12e6bbf3894d4083f33e07309d1f38",
        "nonce": "0x41",
        "chainId": "0x4cef52"
      },
      "additionalContracts": [],
      "isFixedGasLimit": false
    },
    {
      "hash": "0xd312e9ea6a0a20338c41e2d5385783ee71940460b5391cf63116bd8627a7bc83",
      "transactionType": "CALL",
      "contractName": null,
      "contractAddress": "0x00902216bcaff0d205f4dfb8468f178aadcf325f",
      "function": "registerSchema(string,string,string)",
      "arguments": [
        "arcpass_identity",
        "3.0.0",
        "[{\\\"name\\\":\\\"displayName\\\",\\\"type\\\":\\\"string\\\"},{\\\"name\\\":\\\"avatarCid\\\",\\\"type\\\":\\\"string\\\"},{\\\"name\\\":\\\"createdAt\\\",\\\"type\\\":\\\"uint64\\\"}]"
      ],
      "transaction": {
        "from": "0x04e0353b7218b66d6803725ce7342e6e1225db1b",
        "to": "0x00902216bcaff0d205f4dfb8468f178aadcf325f",
        "gas": "0x6f4ed",
        "value": "0x0",
        "input": "0x53d1945d000000000000000000000000000000000000000000000000000000000000006000000000000000000000000000000000000000000000000000000000000000a000000000000000000000000000000000000000000000000000000000000000e00000000000000000000000000000000000000000000000000000000000000010617263706173735f6964656e74697479000000000000000000000000000000000000000000000000000000000000000000000000000000000000000000000005332e302e3000000000000000000000000000000000000000000000000000000000000000000000000000000000000000000000000000000000000000000000725b7b226e616d65223a22646973706c61794e616d65222c2274797065223a22737472696e67227d2c7b226e616d65223a22617661746172436964222c2274797065223a22737472696e67227d2c7b226e616d65223a22637265617465644174222c2274797065223a2275696e743634227d5d0000000000000000000000000000",
        "nonce": "0x42",
        "chainId": "0x4cef52"
      },
      "additionalContracts": [],
      "isFixedGasLimit": false
    },
    {
      "hash": "0xe2d136fbedc28279c10de67063ae3a1cc6f1e07a5f2d384aa7e1d623b575ceeb",
      "transactionType": "CALL",
      "contractName": null,
      "contractAddress": "0x4096b75c387df6c16841153cd54418378bdcb15d",
      "function": "attest(address,bytes32,bytes32,uint256)",
      "arguments": [
        "0x04e0353B7218b66D6803725ce7342E6e1225DB1b",
        "0xf3461a0ee26fa0e6b69514a3975bf17ce1325e859c26d56bb5a54bf0bb0ec962",
        "0xef6dd427fd5588c9bd598e65ce84b0b3c5f2197c16da79f670e96050ab7163ba",
        "0"
      ],
      "transaction": {
        "from": "0x04e0353b7218b66d6803725ce7342e6e1225db1b",
        "to": "0x4096b75c387df6c16841153cd54418378bdcb15d",
        "gas": "0x4cf70",
        "value": "0x0",
        "input": "0xfafd163200000000000000000000000004e0353b7218b66d6803725ce7342e6e1225db1bf3461a0ee26fa0e6b69514a3975bf17ce1325e859c26d56bb5a54bf0bb0ec962ef6dd427fd5588c9bd598e65ce84b0b3c5f2197c16da79f670e96050ab7163ba0000000000000000000000000000000000000000000000000000000000000000",
        "nonce": "0x43",
        "chainId": "0x4cef52"
      },
      "additionalContracts": [],
      "isFixedGasLimit": false
    },
    {
      "hash": "0x4478f1546b30149e80ebc4e2096f322ca9b5c64e0a4d38014abcededb566e50e",
      "transactionType": "CALL",
      "contractName": null,
      "contractAddress": "0x00902216bcaff0d205f4dfb8468f178aadcf325f",
      "function": "registerSchema(string,string,string)",
      "arguments": [
        "arcpass_kyc_basic",
        "3.0.0",
        "[{\\\"name\\\":\\\"level\\\",\\\"type\\\":\\\"uint8\\\"},{\\\"name\\\":\\\"country\\\",\\\"type\\\":\\\"string\\\"},{\\\"name\\\":\\\"provider\\\",\\\"type\\\":\\\"string\\\"},{\\\"name\\\":\\\"checkedAt\\\",\\\"type\\\":\\\"uint64\\\"}]"
      ],
      "transaction": {
        "from": "0x04e0353b7218b66d6803725ce7342e6e1225db1b",
        "to": "0x00902216bcaff0d205f4dfb8468f178aadcf325f",
        "gas": "0x70c52",
        "value": "0x0",
        "input": "0x53d1945d000000000000000000000000000000000000000000000000000000000000006000000000000000000000000000000000000000000000000000000000000000a000000000000000000000000000000000000000000000000000000000000000e00000000000000000000000000000000000000000000000000000000000000011617263706173735f6b79635f62617369630000000000000000000000000000000000000000000000000000000000000000000000000000000000000000000005332e302e30000000000000000000000000000000000000000000000000000000000000000000000000000000000000000000000000000000000000000000008d5b7b226e616d65223a226c6576656c222c2274797065223a2275696e7438227d2c7b226e616d65223a22636f756e747279222c2274797065223a22737472696e67227d2c7b226e616d65223a2270726f7669646572222c2274797065223a22737472696e67227d2c7b226e616d65223a22636865636b65644174222c2274797065223a2275696e743634227d5d00000000000000000000000000000000000000",
        "nonce": "0x44",
        "chainId": "0x4cef52"
      },
      "additionalContracts": [],
      "isFixedGasLimit": false
    },
    {
      "hash": "0x4f4f94e67442ddb3e711ab7976a626306e2e90ae7cca44b94b5a7386844c6ace",
      "transactionType": "CALL",
      "contractName": null,
      "contractAddress": "0x4096b75c387df6c16841153cd54418378bdcb15d",
      "function": "attest(address,bytes32,bytes32,uint256)",
      "arguments": [
        "0x04e0353B7218b66D6803725ce7342E6e1225DB1b",
        "0xec916c347e4ebe880a5d5d01400c7fcb3a69243a5f47694edc478e4c6b7d88c9",
        "0x63cfbb4521ab59b6276a4815be77ee9eb16a34fcc5f7b77cba3c8b1947d23f8a",
        "0"
      ],
      "transaction": {
        "from": "0x04e0353b7218b66d6803725ce7342e6e1225db1b",
        "to": "0x4096b75c387df6c16841153cd54418378bdcb15d",
        "gas": "0x4cf70",
        "value": "0x0",
        "input": "0xfafd163200000000000000000000000004e0353b7218b66d6803725ce7342e6e1225db1bec916c347e4ebe880a5d5d01400c7fcb3a69243a5f47694edc478e4c6b7d88c963cfbb4521ab59b6276a4815be77ee9eb16a34fcc5f7b77cba3c8b1947d23f8a0000000000000000000000000000000000000000000000000000000000000000",
        "nonce": "0x45",
        "chainId": "0x4cef52"
      },
      "additionalContracts": [],
      "isFixedGasLimit": false
    },
    {
      "hash": "0x9ce933c47fa447c14e57fcc16c83abb72ffbaf11fc51d8c41352ca30b7070c86",
      "transactionType": "CALL",
      "contractName": null,
      "contractAddress": "0x00902216bcaff0d205f4dfb8468f178aadcf325f",
      "function": "registerSchema(string,string,string)",
      "arguments": [
        "arcpass_aml_screening",
        "3.0.0",
        "[{\\\"name\\\":\\\"passed\\\",\\\"type\\\":\\\"bool\\\"},{\\\"name\\\":\\\"provider\\\",\\\"type\\\":\\\"string\\\"},{\\\"name\\\":\\\"checkedAt\\\",\\\"type\\\":\\\"uint64\\\"}]"
      ],
      "transaction": {
        "from": "0x04e0353b7218b66d6803725ce7342e6e1225db1b",
        "to": "0x00902216bcaff0d205f4dfb8468f178aadcf325f",
        "gas": "0x691cb",
        "value": "0x0",
        "input": "0x53d1945d000000000000000000000000000000000000000000000000000000000000006000000000000000000000000000000000000000000000000000000000000000a000000000000000000000000000000000000000000000000000000000000000e00000000000000000000000000000000000000000000000000000000000000015617263706173735f616d6c5f73637265656e696e6700000000000000000000000000000000000000000000000000000000000000000000000000000000000005332e302e30000000000000000000000000000000000000000000000000000000000000000000000000000000000000000000000000000000000000000000006a5b7b226e616d65223a22706173736564222c2274797065223a22626f6f6c227d2c7b226e616d65223a2270726f7669646572222c2274797065223a22737472696e67227d2c7b226e616d65223a22636865636b65644174222c2274797065223a2275696e743634227d5d00000000000000000000000000000000000000000000",
        "nonce": "0x46",
        "chainId": "0x4cef52"
      },
      "additionalContracts": [],
      "isFixedGasLimit": false
    },
    {
      "hash": "0x3a043aec6d44fa82399c746fa28d1c0de14896caee237179bb8cf2c4748d9a1d",
      "transactionType": "CALL",
      "contractName": null,
      "contractAddress": "0x4096b75c387df6c16841153cd54418378bdcb15d",
      "function": "attest(address,bytes32,bytes32,uint256)",
      "arguments": [
        "0x04e0353B7218b66D6803725ce7342E6e1225DB1b",
        "0xb4d55b139dd7c1283674c66a2f8c9549bd7fc2dcf4574e8f536ab84a292b8c59",
        "0x57595f929225b7f5ce7c6fa3d2ebf727b2b79b137e36e94f0be9ddea135f99ac",
        "0"
      ],
      "transaction": {
        "from": "0x04e0353b7218b66d6803725ce7342e6e1225db1b",
        "to": "0x4096b75c387df6c16841153cd54418378bdcb15d",
        "gas": "0x4cf70",
        "value": "0x0",
        "input": "0xfafd163200000000000000000000000004e0353b7218b66d6803725ce7342e6e1225db1bb4d55b139dd7c1283674c66a2f8c9549bd7fc2dcf4574e8f536ab84a292b8c5957595f929225b7f5ce7c6fa3d2ebf727b2b79b137e36e94f0be9ddea135f99ac0000000000000000000000000000000000000000000000000000000000000000",
        "nonce": "0x47",
        "chainId": "0x4cef52"
      },
      "additionalContracts": [],
      "isFixedGasLimit": false
    },
    {
      "hash": "0xe4d7cba135c02344204fb45d9245605c392eac06b1de83e5f794dd31a395be91",
      "transactionType": "CALL",
      "contractName": null,
      "contractAddress": "0x00902216bcaff0d205f4dfb8468f178aadcf325f",
      "function": "registerSchema(string,string,string)",
      "arguments": [
        "arcpass_certification",
        "3.0.0",
        "[{\\\"name\\\":\\\"certName\\\",\\\"type\\\":\\\"string\\\"},{\\\"name\\\":\\\"issuingBody\\\",\\\"type\\\":\\\"string\\\"},{\\\"name\\\":\\\"certId\\\",\\\"type\\\":\\\"string\\\"},{\\\"name\\\":\\\"issuedAt\\\",\\\"type\\\":\\\"uint64\\\"},{\\\"name\\\":\\\"validUntil\\\",\\\"type\\\":\\\"uint64\\\"}]"
      ],
      "transaction": {
        "from": "0x04e0353b7218b66d6803725ce7342e6e1225db1b",
        "to": "0x00902216bcaff0d205f4dfb8468f178aadcf325f",
        "gas": "0x7f94b",
        "value": "0x0",
        "input": "0x53d1945d000000000000000000000000000000000000000000000000000000000000006000000000000000000000000000000000000000000000000000000000000000a000000000000000000000000000000000000000000000000000000000000000e00000000000000000000000000000000000000000000000000000000000000015617263706173735f63657274696669636174696f6e00000000000000000000000000000000000000000000000000000000000000000000000000000000000005332e302e3000000000000000000000000000000000000000000000000000000000000000000000000000000000000000000000000000000000000000000000b85b7b226e616d65223a22636572744e616d65222c2274797065223a22737472696e67227d2c7b226e616d65223a2269737375696e67426f6479222c2274797065223a22737472696e67227d2c7b226e616d65223a22636572744964222c2274797065223a22737472696e67227d2c7b226e616d65223a226973737565644174222c2274797065223a2275696e743634227d2c7b226e616d65223a2276616c6964556e74696c222c2274797065223a2275696e743634227d5d0000000000000000",
        "nonce": "0x48",
        "chainId": "0x4cef52"
      },
      "additionalContracts": [],
      "isFixedGasLimit": false
    },
    {
      "hash": "0x1041b27037be4c358456b2a4b8bb6526372449f8904d4ff047561a8f2941bbc0",
      "transactionType": "CALL",
      "contractName": null,
      "contractAddress": "0x4096b75c387df6c16841153cd54418378bdcb15d",
      "function": "attest(address,bytes32,bytes32,uint256)",
      "arguments": [
        "0x04e0353B7218b66D6803725ce7342E6e1225DB1b",
        "0xc7e6eaed7ce3c23e51da4a70109eb8ab69131a7b213023b179ca47c64a0012f0",
        "0x26174a480832792df915bd45ae735f5c1109d142ebd14230496f9f2660370dbd",
        "0"
      ],
      "transaction": {
        "from": "0x04e0353b7218b66d6803725ce7342e6e1225db1b",
        "to": "0x4096b75c387df6c16841153cd54418378bdcb15d",
        "gas": "0x48af6",
        "value": "0x0",
        "input": "0xfafd163200000000000000000000000004e0353b7218b66d6803725ce7342e6e1225db1bc7e6eaed7ce3c23e51da4a70109eb8ab69131a7b213023b179ca47c64a0012f026174a480832792df915bd45ae735f5c1109d142ebd14230496f9f2660370dbd0000000000000000000000000000000000000000000000000000000000000000",
        "nonce": "0x49",
        "chainId": "0x4cef52"
      },
      "additionalContracts": [],
      "isFixedGasLimit": false
    },
    {
      "hash": "0xf56af9276f33253253cc2771ad8b3e469dce5d1a8f8e2ea05faf0568fe198577",
      "transactionType": "CALL",
      "contractName": null,
      "contractAddress": "0x00902216bcaff0d205f4dfb8468f178aadcf325f",
      "function": "registerSchema(string,string,string)",
      "arguments": [
        "arcpass_skill",
        "3.0.0",
        "[{\\\"name\\\":\\\"skill\\\",\\\"type\\\":\\\"string\\\"},{\\\"name\\\":\\\"level\\\",\\\"type\\\":\\\"uint8\\\"},{\\\"name\\\":\\\"endorsedBy\\\",\\\"type\\\":\\\"address\\\"}]"
      ],
      "transaction": {
        "from": "0x04e0353b7218b66d6803725ce7342e6e1225db1b",
        "to": "0x00902216bcaff0d205f4dfb8468f178aadcf325f",
        "gas": "0x6f40e",
        "value": "0x0",
        "input": "0x53d1945d000000000000000000000000000000000000000000000000000000000000006000000000000000000000000000000000000000000000000000000000000000a000000000000000000000000000000000000000000000000000000000000000e0000000000000000000000000000000000000000000000000000000000000000d617263706173735f736b696c6c000000000000000000000000000000000000000000000000000000000000000000000000000000000000000000000000000005332e302e3000000000000000000000000000000000000000000000000000000000000000000000000000000000000000000000000000000000000000000000695b7b226e616d65223a22736b696c6c222c2274797065223a22737472696e67227d2c7b226e616d65223a226c6576656c222c2274797065223a2275696e7438227d2c7b226e616d65223a22656e646f727365644279222c2274797065223a2261646472657373227d5d0000000000000000000000000000000000000000000000",
        "nonce": "0x4a",
        "chainId": "0x4cef52"
      },
      "additionalContracts": [],
      "isFixedGasLimit": false
    },
    {
      "hash": "0x8978267d2824f33528a125330e51ad9f37b5cf345117feaefa42b4dfaf28c391",
      "transactionType": "CALL",
      "contractName": null,
      "contractAddress": "0x4096b75c387df6c16841153cd54418378bdcb15d",
      "function": "attest(address,bytes32,bytes32,uint256)",
      "arguments": [
        "0x04e0353B7218b66D6803725ce7342E6e1225DB1b",
        "0xc36cb1c1fc985e3799f82795c5efbf675862065f2e6588cb17a26fe4528b188a",
        "0x032eeeaa2fcde1298d30ee6847c5ef9ab03df80577bb52d641c0c455cae78dc3",
        "0"
      ],
      "transaction": {
        "from": "0x04e0353b7218b66d6803725ce7342e6e1225db1b",
        "to": "0x4096b75c387df6c16841153cd54418378bdcb15d",
        "gas": "0x4cf70",
        "value": "0x0",
        "input": "0xfafd163200000000000000000000000004e0353b7218b66d6803725ce7342e6e1225db1bc36cb1c1fc985e3799f82795c5efbf675862065f2e6588cb17a26fe4528b188a032eeeaa2fcde1298d30ee6847c5ef9ab03df80577bb52d641c0c455cae78dc30000000000000000000000000000000000000000000000000000000000000000",
        "nonce": "0x4b",
        "chainId": "0x4cef52"
      },
      "additionalContracts": [],
      "isFixedGasLimit": false
    },
    {
      "hash": "0x8df708d34ffa5039c914b031863c34e1b7660b8c5e34f7a4332c5307d5895eb6",
      "transactionType": "CALL",
      "contractName": null,
      "contractAddress": "0x00902216bcaff0d205f4dfb8468f178aadcf325f",
      "function": "registerSchema(string,string,string)",
      "arguments": [
        "arcpass_dao_membership",
        "3.0.0",
        "[{\\\"name\\\":\\\"daoName\\\",\\\"type\\\":\\\"string\\\"},{\\\"name\\\":\\\"daoAddress\\\",\\\"type\\\":\\\"address\\\"},{\\\"name\\\":\\\"role\\\",\\\"type\\\":\\\"string\\\"},{\\\"name\\\":\\\"joinedAt\\\",\\\"type\\\":\\\"uint64\\\"},{\\\"name\\\":\\\"votingWeight\\\",\\\"type\\\":\\\"uint256\\\"}]"
      ],
      "transaction": {
        "from": "0x04e0353b7218b66d6803725ce7342e6e1225db1b",
        "to": "0x00902216bcaff0d205f4dfb8468f178aadcf325f",
        "gas": "0x787f3",
        "value": "0x0",
        "input": "0x53d1945d000000000000000000000000000000000000000000000000000000000000006000000000000000000000000000000000000000000000000000000000000000a000000000000000000000000000000000000000000000000000000000000000e00000000000000000000000000000000000000000000000000000000000000016617263706173735f64616f5f6d656d62657273686970000000000000000000000000000000000000000000000000000000000000000000000000000000000005332e302e3000000000000000000000000000000000000000000000000000000000000000000000000000000000000000000000000000000000000000000000b85b7b226e616d65223a2264616f4e616d65222c2274797065223a22737472696e67227d2c7b226e616d65223a2264616f41646472657373222c2274797065223a2261646472657373227d2c7b226e616d65223a22726f6c65222c2274797065223a22737472696e67227d2c7b226e616d65223a226a6f696e65644174222c2274797065223a2275696e743634227d2c7b226e616d65223a22766f74696e67576569676874222c2274797065223a2275696e74323536227d5d0000000000000000",
        "nonce": "0x4c",
        "chainId": "0x4cef52"
      },
      "additionalContracts": [],
      "isFixedGasLimit": false
    },
    {
      "hash": "0x12039a67d938869edea54b7c9de62dc18dc1ecc0e9d774931f257480d41f118d",
      "transactionType": "CALL",
      "contractName": null,
      "contractAddress": "0x4096b75c387df6c16841153cd54418378bdcb15d",
      "function": "attest(address,bytes32,bytes32,uint256)",
      "arguments": [
        "0x04e0353B7218b66D6803725ce7342E6e1225DB1b",
        "0xcdc6f3a2b9b5e639663334450ae80441af46b60803e2305113ce011a26baf2c1",
        "0x85382d6f775641fa953d33afbedbdce7fccdefe8787e551fe61e3a7d503337f2",
        "0"
      ],
      "transaction": {
        "from": "0x04e0353b7218b66d6803725ce7342e6e1225db1b",
        "to": "0x4096b75c387df6c16841153cd54418378bdcb15d",
        "gas": "0x4cf70",
        "value": "0x0",
        "input": "0xfafd163200000000000000000000000004e0353b7218b66d6803725ce7342e6e1225db1bcdc6f3a2b9b5e639663334450ae80441af46b60803e2305113ce011a26baf2c185382d6f775641fa953d33afbedbdce7fccdefe8787e551fe61e3a7d503337f20000000000000000000000000000000000000000000000000000000000000000",
        "nonce": "0x4d",
        "chainId": "0x4cef52"
      },
      "additionalContracts": [],
      "isFixedGasLimit": false
    },
    {
      "hash": "0xb60238918f5148b52bd1652cb04bb7fbc7c5818b63bc4e9f8dd72b10e6d97b8b",
      "transactionType": "CALL",
      "contractName": null,
      "contractAddress": "0x00902216bcaff0d205f4dfb8468f178aadcf325f",
      "function": "registerSchema(string,string,string)",
      "arguments": [
        "arcpass_reputation_score",
        "3.0.0",
        "[{\\\"name\\\":\\\"score\\\",\\\"type\\\":\\\"uint256\\\"},{\\\"name\\\":\\\"domain\\\",\\\"type\\\":\\\"string\\\"},{\\\"name\\\":\\\"dataPoints\\\",\\\"type\\\":\\\"uint32\\\"},{\\\"name\\\":\\\"updatedAt\\\",\\\"type\\\":\\\"uint64\\\"}]"
      ],
      "transaction": {
        "from": "0x04e0353b7218b66d6803725ce7342e6e1225db1b",
        "to": "0x00902216bcaff0d205f4dfb8468f178aadcf325f",
        "gas": "0x70cf9",
        "value": "0x0",
        "input": "0x53d1945d000000000000000000000000000000000000000000000000000000000000006000000000000000000000000000000000000000000000000000000000000000a000000000000000000000000000000000000000000000000000000000000000e00000000000000000000000000000000000000000000000000000000000000018617263706173735f72657075746174696f6e5f73636f726500000000000000000000000000000000000000000000000000000000000000000000000000000005332e302e3000000000000000000000000000000000000000000000000000000000000000000000000000000000000000000000000000000000000000000000905b7b226e616d65223a2273636f7265222c2274797065223a2275696e74323536227d2c7b226e616d65223a22646f6d61696e222c2274797065223a22737472696e67227d2c7b226e616d65223a2264617461506f696e7473222c2274797065223a2275696e743332227d2c7b226e616d65223a22757064617465644174222c2274797065223a2275696e743634227d5d00000000000000000000000000000000",
        "nonce": "0x4e",
        "chainId": "0x4cef52"
      },
      "additionalContracts": [],
      "isFixedGasLimit": false
    },
    {
      "hash": "0xfa54a2cc8a8159641c19734215ec88ee38f6b7fb04711b53be59ead36653f285",
      "transactionType": "CALL",
      "contractName": null,
      "contractAddress": "0x4096b75c387df6c16841153cd54418378bdcb15d",
      "function": "attest(address,bytes32,bytes32,uint256)",
      "arguments": [
        "0x04e0353B7218b66D6803725ce7342E6e1225DB1b",
        "0xa8603aa5630dc8ab212f9f4aa17c04d064d0c500d26596cce4c8c6525d3463ee",
        "0x6f7b7ff7f94342c49a842591dcbb1630cf06abdcd72bbed085f63f7d6d68952c",
        "0"
      ],
      "transaction": {
        "from": "0x04e0353b7218b66d6803725ce7342e6e1225db1b",
        "to": "0x4096b75c387df6c16841153cd54418378bdcb15d",
        "gas": "0x48af6",
        "value": "0x0",
        "input": "0xfafd163200000000000000000000000004e0353b7218b66d6803725ce7342e6e1225db1ba8603aa5630dc8ab212f9f4aa17c04d064d0c500d26596cce4c8c6525d3463ee6f7b7ff7f94342c49a842591dcbb1630cf06abdcd72bbed085f63f7d6d68952c0000000000000000000000000000000000000000000000000000000000000000",
        "nonce": "0x4f",
        "chainId": "0x4cef52"
      },
      "additionalContracts": [],
      "isFixedGasLimit": false
    },
    {
      "hash": "0x80f352bcea864e7e011b4e4c47de739d0bb6e80cbebe97e8f60e271f8c6f0bfe",
      "transactionType": "CALL",
      "contractName": null,
      "contractAddress": "0x00902216bcaff0d205f4dfb8468f178aadcf325f",
      "function": "registerSchema(string,string,string)",
      "arguments": [
        "arcpass_employment",
        "3.0.0",
        "[{\\\"name\\\":\\\"employer\\\",\\\"type\\\":\\\"string\\\"},{\\\"name\\\":\\\"role\\\",\\\"type\\\":\\\"string\\\"},{\\\"name\\\":\\\"startDate\\\",\\\"type\\\":\\\"uint64\\\"},{\\\"name\\\":\\\"endDate\\\",\\\"type\\\":\\\"uint64\\\"},{\\\"name\\\":\\\"employerDid\\\",\\\"type\\\":\\\"string\\\"}]"
      ],
      "transaction": {
        "from": "0x04e0353b7218b66d6803725ce7342e6e1225db1b",
        "to": "0x00902216bcaff0d205f4dfb8468f178aadcf325f",
        "gas": "0x7876e",
        "value": "0x0",
        "input": "0x53d1945d000000000000000000000000000000000000000000000000000000000000006000000000000000000000000000000000000000000000000000000000000000a000000000000000000000000000000000000000000000000000000000000000e00000000000000000000000000000000000000000000000000000000000000012617263706173735f656d706c6f796d656e7400000000000000000000000000000000000000000000000000000000000000000000000000000000000000000005332e302e3000000000000000000000000000000000000000000000000000000000000000000000000000000000000000000000000000000000000000000000b45b7b226e616d65223a22656d706c6f796572222c2274797065223a22737472696e67227d2c7b226e616d65223a22726f6c65222c2274797065223a22737472696e67227d2c7b226e616d65223a22737461727444617465222c2274797065223a2275696e743634227d2c7b226e616d65223a22656e6444617465222c2274797065223a2275696e743634227d2c7b226e616d65223a22656d706c6f796572446964222c2274797065223a22737472696e67227d5d000000000000000000000000",
        "nonce": "0x50",
        "chainId": "0x4cef52"
      },
      "additionalContracts": [],
      "isFixedGasLimit": false
    },
    {
      "hash": "0x0b2fe321e159de80324d2978374942c16606144ee9ebed8ff7a98ecc01875dff",
      "transactionType": "CALL",
      "contractName": null,
      "contractAddress": "0x4096b75c387df6c16841153cd54418378bdcb15d",
      "function": "attest(address,bytes32,bytes32,uint256)",
      "arguments": [
        "0x04e0353B7218b66D6803725ce7342E6e1225DB1b",
        "0xd8a3c53651d90b9a79d2c51a36ac0bd0fe71bc0a7621361f3ac8019c689ff7ea",
        "0x2790a183fc74d35ecc09b72ebf4f7848cadc277e35fef09523c90e1d0aae125f",
        "0"
      ],
      "transaction": {
        "from": "0x04e0353b7218b66d6803725ce7342e6e1225db1b",
        "to": "0x4096b75c387df6c16841153cd54418378bdcb15d",
        "gas": "0x4cf70",
        "value": "0x0",
        "input": "0xfafd163200000000000000000000000004e0353b7218b66d6803725ce7342e6e1225db1bd8a3c53651d90b9a79d2c51a36ac0bd0fe71bc0a7621361f3ac8019c689ff7ea2790a183fc74d35ecc09b72ebf4f7848cadc277e35fef09523c90e1d0aae125f0000000000000000000000000000000000000000000000000000000000000000",
        "nonce": "0x51",
        "chainId": "0x4cef52"
      },
      "additionalContracts": [],
      "isFixedGasLimit": false
    },
    {
      "hash": "0xb3236c2854c88a8a2823f1b91d6a5c118e75292d158367c165e3c39e3016d575",
      "transactionType": "CALL",
      "contractName": null,
      "contractAddress": "0x00902216bcaff0d205f4dfb8468f178aadcf325f",
      "function": "registerSchema(string,string,string)",
      "arguments": [
        "arcpass_degree",
        "3.0.0",
        "[{\\\"name\\\":\\\"institution\\\",\\\"type\\\":\\\"string\\\"},{\\\"name\\\":\\\"degree\\\",\\\"type\\\":\\\"string\\\"},{\\\"name\\\":\\\"fieldOfStudy\\\",\\\"type\\\":\\\"string\\\"},{\\\"name\\\":\\\"graduationYear\\\",\\\"type\\\":\\\"uint16\\\"},{\\\"name\\\":\\\"institutionDid\\\",\\\"type\\\":\\\"string\\\"}]"
      ],
      "transaction": {
        "from": "0x04e0353b7218b66d6803725ce7342e6e1225db1b",
        "to": "0x00902216bcaff0d205f4dfb8468f178aadcf325f",
        "gas": "0x800cf",
        "value": "0x0",
        "input": "0x53d1945d000000000000000000000000000000000000000000000000000000000000006000000000000000000000000000000000000000000000000000000000000000a000000000000000000000000000000000000000000000000000000000000000e0000000000000000000000000000000000000000000000000000000000000000e617263706173735f6465677265650000000000000000000000000000000000000000000000000000000000000000000000000000000000000000000000000005332e302e3000000000000000000000000000000000000000000000000000000000000000000000000000000000000000000000000000000000000000000000c65b7b226e616d65223a22696e737469747574696f6e222c2274797065223a22737472696e67227d2c7b226e616d65223a22646567726565222c2274797065223a22737472696e67227d2c7b226e616d65223a226669656c644f665374756479222c2274797065223a22737472696e67227d2c7b226e616d65223a2267726164756174696f6e59656172222c2274797065223a2275696e743136227d2c7b226e616d65223a22696e737469747574696f6e446964222c2274797065223a22737472696e67227d5d0000000000000000000000000000000000000000000000000000",
        "nonce": "0x52",
        "chainId": "0x4cef52"
      },
      "additionalContracts": [],
      "isFixedGasLimit": false
    },
    {
      "hash": "0x80ce8c4f61383c2e563fe828eb81690cfcd2f5d97f30186c86c76f9dddcc2e1b",
      "transactionType": "CALL",
      "contractName": null,
      "contractAddress": "0x4096b75c387df6c16841153cd54418378bdcb15d",
      "function": "attest(address,bytes32,bytes32,uint256)",
      "arguments": [
        "0x04e0353B7218b66D6803725ce7342E6e1225DB1b",
        "0x720a522f02c6fe11f22e7f4c3cc863698ed86b57d0cd13e6e246db2483301a0e",
        "0x794e5ebe65ff8a8f56e762f23674cf6a304be6ddca8d87e04550a7dd9ef201f7",
        "0"
      ],
      "transaction": {
        "from": "0x04e0353b7218b66d6803725ce7342e6e1225db1b",
        "to": "0x4096b75c387df6c16841153cd54418378bdcb15d",
        "gas": "0x4cf70",
        "value": "0x0",
        "input": "0xfafd163200000000000000000000000004e0353b7218b66d6803725ce7342e6e1225db1b720a522f02c6fe11f22e7f4c3cc863698ed86b57d0cd13e6e246db2483301a0e794e5ebe65ff8a8f56e762f23674cf6a304be6ddca8d87e04550a7dd9ef201f70000000000000000000000000000000000000000000000000000000000000000",
        "nonce": "0x53",
        "chainId": "0x4cef52"
      },
      "additionalContracts": [],
      "isFixedGasLimit": false
    },
    {
      "hash": "0xebcec5ff25d5bfbc1c55326d0f27db217d693319e57e94d6bf1460760555890e",
      "transactionType": "CALL",
      "contractName": null,
      "contractAddress": "0x00902216bcaff0d205f4dfb8468f178aadcf325f",
      "function": "registerSchema(string,string,string)",
      "arguments": [
        "arcpass_social_account",
        "3.0.0",
        "[{\\\"name\\\":\\\"platform\\\",\\\"type\\\":\\\"string\\\"},{\\\"name\\\":\\\"handle\\\",\\\"type\\\":\\\"string\\\"},{\\\"name\\\":\\\"profileId\\\",\\\"type\\\":\\\"string\\\"},{\\\"name\\\":\\\"verifiedAt\\\",\\\"type\\\":\\\"uint64\\\"}]"
      ],
      "transaction": {
        "from": "0x04e0353b7218b66d6803725ce7342e6e1225db1b",
        "to": "0x00902216bcaff0d205f4dfb8468f178aadcf325f",
        "gas": "0x70cf9",
        "value": "0x0",
        "input": "0x53d1945d000000000000000000000000000000000000000000000000000000000000006000000000000000000000000000000000000000000000000000000000000000a000000000000000000000000000000000000000000000000000000000000000e00000000000000000000000000000000000000000000000000000000000000016617263706173735f736f6369616c5f6163636f756e74000000000000000000000000000000000000000000000000000000000000000000000000000000000005332e302e3000000000000000000000000000000000000000000000000000000000000000000000000000000000000000000000000000000000000000000000925b7b226e616d65223a22706c6174666f726d222c2274797065223a22737472696e67227d2c7b226e616d65223a2268616e646c65222c2274797065223a22737472696e67227d2c7b226e616d65223a2270726f66696c654964222c2274797065223a22737472696e67227d2c7b226e616d65223a2276657269666965644174222c2274797065223a2275696e743634227d5d0000000000000000000000000000",
        "nonce": "0x54",
        "chainId": "0x4cef52"
      },
      "additionalContracts": [],
      "isFixedGasLimit": false
    },
    {
      "hash": "0x21296826394700edf39cd1380226bd4895c05227b401f19fd8d829a1b24bb1a4",
      "transactionType": "CALL",
      "contractName": null,
      "contractAddress": "0x4096b75c387df6c16841153cd54418378bdcb15d",
      "function": "attest(address,bytes32,bytes32,uint256)",
      "arguments": [
        "0x04e0353B7218b66D6803725ce7342E6e1225DB1b",
        "0x73edd9bb4981820e9a1f7a320ea2c9833325a6692e9f56f92c0bfaa0bd01f618",
        "0x3c3d75087537d0378517c425ddb11f3d5bfee04165b95e4429991eaeb8c2d980",
        "0"
      ],
      "transaction": {
        "from": "0x04e0353b7218b66d6803725ce7342e6e1225db1b",
        "to": "0x4096b75c387df6c16841153cd54418378bdcb15d",
        "gas": "0x4cf70",
        "value": "0x0",
        "input": "0xfafd163200000000000000000000000004e0353b7218b66d6803725ce7342e6e1225db1b73edd9bb4981820e9a1f7a320ea2c9833325a6692e9f56f92c0bfaa0bd01f6183c3d75087537d0378517c425ddb11f3d5bfee04165b95e4429991eaeb8c2d9800000000000000000000000000000000000000000000000000000000000000000",
        "nonce": "0x55",
        "chainId": "0x4cef52"
      },
      "additionalContracts": [],
      "isFixedGasLimit": false
    },
    {
      "hash": "0xbf653d939c83f3cfcc38c4dcefa0bf22bee05398a135cc65eae49863ec64b9a5",
      "transactionType": "CALL",
      "contractName": null,
      "contractAddress": "0x00902216bcaff0d205f4dfb8468f178aadcf325f",
      "function": "registerSchema(string,string,string)",
      "arguments": [
        "arcpass_humanity",
        "3.0.0",
        "[{\\\"name\\\":\\\"verified\\\",\\\"type\\\":\\\"bool\\\"},{\\\"name\\\":\\\"mechanism\\\",\\\"type\\\":\\\"string\\\"},{\\\"name\\\":\\\"nullifier\\\",\\\"type\\\":\\\"bytes32\\\"},{\\\"name\\\":\\\"checkedAt\\\",\\\"type\\\":\\\"uint64\\\"}]"
      ],
      "transaction": {
        "from": "0x04e0353b7218b66d6803725ce7342e6e1225db1b",
        "to": "0x00902216bcaff0d205f4dfb8468f178aadcf325f",
        "gas": "0x776ce",
        "value": "0x0",
        "input": "0x53d1945d000000000000000000000000000000000000000000000000000000000000006000000000000000000000000000000000000000000000000000000000000000a000000000000000000000000000000000000000000000000000000000000000e00000000000000000000000000000000000000000000000000000000000000010617263706173735f68756d616e697479000000000000000000000000000000000000000000000000000000000000000000000000000000000000000000000005332e302e3000000000000000000000000000000000000000000000000000000000000000000000000000000000000000000000000000000000000000000000935b7b226e616d65223a227665726966696564222c2274797065223a22626f6f6c227d2c7b226e616d65223a226d656368616e69736d222c2274797065223a22737472696e67227d2c7b226e616d65223a226e756c6c6966696572222c2274797065223a2262797465733332227d2c7b226e616d65223a22636865636b65644174222c2274797065223a2275696e743634227d5d00000000000000000000000000",
        "nonce": "0x56",
        "chainId": "0x4cef52"
      },
      "additionalContracts": [],
      "isFixedGasLimit": false
    },
    {
      "hash": "0x2a8945ff86781b7dc4c6a163c448e125dfb414df15aa715aeddb42b57403a215",
      "transactionType": "CALL",
      "contractName": null,
      "contractAddress": "0x4096b75c387df6c16841153cd54418378bdcb15d",
      "function": "attest(address,bytes32,bytes32,uint256)",
      "arguments": [
        "0x04e0353B7218b66D6803725ce7342E6e1225DB1b",
        "0x7d2d568c0898627d7c5a7fd6743cd5318edac483b4c47ef0cca4ed1d8e3d68ff",
        "0xda1a7295df5c303446ff355720b2bb47f540a801366536f60b0da5b1f09d9a10",
        "0"
      ],
      "transaction": {
        "from": "0x04e0353b7218b66d6803725ce7342e6e1225db1b",
        "to": "0x4096b75c387df6c16841153cd54418378bdcb15d",
        "gas": "0x4cf70",
        "value": "0x0",
        "input": "0xfafd163200000000000000000000000004e0353b7218b66d6803725ce7342e6e1225db1b7d2d568c0898627d7c5a7fd6743cd5318edac483b4c47ef0cca4ed1d8e3d68ffda1a7295df5c303446ff355720b2bb47f540a801366536f60b0da5b1f09d9a100000000000000000000000000000000000000000000000000000000000000000",
        "nonce": "0x57",
        "chainId": "0x4cef52"
      },
      "additionalContracts": [],
      "isFixedGasLimit": false
    },
    {
      "hash": "0x84003e03dddbb48688a30d11578d4e95c10d856406bacc62b66921be8edd297c",
      "transactionType": "CALL",
      "contractName": null,
      "contractAddress": "0x00902216bcaff0d205f4dfb8468f178aadcf325f",
      "function": "registerSchema(string,string,string)",
      "arguments": [
        "arcpass_custom_example",
        "3.0.0",
        "[{\\\"name\\\":\\\"fieldName\\\",\\\"type\\\":\\\"string\\\"},{\\\"name\\\":\\\"fieldValue\\\",\\\"type\\\":\\\"string\\\"}]"
      ],
      "transaction": {
        "from": "0x04e0353b7218b66d6803725ce7342e6e1225db1b",
        "to": "0x00902216bcaff0d205f4dfb8468f178aadcf325f",
        "gas": "0x67320",
        "value": "0x0",
        "input": "0x53d1945d000000000000000000000000000000000000000000000000000000000000006000000000000000000000000000000000000000000000000000000000000000a000000000000000000000000000000000000000000000000000000000000000e00000000000000000000000000000000000000000000000000000000000000016617263706173735f637573746f6d5f6578616d706c65000000000000000000000000000000000000000000000000000000000000000000000000000000000005332e302e30000000000000000000000000000000000000000000000000000000000000000000000000000000000000000000000000000000000000000000004c5b7b226e616d65223a226669656c644e616d65222c2274797065223a22737472696e67227d2c7b226e616d65223a226669656c6456616c7565222c2274797065223a22737472696e67227d5d0000000000000000000000000000000000000000",
        "nonce": "0x58",
        "chainId": "0x4cef52"
      },
      "additionalContracts": [],
      "isFixedGasLimit": false
    },
    {
      "hash": "0x563f3455ef3dd46570065cf11cd8c1454114af69547ebc74c5ccc6ffa9e83623",
      "transactionType": "CALL",
      "contractName": null,
      "contractAddress": "0x4096b75c387df6c16841153cd54418378bdcb15d",
      "function": "attest(address,bytes32,bytes32,uint256)",
      "arguments": [
        "0x04e0353B7218b66D6803725ce7342E6e1225DB1b",
        "0x5b07b34fab8831d81c125641fae957baddcecc118cc93ae8fd34236b1bf2b120",
        "0x337d25f2c51c7e5bb5dee038a58d637f88003158cbe640d0c866ebd6f3bf82fe",
        "0"
      ],
      "transaction": {
        "from": "0x04e0353b7218b66d6803725ce7342e6e1225db1b",
        "to": "0x4096b75c387df6c16841153cd54418378bdcb15d",
        "gas": "0x48af6",
        "value": "0x0",
        "input": "0xfafd163200000000000000000000000004e0353b7218b66d6803725ce7342e6e1225db1b5b07b34fab8831d81c125641fae957baddcecc118cc93ae8fd34236b1bf2b120337d25f2c51c7e5bb5dee038a58d637f88003158cbe640d0c866ebd6f3bf82fe0000000000000000000000000000000000000000000000000000000000000000",
        "nonce": "0x59",
        "chainId": "0x4cef52"
      },
      "additionalContracts": [],
      "isFixedGasLimit": false
    }
  ],
  "receipts": [
    {
      "type": "0x2",
      "status": "0x1",
      "cumulativeGasUsed": "0x27524c",
      "logs": [],
      "logsBloom": "0x00000000000000000000000000000000000000000000000000000000000000000000000000000000000000000000000000000000000000000000000000000000000000000000000000000000000000000000000000000000000000000000000000000000000000000000000000000000000000000000000000000000000000000000000000000000000000000000000000000000000000000000000000000000000000000000000000000000000000000000000000000000000000000000000000000000000000000000000000000000000000000000000000000000000000000000000000000000000000000000000000000000000000000000000000000000",
      "transactionHash": "0xb49b83102a870e5ca20a71fc2584a1b28eed81a3c81c8eb9c4ff4688331a3f08",
      "transactionIndex": "0xc",
      "blockHash": "0xafdd7b65d7900410e21611bc8b282e62a7b0138d338d340e2e40cc9aff857dee",
      "blockNumber": "0x2d0dc54",
      "gasUsed": "0x86d0",
      "effectiveGasPrice": "0x4e7b90869",
      "from": "0x04e0353b7218b66d6803725ce7342e6e1225db1b",
      "to": "0x4096b75c387df6c16841153cd54418378bdcb15d",
      "contractAddress": null
    },
    {
      "type": "0x2",
      "status": "0x1",
      "cumulativeGasUsed": "0x27d917",
      "logs": [],
      "logsBloom": "0x00000000000000000000000000000000000000000000000000000000000000000000000000000000000000000000000000000000000000000000000000000000000000000000000000000000000000000000000000000000000000000000000000000000000000000000000000000000000000000000000000000000000000000000000000000000000000000000000000000000000000000000000000000000000000000000000000000000000000000000000000000000000000000000000000000000000000000000000000000000000000000000000000000000000000000000000000000000000000000000000000000000000000000000000000000000",
      "transactionHash": "0x630ff2b4084085750084777a9f236b136403de83c1cae30bbbabc3451bef4847",
      "transactionIndex": "0xd",
      "blockHash": "0xafdd7b65d7900410e21611bc8b282e62a7b0138d338d340e2e40cc9aff857dee",
      "blockNumber": "0x2d0dc54",
      "gasUsed": "0x86cb",
      "effectiveGasPrice": "0x4e7b90869",
      "from": "0x04e0353b7218b66d6803725ce7342e6e1225db1b",
      "to": "0x4096b75c387df6c16841153cd54418378bdcb15d",
      "contractAddress": null
    },
    {
      "type": "0x2",
      "status": "0x1",
      "cumulativeGasUsed": "0x2c9ad2",
      "logs": [
        {
          "address": "0x00902216bcaff0d205f4dfb8468f178aadcf325f",
          "topics": [
            "0xcc8ffa41e049f188a802e4d9c56cc32f0635bfae836764488c6747dc6e711d65",
            "0xf3461a0ee26fa0e6b69514a3975bf17ce1325e859c26d56bb5a54bf0bb0ec962",
            "0x00000000000000000000000004e0353b7218b66d6803725ce7342e6e1225db1b"
          ],
          "data": "0x000000000000000000000000000000000000000000000000000000000000004000000000000000000000000000000000000000000000000000000000000000800000000000000000000000000000000000000000000000000000000000000010617263706173735f6964656e74697479000000000000000000000000000000000000000000000000000000000000000000000000000000000000000000000005332e302e30000000000000000000000000000000000000000000000000000000",
          "blockHash": "0xafdd7b65d7900410e21611bc8b282e62a7b0138d338d340e2e40cc9aff857dee",
          "blockNumber": "0x2d0dc54",
          "blockTimestamp": "0x6a307684",
          "transactionHash": "0xd312e9ea6a0a20338c41e2d5385783ee71940460b5391cf63116bd8627a7bc83",
          "transactionIndex": "0xe",
          "logIndex": "0x27",
          "removed": false
        }
      ],
      "logsBloom": "0x00000000000000000000000080000000000000000000000020000000000000000000000000000000000000082000000000000000000000000000000000000000000000000000000000000000000000000000000000000000000000000000020010000000010000000000000000000000000000000000000000000000000000000000000000000000000000000000000000000000000000000000000200000000000000000000000000000000000000000000000010000000000000000000000000000000000000000000000000000000100000400000000000000000000000000000000000000000000002000000000000000000000000000000000000000000",
      "transactionHash": "0xd312e9ea6a0a20338c41e2d5385783ee71940460b5391cf63116bd8627a7bc83",
      "transactionIndex": "0xe",
      "blockHash": "0xafdd7b65d7900410e21611bc8b282e62a7b0138d338d340e2e40cc9aff857dee",
      "blockNumber": "0x2d0dc54",
      "gasUsed": "0x4c1bb",
      "effectiveGasPrice": "0x4e7b90869",
      "from": "0x04e0353b7218b66d6803725ce7342e6e1225db1b",
      "to": "0x00902216bcaff0d205f4dfb8468f178aadcf325f",
      "contractAddress": null
    },
    {
      "type": "0x2",
      "status": "0x1",
      "cumulativeGasUsed": "0xa3490",
      "logs": [
        {
          "address": "0x4096b75c387df6c16841153cd54418378bdcb15d",
          "topics": [
            "0x17a6fd8ad70546156a551284d0884ffae65dd055132d1fe7a347f4b7de730f47",
            "0xb748d66e4b27698d9d5eb4020eaaf5dc7cbaf1f3cd7244c5726137a979ba1d76",
            "0x00000000000000000000000004e0353b7218b66d6803725ce7342e6e1225db1b",
            "0x00000000000000000000000004e0353b7218b66d6803725ce7342e6e1225db1b"
          ],
          "data": "0xf3461a0ee26fa0e6b69514a3975bf17ce1325e859c26d56bb5a54bf0bb0ec962",
          "blockHash": "0x75cfba3db6709d7a6f1c6a308b0bc08693cfef2d67ce6742dad742744bb867dc",
          "blockNumber": "0x2d0dc55",
          "blockTimestamp": "0x6a307685",
          "transactionHash": "0x4478f1546b30149e80ebc4e2096f322ca9b5c64e0a4d38014abcededb566e50e",
          "transactionIndex": "0x5",
          "logIndex": "0x9",
          "removed": false
        }
      ],
      "logsBloom": "0x00000000000000000000000000000000000000000000000000000000000000001000000000000000000000000000000000000200000000000000000400000000000000000000000000000000000000000000000080000000000000000000000010000000010000000000000000000000000000000000000000000000000000000000000000100000004000000000000000000000000000000000000000000000000000000000000000000200000000000000000000000000000000000000000000000000000000000000040000000000000000000000000000000000000000000000000000000000000002000000000000000000000000000000000008000000",
      "transactionHash": "0x4478f1546b30149e80ebc4e2096f322ca9b5c64e0a4d38014abcededb566e50e",
      "transactionIndex": "0x5",
      "blockHash": "0x75cfba3db6709d7a6f1c6a308b0bc08693cfef2d67ce6742dad742744bb867dc",
      "blockNumber": "0x2d0dc55",
      "gasUsed": "0x34a03",
      "effectiveGasPrice": "0x4e7b90869",
      "from": "0x04e0353b7218b66d6803725ce7342e6e1225db1b",
      "to": "0x4096b75c387df6c16841153cd54418378bdcb15d",
      "contractAddress": null
    },
    {
      "type": "0x2",
      "status": "0x1",
      "cumulativeGasUsed": "0xf4edd",
      "logs": [
        {
          "address": "0x00902216bcaff0d205f4dfb8468f178aadcf325f",
          "topics": [
            "0xcc8ffa41e049f188a802e4d9c56cc32f0635bfae836764488c6747dc6e711d65",
            "0xec916c347e4ebe880a5d5d01400c7fcb3a69243a5f47694edc478e4c6b7d88c9",
            "0x00000000000000000000000004e0353b7218b66d6803725ce7342e6e1225db1b"
          ],
          "data": "0x000000000000000000000000000000000000000000000000000000000000004000000000000000000000000000000000000000000000000000000000000000800000000000000000000000000000000000000000000000000000000000000011617263706173735f6b79635f62617369630000000000000000000000000000000000000000000000000000000000000000000000000000000000000000000005332e302e30000000000000000000000000000000000000000000000000000000",
          "blockHash": "0x75cfba3db6709d7a6f1c6a308b0bc08693cfef2d67ce6742dad742744bb867dc",
          "blockNumber": "0x2d0dc55",
          "blockTimestamp": "0x6a307685",
          "transactionHash": "0xe2d136fbedc28279c10de67063ae3a1cc6f1e07a5f2d384aa7e1d623b575ceeb",
          "transactionIndex": "0x6",
          "logIndex": "0xa",
          "removed": false
        }
      ],
      "logsBloom": "0x00000000000000000000000080000000000000000000000020000000000000000000000000000000000000082000000000000000000000000000000010000000000000000000000000000000000000000000000000008000000000000000000010100000010000000000000000000000000000000000000000000000000000000000000000000000000000000000000000000000000000000000000000000000000000000000000000000000000000000000000000000000000000000000000000000000000000000000000000000000100000400000000000000000000000000000000000000000000002000000000000000000000000000000000000000000",
      "transactionHash": "0xe2d136fbedc28279c10de67063ae3a1cc6f1e07a5f2d384aa7e1d623b575ceeb",
      "transactionIndex": "0x6",
      "blockHash": "0x75cfba3db6709d7a6f1c6a308b0bc08693cfef2d67ce6742dad742744bb867dc",
      "blockNumber": "0x2d0dc55",
      "gasUsed": "0x51a4d",
      "effectiveGasPrice": "0x4e7b90869",
      "from": "0x04e0353b7218b66d6803725ce7342e6e1225db1b",
      "to": "0x00902216bcaff0d205f4dfb8468f178aadcf325f",
      "contractAddress": null
    },
    {
      "type": "0x2",
      "status": "0x1",
      "cumulativeGasUsed": "0x1298e0",
      "logs": [
        {
          "address": "0x4096b75c387df6c16841153cd54418378bdcb15d",
          "topics": [
            "0x17a6fd8ad70546156a551284d0884ffae65dd055132d1fe7a347f4b7de730f47",
            "0x1eeea9fbc3e6ae96f917a8c36e8ad68e6039208f533467d6b96a8e95ceb22e38",
            "0x00000000000000000000000004e0353b7218b66d6803725ce7342e6e1225db1b",
            "0x00000000000000000000000004e0353b7218b66d6803725ce7342e6e1225db1b"
          ],
          "data": "0xec916c347e4ebe880a5d5d01400c7fcb3a69243a5f47694edc478e4c6b7d88c9",
          "blockHash": "0x75cfba3db6709d7a6f1c6a308b0bc08693cfef2d67ce6742dad742744bb867dc",
          "blockNumber": "0x2d0dc55",
          "blockTimestamp": "0x6a307685",
          "transactionHash": "0x4f4f94e67442ddb3e711ab7976a626306e2e90ae7cca44b94b5a7386844c6ace",
          "transactionIndex": "0x7",
          "logIndex": "0xb",
          "removed": false
        }
      ],
      "logsBloom": "0x00000000000000000000000000000000000000000000000000000000400000000000000000000000000000000000000000000200000000000000000400000000000000000000000000000000000000000000000000000000000000000000000010000000010000000000000000000000000000000000000000000000000000000000000000100000004000000000000000000000000000000000000000000000000000008000000000000000000000000000000000000000000000000000020000000000000000000000040000000000000000000000000000000000000000000000000000000000000002000000000000000000000000000000000008000000",
      "transactionHash": "0x4f4f94e67442ddb3e711ab7976a626306e2e90ae7cca44b94b5a7386844c6ace",
      "transactionIndex": "0x7",
      "blockHash": "0x75cfba3db6709d7a6f1c6a308b0bc08693cfef2d67ce6742dad742744bb867dc",
      "blockNumber": "0x2d0dc55",
      "gasUsed": "0x34a03",
      "effectiveGasPrice": "0x4e7b90869",
      "from": "0x04e0353b7218b66d6803725ce7342e6e1225db1b",
      "to": "0x4096b75c387df6c16841153cd54418378bdcb15d",
      "contractAddress": null
    },
    {
      "type": "0x2",
      "status": "0x1",
      "cumulativeGasUsed": "0x175a77",
      "logs": [
        {
          "address": "0x00902216bcaff0d205f4dfb8468f178aadcf325f",
          "topics": [
            "0xcc8ffa41e049f188a802e4d9c56cc32f0635bfae836764488c6747dc6e711d65",
            "0xb4d55b139dd7c1283674c66a2f8c9549bd7fc2dcf4574e8f536ab84a292b8c59",
            "0x00000000000000000000000004e0353b7218b66d6803725ce7342e6e1225db1b"
          ],
          "data": "0x000000000000000000000000000000000000000000000000000000000000004000000000000000000000000000000000000000000000000000000000000000800000000000000000000000000000000000000000000000000000000000000015617263706173735f616d6c5f73637265656e696e6700000000000000000000000000000000000000000000000000000000000000000000000000000000000005332e302e30000000000000000000000000000000000000000000000000000000",
          "blockHash": "0x75cfba3db6709d7a6f1c6a308b0bc08693cfef2d67ce6742dad742744bb867dc",
          "blockNumber": "0x2d0dc55",
          "blockTimestamp": "0x6a307685",
          "transactionHash": "0x8978267d2824f33528a125330e51ad9f37b5cf345117feaefa42b4dfaf28c391",
          "transactionIndex": "0x8",
          "logIndex": "0xc",
          "removed": false
        }
      ],
      "logsBloom": "0x00000000000000000000000080000000000000000000000020000000000000000000000000000000000000082000000000000000000000000000020000000000000000000000000000000000000000000000000000000000000000000000000010000000010000000000000000000000000000000000000000000000000000000000000000000000000000000000000000000000000000000000000000000000000000000000000000000000000000000000000100000000000000000000000000000000000000020000000000000000100000400000000000000000000000000000000000000000000002000000000000000000000000000000000000000000",
      "transactionHash": "0x8978267d2824f33528a125330e51ad9f37b5cf345117feaefa42b4dfaf28c391",
      "transactionIndex": "0x8",
      "blockHash": "0x75cfba3db6709d7a6f1c6a308b0bc08693cfef2d67ce6742dad742744bb867dc",
      "blockNumber": "0x2d0dc55",
      "gasUsed": "0x4c197",
      "effectiveGasPrice": "0x4e7b90869",
      "from": "0x04e0353b7218b66d6803725ce7342e6e1225db1b",
      "to": "0x00902216bcaff0d205f4dfb8468f178aadcf325f",
      "contractAddress": null
    },
    {
      "type": "0x2",
      "status": "0x1",
      "cumulativeGasUsed": "0x1aa47a",
      "logs": [
        {
          "address": "0x4096b75c387df6c16841153cd54418378bdcb15d",
          "topics": [
            "0x17a6fd8ad70546156a551284d0884ffae65dd055132d1fe7a347f4b7de730f47",
            "0x3f8912cb53c80c238a31f0cc7513661507642f97930a2debee9eb40e077a5979",
            "0x00000000000000000000000004e0353b7218b66d6803725ce7342e6e1225db1b",
            "0x00000000000000000000000004e0353b7218b66d6803725ce7342e6e1225db1b"
          ],
          "data": "0xb4d55b139dd7c1283674c66a2f8c9549bd7fc2dcf4574e8f536ab84a292b8c59",
          "blockHash": "0x75cfba3db6709d7a6f1c6a308b0bc08693cfef2d67ce6742dad742744bb867dc",
          "blockNumber": "0x2d0dc55",
          "blockTimestamp": "0x6a307685",
          "transactionHash": "0x9ce933c47fa447c14e57fcc16c83abb72ffbaf11fc51d8c41352ca30b7070c86",
          "transactionIndex": "0x9",
          "logIndex": "0xd",
          "removed": false
        }
      ],
      "logsBloom": "0x00000000000000001000000000000000000000000000000000000000000000000000000000000000000000000400000000000200000000000000000400000000000000000000000000000000000000000000000000000000000000000000000010000000010000000000000000000000002000000000000000000000000000000000000000100000004000000000000000000000000000000000000000000000000000000000000000000000000000000000000000000000000000000000000000000000000000000000040000000000000000000000000000000000000000000000000000000000000002000000000000000000000000000000000008000000",
      "transactionHash": "0x9ce933c47fa447c14e57fcc16c83abb72ffbaf11fc51d8c41352ca30b7070c86",
      "transactionIndex": "0x9",
      "blockHash": "0x75cfba3db6709d7a6f1c6a308b0bc08693cfef2d67ce6742dad742744bb867dc",
      "blockNumber": "0x2d0dc55",
      "gasUsed": "0x34a03",
      "effectiveGasPrice": "0x4e7b90869",
      "from": "0x04e0353b7218b66d6803725ce7342e6e1225db1b",
      "to": "0x4096b75c387df6c16841153cd54418378bdcb15d",
      "contractAddress": null
    },
    {
      "type": "0x2",
      "status": "0x1",
      "cumulativeGasUsed": "0x20183c",
      "logs": [
        {
          "address": "0x00902216bcaff0d205f4dfb8468f178aadcf325f",
          "topics": [
            "0xcc8ffa41e049f188a802e4d9c56cc32f0635bfae836764488c6747dc6e711d65",
            "0xc7e6eaed7ce3c23e51da4a70109eb8ab69131a7b213023b179ca47c64a0012f0",
            "0x00000000000000000000000004e0353b7218b66d6803725ce7342e6e1225db1b"
          ],
          "data": "0x000000000000000000000000000000000000000000000000000000000000004000000000000000000000000000000000000000000000000000000000000000800000000000000000000000000000000000000000000000000000000000000015617263706173735f63657274696669636174696f6e00000000000000000000000000000000000000000000000000000000000000000000000000000000000005332e302e30000000000000000000000000000000000000000000000000000000",
          "blockHash": "0x75cfba3db6709d7a6f1c6a308b0bc08693cfef2d67ce6742dad742744bb867dc",
          "blockNumber": "0x2d0dc55",
          "blockTimestamp": "0x6a307685",
          "transactionHash": "0xe4d7cba135c02344204fb45d9245605c392eac06b1de83e5f794dd31a395be91",
          "transactionIndex": "0xa",
          "logIndex": "0xe",
          "removed": false
        }
      ],
      "logsBloom": "0x00000000000000000000000080000000000000000000000020000000000000000000000000000000000000082000000000000000000000000000000000000800000000000000000000000000000000000000000000000000000000000000000010000000010000000000000000000000000000000000000000000000000000000000000000000000000000000000000000000000000000000000000000000000000000000000000000000000000000000000000000000000000000000000000000000000000000000000000000001000100000400000000000000020000000000000000000000000000002000000000000000000000000000000000000000000",
      "transactionHash": "0xe4d7cba135c02344204fb45d9245605c392eac06b1de83e5f794dd31a395be91",
      "transactionIndex": "0xa",
      "blockHash": "0x75cfba3db6709d7a6f1c6a308b0bc08693cfef2d67ce6742dad742744bb867dc",
      "blockNumber": "0x2d0dc55",
      "gasUsed": "0x573c2",
      "effectiveGasPrice": "0x4e7b90869",
      "from": "0x04e0353b7218b66d6803725ce7342e6e1225db1b",
      "to": "0x00902216bcaff0d205f4dfb8468f178aadcf325f",
      "contractAddress": null
    },
    {
      "type": "0x2",
      "status": "0x1",
      "cumulativeGasUsed": "0x236233",
      "logs": [
        {
          "address": "0x4096b75c387df6c16841153cd54418378bdcb15d",
          "topics": [
            "0x17a6fd8ad70546156a551284d0884ffae65dd055132d1fe7a347f4b7de730f47",
            "0x9fd253b1df5a29a94801a33d25c569e0fdf43eabb843653a5f18da6f9d04d6b6",
            "0x00000000000000000000000004e0353b7218b66d6803725ce7342e6e1225db1b",
            "0x00000000000000000000000004e0353b7218b66d6803725ce7342e6e1225db1b"
          ],
          "data": "0xc7e6eaed7ce3c23e51da4a70109eb8ab69131a7b213023b179ca47c64a0012f0",
          "blockHash": "0x75cfba3db6709d7a6f1c6a308b0bc08693cfef2d67ce6742dad742744bb867dc",
          "blockNumber": "0x2d0dc55",
          "blockTimestamp": "0x6a307685",
          "transactionHash": "0xf56af9276f33253253cc2771ad8b3e469dce5d1a8f8e2ea05faf0568fe198577",
          "transactionIndex": "0xb",
          "logIndex": "0xf",
          "removed": false
        }
      ],
      "logsBloom": "0x00000000000000000000000000000000000000000000000000000000000000000000000000000000000000000000000000000200000000000000000400000000000000000000000000000000000000000000000000000000000000000000008010000000010000000000000000000000000000000000000000000000000008040000000000100000004000000000000000000000000000000000000000000000000000000000000000000000000000000000000000000000000000000000000000000000000000000000040000000000000000000000000000000000000000000000000000000000000002000000000000000000000000000000000008000000",
      "transactionHash": "0xf56af9276f33253253cc2771ad8b3e469dce5d1a8f8e2ea05faf0568fe198577",
      "transactionIndex": "0xb",
      "blockHash": "0x75cfba3db6709d7a6f1c6a308b0bc08693cfef2d67ce6742dad742744bb867dc",
      "blockNumber": "0x2d0dc55",
      "gasUsed": "0x349f7",
      "effectiveGasPrice": "0x4e7b90869",
      "from": "0x04e0353b7218b66d6803725ce7342e6e1225db1b",
      "to": "0x4096b75c387df6c16841153cd54418378bdcb15d",
      "contractAddress": null
    },
    {
      "type": "0x2",
      "status": "0x1",
      "cumulativeGasUsed": "0x282355",
      "logs": [
        {
          "address": "0x00902216bcaff0d205f4dfb8468f178aadcf325f",
          "topics": [
            "0xcc8ffa41e049f188a802e4d9c56cc32f0635bfae836764488c6747dc6e711d65",
            "0xc36cb1c1fc985e3799f82795c5efbf675862065f2e6588cb17a26fe4528b188a",
            "0x00000000000000000000000004e0353b7218b66d6803725ce7342e6e1225db1b"
          ],
          "data": "0x00000000000000000000000000000000000000000000000000000000000000400000000000000000000000000000000000000000000000000000000000000080000000000000000000000000000000000000000000000000000000000000000d617263706173735f736b696c6c000000000000000000000000000000000000000000000000000000000000000000000000000000000000000000000000000005332e302e30000000000000000000000000000000000000000000000000000000",
          "blockHash": "0x75cfba3db6709d7a6f1c6a308b0bc08693cfef2d67ce6742dad742744bb867dc",
          "blockNumber": "0x2d0dc55",
          "blockTimestamp": "0x6a307685",
          "transactionHash": "0x1041b27037be4c358456b2a4b8bb6526372449f8904d4ff047561a8f2941bbc0",
          "transactionIndex": "0xc",
          "logIndex": "0x10",
          "removed": false
        }
      ],
      "logsBloom": "0x00000000000000100000000080000000000002000000000020000000000000000000000000000000000000082000000000000000000000000000000000000000000000000000000000000000000000000000000000000000000000000000000010000000010000008000000000000000000000000000000000000000000000000000000000000000000000000000000000000000000000000000000000000000000000000000000000000000000000000000000000000000000000000000000000000000000000000000000000000000100000400000000000000000000000000000000000000000000002000000000000000000000000000000000000000000",
      "transactionHash": "0x1041b27037be4c358456b2a4b8bb6526372449f8904d4ff047561a8f2941bbc0",
      "transactionIndex": "0xc",
      "blockHash": "0x75cfba3db6709d7a6f1c6a308b0bc08693cfef2d67ce6742dad742744bb867dc",
      "blockNumber": "0x2d0dc55",
      "gasUsed": "0x4c122",
      "effectiveGasPrice": "0x4e7b90869",
      "from": "0x04e0353b7218b66d6803725ce7342e6e1225db1b",
      "to": "0x00902216bcaff0d205f4dfb8468f178aadcf325f",
      "contractAddress": null
    },
    {
      "type": "0x2",
      "status": "0x1",
      "cumulativeGasUsed": "0x2b6d58",
      "logs": [
        {
          "address": "0x4096b75c387df6c16841153cd54418378bdcb15d",
          "topics": [
            "0x17a6fd8ad70546156a551284d0884ffae65dd055132d1fe7a347f4b7de730f47",
            "0x6646fae67cc0908ff8ecaaee35fa44247ccf348093d2ff00c85eb2abe63220cc",
            "0x00000000000000000000000004e0353b7218b66d6803725ce7342e6e1225db1b",
            "0x00000000000000000000000004e0353b7218b66d6803725ce7342e6e1225db1b"
          ],
          "data": "0xc36cb1c1fc985e3799f82795c5efbf675862065f2e6588cb17a26fe4528b188a",
          "blockHash": "0x75cfba3db6709d7a6f1c6a308b0bc08693cfef2d67ce6742dad742744bb867dc",
          "blockNumber": "0x2d0dc55",
          "blockTimestamp": "0x6a307685",
          "transactionHash": "0x3a043aec6d44fa82399c746fa28d1c0de14896caee237179bb8cf2c4748d9a1d",
          "transactionIndex": "0xd",
          "logIndex": "0x11",
          "removed": false
        }
      ],
      "logsBloom": "0x00000000040000000000000000000000000000000000000000000000000000000000000000000000000000000000000000000200000000000000000480000000000000000000000000000000000000000000000000000000000000000000000010000000010000000000000000000000000000002000000000000000000000000000000000100000004000000000000000000000000000000000000000000000000000000000000000000000000000000000000000000000000000000000000000000000000000000000040000000000000000000000000000000000000000000000000000000000000002000000000000000000000000000000000008000000",
      "transactionHash": "0x3a043aec6d44fa82399c746fa28d1c0de14896caee237179bb8cf2c4748d9a1d",
      "transactionIndex": "0xd",
      "blockHash": "0x75cfba3db6709d7a6f1c6a308b0bc08693cfef2d67ce6742dad742744bb867dc",
      "blockNumber": "0x2d0dc55",
      "gasUsed": "0x34a03",
      "effectiveGasPrice": "0x4e7b90869",
      "from": "0x04e0353b7218b66d6803725ce7342e6e1225db1b",
      "to": "0x4096b75c387df6c16841153cd54418378bdcb15d",
      "contractAddress": null
    },
    {
      "type": "0x2",
      "status": "0x1",
      "cumulativeGasUsed": "0x30e126",
      "logs": [
        {
          "address": "0x00902216bcaff0d205f4dfb8468f178aadcf325f",
          "topics": [
            "0xcc8ffa41e049f188a802e4d9c56cc32f0635bfae836764488c6747dc6e711d65",
            "0xcdc6f3a2b9b5e639663334450ae80441af46b60803e2305113ce011a26baf2c1",
            "0x00000000000000000000000004e0353b7218b66d6803725ce7342e6e1225db1b"
          ],
          "data": "0x000000000000000000000000000000000000000000000000000000000000004000000000000000000000000000000000000000000000000000000000000000800000000000000000000000000000000000000000000000000000000000000016617263706173735f64616f5f6d656d62657273686970000000000000000000000000000000000000000000000000000000000000000000000000000000000005332e302e30000000000000000000000000000000000000000000000000000000",
          "blockHash": "0x75cfba3db6709d7a6f1c6a308b0bc08693cfef2d67ce6742dad742744bb867dc",
          "blockNumber": "0x2d0dc55",
          "blockTimestamp": "0x6a307685",
          "transactionHash": "0x8df708d34ffa5039c914b031863c34e1b7660b8c5e34f7a4332c5307d5895eb6",
          "transactionIndex": "0xe",
          "logIndex": "0x12",
          "removed": false
        }
      ],
      "logsBloom": "0x00000000000000000000080080000000000000000000000020000000000000000000000000000000000000082000000000000000000000000000000000000000000000000000000000000000000000000000000000000000000000000000000010000000010000000000000000000000000000000000000080000000000000000000000000000000000000000000000000000000000000000000000000000000000000000000000000000000000000000000000000000000040000000000000000000000000000000000000000000000100000400000000000000000000000000000000000000000000002000000000000000000000000000000000000000000",
      "transactionHash": "0x8df708d34ffa5039c914b031863c34e1b7660b8c5e34f7a4332c5307d5895eb6",
      "transactionIndex": "0xe",
      "blockHash": "0x75cfba3db6709d7a6f1c6a308b0bc08693cfef2d67ce6742dad742744bb867dc",
      "blockNumber": "0x2d0dc55",
      "gasUsed": "0x573ce",
      "effectiveGasPrice": "0x4e7b90869",
      "from": "0x04e0353b7218b66d6803725ce7342e6e1225db1b",
      "to": "0x00902216bcaff0d205f4dfb8468f178aadcf325f",
      "contractAddress": null
    },
    {
      "type": "0x2",
      "status": "0x1",
      "cumulativeGasUsed": "0x342b29",
      "logs": [
        {
          "address": "0x4096b75c387df6c16841153cd54418378bdcb15d",
          "topics": [
            "0x17a6fd8ad70546156a551284d0884ffae65dd055132d1fe7a347f4b7de730f47",
            "0xe5ccb67fb5b1eea78be7cfa7b2de1a6d2ba28a739fe9155a613ec3202a71303b",
            "0x00000000000000000000000004e0353b7218b66d6803725ce7342e6e1225db1b",
            "0x00000000000000000000000004e0353b7218b66d6803725ce7342e6e1225db1b"
          ],
          "data": "0xcdc6f3a2b9b5e639663334450ae80441af46b60803e2305113ce011a26baf2c1",
          "blockHash": "0x75cfba3db6709d7a6f1c6a308b0bc08693cfef2d67ce6742dad742744bb867dc",
          "blockNumber": "0x2d0dc55",
          "blockTimestamp": "0x6a307685",
          "transactionHash": "0x12039a67d938869edea54b7c9de62dc18dc1ecc0e9d774931f257480d41f118d",
          "transactionIndex": "0xf",
          "logIndex": "0x13",
          "removed": false
        }
      ],
      "logsBloom": "0x40001000000000000000000000000000000000000000000000000000000000000000000000000000000000000000000000000200000000000000000400000000000000000000000000000000000000000000000000000000000000000000000010000000010000000000000000000000000000000000000000000000000000000000000000100000004000000000000000000000000000000000000000000000000000000000000000000000000000000000000000000000000000000000000000000000000000000000040000000000000000000000000000000000000000000000000000000000000002000000000000000000000000000000000008000000",
      "transactionHash": "0x12039a67d938869edea54b7c9de62dc18dc1ecc0e9d774931f257480d41f118d",
      "transactionIndex": "0xf",
      "blockHash": "0x75cfba3db6709d7a6f1c6a308b0bc08693cfef2d67ce6742dad742744bb867dc",
      "blockNumber": "0x2d0dc55",
      "gasUsed": "0x34a03",
      "effectiveGasPrice": "0x4e7b90869",
      "from": "0x04e0353b7218b66d6803725ce7342e6e1225db1b",
      "to": "0x4096b75c387df6c16841153cd54418378bdcb15d",
      "contractAddress": null
    },
    {
      "type": "0x2",
      "status": "0x1",
      "cumulativeGasUsed": "0x3945ee",
      "logs": [
        {
          "address": "0x00902216bcaff0d205f4dfb8468f178aadcf325f",
          "topics": [
            "0xcc8ffa41e049f188a802e4d9c56cc32f0635bfae836764488c6747dc6e711d65",
            "0xa8603aa5630dc8ab212f9f4aa17c04d064d0c500d26596cce4c8c6525d3463ee",
            "0x00000000000000000000000004e0353b7218b66d6803725ce7342e6e1225db1b"
          ],
          "data": "0x000000000000000000000000000000000000000000000000000000000000004000000000000000000000000000000000000000000000000000000000000000800000000000000000000000000000000000000000000000000000000000000018617263706173735f72657075746174696f6e5f73636f726500000000000000000000000000000000000000000000000000000000000000000000000000000005332e302e30000000000000000000000000000000000000000000000000000000",
          "blockHash": "0x75cfba3db6709d7a6f1c6a308b0bc08693cfef2d67ce6742dad742744bb867dc",
          "blockNumber": "0x2d0dc55",
          "blockTimestamp": "0x6a307685",
          "transactionHash": "0xb60238918f5148b52bd1652cb04bb7fbc7c5818b63bc4e9f8dd72b10e6d97b8b",
          "transactionIndex": "0x10",
          "logIndex": "0x14",
          "removed": false
        }
      ],
      "logsBloom": "0x00000000000000000000000080000000000000000000000020000000000000000000000000000000000000082000000000000000000000000000000000000000000000000000000000000000000000000000000000000000000000000000000010000000010000000000000000000000000000000000000000000000000000000000000000000000000000000800000000000000000000000000000000000000000000000000000000000000000000000000000000000000000000000000000000000000000000000000000000000000102000400000000000000000000000010000000000000000000002000000000000000000000000000000000000000000",
      "transactionHash": "0xb60238918f5148b52bd1652cb04bb7fbc7c5818b63bc4e9f8dd72b10e6d97b8b",
      "transactionIndex": "0x10",
      "blockHash": "0x75cfba3db6709d7a6f1c6a308b0bc08693cfef2d67ce6742dad742744bb867dc",
      "blockNumber": "0x2d0dc55",
      "gasUsed": "0x51ac5",
      "effectiveGasPrice": "0x4e7b90869",
      "from": "0x04e0353b7218b66d6803725ce7342e6e1225db1b",
      "to": "0x00902216bcaff0d205f4dfb8468f178aadcf325f",
      "contractAddress": null
    },
    {
      "type": "0x2",
      "status": "0x1",
      "cumulativeGasUsed": "0x4601f8",
      "logs": [
        {
          "address": "0x4096b75c387df6c16841153cd54418378bdcb15d",
          "topics": [
            "0x17a6fd8ad70546156a551284d0884ffae65dd055132d1fe7a347f4b7de730f47",
            "0x9e2cc7f2db231d0ce684ca67e764c413d5d337fa269d515afe696330d2505836",
            "0x00000000000000000000000004e0353b7218b66d6803725ce7342e6e1225db1b",
            "0x00000000000000000000000004e0353b7218b66d6803725ce7342e6e1225db1b"
          ],
          "data": "0xa8603aa5630dc8ab212f9f4aa17c04d064d0c500d26596cce4c8c6525d3463ee",
          "blockHash": "0x75cfba3db6709d7a6f1c6a308b0bc08693cfef2d67ce6742dad742744bb867dc",
          "blockNumber": "0x2d0dc55",
          "blockTimestamp": "0x6a307685",
          "transactionHash": "0xfa54a2cc8a8159641c19734215ec88ee38f6b7fb04711b53be59ead36653f285",
          "transactionIndex": "0x16",
          "logIndex": "0x1f",
          "removed": false
        }
      ],
      "logsBloom": "0x00000000000000000000000000000000000000020000000000000000000000000000000000000000000000000000000000000200000000000000000400000000000000000000000000000000000000000000000000000000000000000000000010000000010000000000000200000000000000000000000000000000000000000000000000100000004000000000000000000000000000000000000000000000000000000000000000000000000000000000000000000000000000000000000000000000000000200000040000000000000000000000000000000000000000000000000000000000000002000000000000000000000000000000000008000000",
      "transactionHash": "0xfa54a2cc8a8159641c19734215ec88ee38f6b7fb04711b53be59ead36653f285",
      "transactionIndex": "0x16",
      "blockHash": "0x75cfba3db6709d7a6f1c6a308b0bc08693cfef2d67ce6742dad742744bb867dc",
      "blockNumber": "0x2d0dc55",
      "gasUsed": "0x349f7",
      "effectiveGasPrice": "0x4e7b90869",
      "from": "0x04e0353b7218b66d6803725ce7342e6e1225db1b",
      "to": "0x4096b75c387df6c16841153cd54418378bdcb15d",
      "contractAddress": null
    },
    {
      "type": "0x2",
      "status": "0x1",
      "cumulativeGasUsed": "0x15badf",
      "logs": [
        {
          "address": "0x00902216bcaff0d205f4dfb8468f178aadcf325f",
          "topics": [
            "0xcc8ffa41e049f188a802e4d9c56cc32f0635bfae836764488c6747dc6e711d65",
            "0xd8a3c53651d90b9a79d2c51a36ac0bd0fe71bc0a7621361f3ac8019c689ff7ea",
            "0x00000000000000000000000004e0353b7218b66d6803725ce7342e6e1225db1b"
          ],
          "data": "0x000000000000000000000000000000000000000000000000000000000000004000000000000000000000000000000000000000000000000000000000000000800000000000000000000000000000000000000000000000000000000000000012617263706173735f656d706c6f796d656e7400000000000000000000000000000000000000000000000000000000000000000000000000000000000000000005332e302e30000000000000000000000000000000000000000000000000000000",
          "blockHash": "0x9c0a6089dbce4edc124004847355fc7a24bedc40226c2f66251da604e4d06e95",
          "blockNumber": "0x2d0dc57",
          "blockTimestamp": "0x6a307686",
          "transactionHash": "0x21296826394700edf39cd1380226bd4895c05227b401f19fd8d829a1b24bb1a4",
          "transactionIndex": "0x9",
          "logIndex": "0x14",
          "removed": false
        }
      ],
      "logsBloom": "0x00000000000000000000000080000000000000000000000020000000000000000000000000000000000000082000000000000000000000000000000000000000000000000000000000000000000000000000000000000000000000000000000010000000010000000000000000000000000000000000000000000000000000000000000000000000000000000000000000000000000000000000000000000000000000000000000000000008000000000000000000000000000000100000000000000000000000000000000000000000100000400000000000000000000000000000000000000000000002000000000000000000000004000000000000000000",
      "transactionHash": "0x21296826394700edf39cd1380226bd4895c05227b401f19fd8d829a1b24bb1a4",
      "transactionIndex": "0x9",
      "blockHash": "0x9c0a6089dbce4edc124004847355fc7a24bedc40226c2f66251da604e4d06e95",
      "blockNumber": "0x2d0dc57",
      "gasUsed": "0x5736e",
      "effectiveGasPrice": "0x4e7b90869",
      "from": "0x04e0353b7218b66d6803725ce7342e6e1225db1b",
      "to": "0x00902216bcaff0d205f4dfb8468f178aadcf325f",
      "contractAddress": null
    },
    {
      "type": "0x2",
      "status": "0x1",
      "cumulativeGasUsed": "0x1904e2",
      "logs": [
        {
          "address": "0x4096b75c387df6c16841153cd54418378bdcb15d",
          "topics": [
            "0x17a6fd8ad70546156a551284d0884ffae65dd055132d1fe7a347f4b7de730f47",
            "0xfcecfc425385625de1504fa6578cfeb1865ad508f13e9e459f059aa40d2e2e25",
            "0x00000000000000000000000004e0353b7218b66d6803725ce7342e6e1225db1b",
            "0x00000000000000000000000004e0353b7218b66d6803725ce7342e6e1225db1b"
          ],
          "data": "0xd8a3c53651d90b9a79d2c51a36ac0bd0fe71bc0a7621361f3ac8019c689ff7ea",
          "blockHash": "0x9c0a6089dbce4edc124004847355fc7a24bedc40226c2f66251da604e4d06e95",
          "blockNumber": "0x2d0dc57",
          "blockTimestamp": "0x6a307686",
          "transactionHash": "0x80ce8c4f61383c2e563fe828eb81690cfcd2f5d97f30186c86c76f9dddcc2e1b",
          "transactionIndex": "0xa",
          "logIndex": "0x15",
          "removed": false
        }
      ],
      "logsBloom": "0x00000000000000000000000000000000000000000000000000000000000000000000000000000000000000000000000000000200000000000000000400000000000000000000000000000000000000000000000000000000000000000000000010000000010000000000000000000000000000000000000000000000000000000000000000100000004000000000000200000000000000000000000000000000000000000000000000000000000000000000000000000000000000000000000000000000000000000000040000000000000000000000040000008000000000000000000000000000000002000000000000000000000000000000000008000000",
      "transactionHash": "0x80ce8c4f61383c2e563fe828eb81690cfcd2f5d97f30186c86c76f9dddcc2e1b",
      "transactionIndex": "0xa",
      "blockHash": "0x9c0a6089dbce4edc124004847355fc7a24bedc40226c2f66251da604e4d06e95",
      "blockNumber": "0x2d0dc57",
      "gasUsed": "0x34a03",
      "effectiveGasPrice": "0x4e7b90869",
      "from": "0x04e0353b7218b66d6803725ce7342e6e1225db1b",
      "to": "0x4096b75c387df6c16841153cd54418378bdcb15d",
      "contractAddress": null
    },
    {
      "type": "0x2",
      "status": "0x1",
      "cumulativeGasUsed": "0x1ed030",
      "logs": [
        {
          "address": "0x00902216bcaff0d205f4dfb8468f178aadcf325f",
          "topics": [
            "0xcc8ffa41e049f188a802e4d9c56cc32f0635bfae836764488c6747dc6e711d65",
            "0x720a522f02c6fe11f22e7f4c3cc863698ed86b57d0cd13e6e246db2483301a0e",
            "0x00000000000000000000000004e0353b7218b66d6803725ce7342e6e1225db1b"
          ],
          "data": "0x00000000000000000000000000000000000000000000000000000000000000400000000000000000000000000000000000000000000000000000000000000080000000000000000000000000000000000000000000000000000000000000000e617263706173735f6465677265650000000000000000000000000000000000000000000000000000000000000000000000000000000000000000000000000005332e302e30000000000000000000000000000000000000000000000000000000",
          "blockHash": "0x9c0a6089dbce4edc124004847355fc7a24bedc40226c2f66251da604e4d06e95",
          "blockNumber": "0x2d0dc57",
          "blockTimestamp": "0x6a307686",
          "transactionHash": "0x0b2fe321e159de80324d2978374942c16606144ee9ebed8ff7a98ecc01875dff",
          "transactionIndex": "0xb",
          "logIndex": "0x16",
          "removed": false
        }
      ],
      "logsBloom": "0x00000000000000000000000080000000000000000000000020000000000000000000000000000000000000082000000080000000000000000000000000000000000000100000000000000000000000000000000000000000000000000000000010000000010000000000000000000000000000000000000000000000000000000000000000000000000000000000000000000000000000000000000000000080000000000000000000000000000000000000000000000000000000000000000000000000000000000000000000000000100000400000000000000000000000000000000000000000000002000000000000000000000000000000000000000000",
      "transactionHash": "0x0b2fe321e159de80324d2978374942c16606144ee9ebed8ff7a98ecc01875dff",
      "transactionIndex": "0xb",
      "blockHash": "0x9c0a6089dbce4edc124004847355fc7a24bedc40226c2f66251da604e4d06e95",
      "blockNumber": "0x2d0dc57",
      "gasUsed": "0x5cb4e",
      "effectiveGasPrice": "0x4e7b90869",
      "from": "0x04e0353b7218b66d6803725ce7342e6e1225db1b",
      "to": "0x00902216bcaff0d205f4dfb8468f178aadcf325f",
      "contractAddress": null
    },
    {
      "type": "0x2",
      "status": "0x1",
      "cumulativeGasUsed": "0x221a33",
      "logs": [
        {
          "address": "0x4096b75c387df6c16841153cd54418378bdcb15d",
          "topics": [
            "0x17a6fd8ad70546156a551284d0884ffae65dd055132d1fe7a347f4b7de730f47",
            "0x8d09a0520574dafea17c90f2ad7b1246ebd30f773f325dd673857414ba5ea4e3",
            "0x00000000000000000000000004e0353b7218b66d6803725ce7342e6e1225db1b",
            "0x00000000000000000000000004e0353b7218b66d6803725ce7342e6e1225db1b"
          ],
          "data": "0x720a522f02c6fe11f22e7f4c3cc863698ed86b57d0cd13e6e246db2483301a0e",
          "blockHash": "0x9c0a6089dbce4edc124004847355fc7a24bedc40226c2f66251da604e4d06e95",
          "blockNumber": "0x2d0dc57",
          "blockTimestamp": "0x6a307686",
          "transactionHash": "0xb3236c2854c88a8a2823f1b91d6a5c118e75292d158367c165e3c39e3016d575",
          "transactionIndex": "0xc",
          "logIndex": "0x17",
          "removed": false
        }
      ],
      "logsBloom": "0x00000000000000000000000000000000000000000000000000000000400000000000000000000000000000000000000000000200000000000000000400000000000000000000000000000000000000000000000000000000000000000000000010000000010000000000000000000000000000000000000000000200000000000040000000100000004000000000000000000000000000000000000000000000000000000000000000000000000000000000000000000000000000000000000000000000000000000000040000000000000000000000000000000000000000000000000000000000000002000000000000000000000000000000000008000000",
      "transactionHash": "0xb3236c2854c88a8a2823f1b91d6a5c118e75292d158367c165e3c39e3016d575",
      "transactionIndex": "0xc",
      "blockHash": "0x9c0a6089dbce4edc124004847355fc7a24bedc40226c2f66251da604e4d06e95",
      "blockNumber": "0x2d0dc57",
      "gasUsed": "0x34a03",
      "effectiveGasPrice": "0x4e7b90869",
      "from": "0x04e0353b7218b66d6803725ce7342e6e1225db1b",
      "to": "0x4096b75c387df6c16841153cd54418378bdcb15d",
      "contractAddress": null
    },
    {
      "type": "0x2",
      "status": "0x1",
      "cumulativeGasUsed": "0x2734f8",
      "logs": [
        {
          "address": "0x00902216bcaff0d205f4dfb8468f178aadcf325f",
          "topics": [
            "0xcc8ffa41e049f188a802e4d9c56cc32f0635bfae836764488c6747dc6e711d65",
            "0x73edd9bb4981820e9a1f7a320ea2c9833325a6692e9f56f92c0bfaa0bd01f618",
            "0x00000000000000000000000004e0353b7218b66d6803725ce7342e6e1225db1b"
          ],
          "data": "0x000000000000000000000000000000000000000000000000000000000000004000000000000000000000000000000000000000000000000000000000000000800000000000000000000000000000000000000000000000000000000000000016617263706173735f736f6369616c5f6163636f756e74000000000000000000000000000000000000000000000000000000000000000000000000000000000005332e302e30000000000000000000000000000000000000000000000000000000",
          "blockHash": "0x9c0a6089dbce4edc124004847355fc7a24bedc40226c2f66251da604e4d06e95",
          "blockNumber": "0x2d0dc57",
          "blockTimestamp": "0x6a307686",
          "transactionHash": "0xebcec5ff25d5bfbc1c55326d0f27db217d693319e57e94d6bf1460760555890e",
          "transactionIndex": "0xd",
          "logIndex": "0x18",
          "removed": false
        }
      ],
      "logsBloom": "0x00000000000000000000000080000000000000000000000020000000000000000000000000000000000000082000000000000000000000000000000000000000000000000000000000000000000000000000000000000000000000000000000010000000010000000000000000000000000000000000000000000000000000000000000000000000000000000000000000000000000000000000000000000000000000000000000000000000000000200000000002000000000000000000000000000000000000000000000000000000100000400000000000000000000000000000000000000000000002000000000000000000000100000000000000000000",
      "transactionHash": "0xebcec5ff25d5bfbc1c55326d0f27db217d693319e57e94d6bf1460760555890e",
      "transactionIndex": "0xd",
      "blockHash": "0x9c0a6089dbce4edc124004847355fc7a24bedc40226c2f66251da604e4d06e95",
      "blockNumber": "0x2d0dc57",
      "gasUsed": "0x51ac5",
      "effectiveGasPrice": "0x4e7b90869",
      "from": "0x04e0353b7218b66d6803725ce7342e6e1225db1b",
      "to": "0x00902216bcaff0d205f4dfb8468f178aadcf325f",
      "contractAddress": null
    },
    {
      "type": "0x2",
      "status": "0x1",
      "cumulativeGasUsed": "0x2a7efb",
      "logs": [
        {
          "address": "0x4096b75c387df6c16841153cd54418378bdcb15d",
          "topics": [
            "0x17a6fd8ad70546156a551284d0884ffae65dd055132d1fe7a347f4b7de730f47",
            "0xb303c0e64f1a8c27666bb72c31e785e0ecb0365f505d403f76e40daa09afcca6",
            "0x00000000000000000000000004e0353b7218b66d6803725ce7342e6e1225db1b",
            "0x00000000000000000000000004e0353b7218b66d6803725ce7342e6e1225db1b"
          ],
          "data": "0x73edd9bb4981820e9a1f7a320ea2c9833325a6692e9f56f92c0bfaa0bd01f618",
          "blockHash": "0x9c0a6089dbce4edc124004847355fc7a24bedc40226c2f66251da604e4d06e95",
          "blockNumber": "0x2d0dc57",
          "blockTimestamp": "0x6a307686",
          "transactionHash": "0x80f352bcea864e7e011b4e4c47de739d0bb6e80cbebe97e8f60e271f8c6f0bfe",
          "transactionIndex": "0xe",
          "logIndex": "0x19",
          "removed": false
        }
      ],
      "logsBloom": "0x00000000000000000000000000000000000000000000000000000000000000000000000000000000000000000000000000000200000000000000000400000000000000000000000000000000000000000000000000000000000000000000000810000000010000000000000000000000000000000000000000000000000000000000000000100000004000000000000000000000000000000000000000000000000000000000000000000000000000000000000000000000000000000000000000000000000000000000040000000000000000000000000000000000000000000000000000000000000002000020000000000000000000000000000008000000",
      "transactionHash": "0x80f352bcea864e7e011b4e4c47de739d0bb6e80cbebe97e8f60e271f8c6f0bfe",
      "transactionIndex": "0xe",
      "blockHash": "0x9c0a6089dbce4edc124004847355fc7a24bedc40226c2f66251da604e4d06e95",
      "blockNumber": "0x2d0dc57",
      "gasUsed": "0x34a03",
      "effectiveGasPrice": "0x4e7b90869",
      "from": "0x04e0353b7218b66d6803725ce7342e6e1225db1b",
      "to": "0x4096b75c387df6c16841153cd54418378bdcb15d",
      "contractAddress": null
    },
    {
      "type": "0x2",
      "status": "0x1",
      "cumulativeGasUsed": "0x2f9984",
      "logs": [
        {
          "address": "0x00902216bcaff0d205f4dfb8468f178aadcf325f",
          "topics": [
            "0xcc8ffa41e049f188a802e4d9c56cc32f0635bfae836764488c6747dc6e711d65",
            "0x7d2d568c0898627d7c5a7fd6743cd5318edac483b4c47ef0cca4ed1d8e3d68ff",
            "0x00000000000000000000000004e0353b7218b66d6803725ce7342e6e1225db1b"
          ],
          "data": "0x000000000000000000000000000000000000000000000000000000000000004000000000000000000000000000000000000000000000000000000000000000800000000000000000000000000000000000000000000000000000000000000010617263706173735f68756d616e697479000000000000000000000000000000000000000000000000000000000000000000000000000000000000000000000005332e302e30000000000000000000000000000000000000000000000000000000",
          "blockHash": "0x9c0a6089dbce4edc124004847355fc7a24bedc40226c2f66251da604e4d06e95",
          "blockNumber": "0x2d0dc57",
          "blockTimestamp": "0x6a307686",
          "transactionHash": "0xbf653d939c83f3cfcc38c4dcefa0bf22bee05398a135cc65eae49863ec64b9a5",
          "transactionIndex": "0xf",
          "logIndex": "0x1a",
          "removed": false
        }
      ],
      "logsBloom": "0x00000000000000000000000080000000000000000000000020000000020000000000000000000000000000082000000000000000000000000000000000000000000000000000000000000000000000000000000000000000000000000000000010000000010000004000000000000000000000000000000000000000000000000000000000000000000000000000000000000000000000000000000000000000000000000000000000000000000000000000000000000000000000000000000000000000000000000000000000000000100000400000000000000000000000000000000000000000000002000000000000000000000000000020000000000000",
      "transactionHash": "0xbf653d939c83f3cfcc38c4dcefa0bf22bee05398a135cc65eae49863ec64b9a5",
      "transactionIndex": "0xf",
      "blockHash": "0x9c0a6089dbce4edc124004847355fc7a24bedc40226c2f66251da604e4d06e95",
      "blockNumber": "0x2d0dc57",
      "gasUsed": "0x51a89",
      "effectiveGasPrice": "0x4e7b90869",
      "from": "0x04e0353b7218b66d6803725ce7342e6e1225db1b",
      "to": "0x00902216bcaff0d205f4dfb8468f178aadcf325f",
      "contractAddress": null
    },
    {
      "type": "0x2",
      "status": "0x1",
      "cumulativeGasUsed": "0x32e387",
      "logs": [
        {
          "address": "0x4096b75c387df6c16841153cd54418378bdcb15d",
          "topics": [
            "0x17a6fd8ad70546156a551284d0884ffae65dd055132d1fe7a347f4b7de730f47",
            "0xa1fe38543b3bd965828af3f8d66fad263262fd6300811b825ef79d2b8dbccc10",
            "0x00000000000000000000000004e0353b7218b66d6803725ce7342e6e1225db1b",
            "0x00000000000000000000000004e0353b7218b66d6803725ce7342e6e1225db1b"
          ],
          "data": "0x7d2d568c0898627d7c5a7fd6743cd5318edac483b4c47ef0cca4ed1d8e3d68ff",
          "blockHash": "0x9c0a6089dbce4edc124004847355fc7a24bedc40226c2f66251da604e4d06e95",
          "blockNumber": "0x2d0dc57",
          "blockTimestamp": "0x6a307686",
          "transactionHash": "0x2a8945ff86781b7dc4c6a163c448e125dfb414df15aa715aeddb42b57403a215",
          "transactionIndex": "0x10",
          "logIndex": "0x1b",
          "removed": false
        }
      ],
      "logsBloom": "0x00000000000000000000000000000000000000000000000000000000000004000000000000000000000000000000000000000200000000000000000400000000000000000000002000000000000000000000000000000000000000000000000010000000010000000000000000000000000000000000000000000000000000000000000000100000004000000000000000000000000000000000000000000000000000000000000000000000000000000000000000000000000000000000000004000000000000000000040000000000000000000000000000000000000000000000000000000000000002000000000000000000000000000000000008000000",
      "transactionHash": "0x2a8945ff86781b7dc4c6a163c448e125dfb414df15aa715aeddb42b57403a215",
      "transactionIndex": "0x10",
      "blockHash": "0x9c0a6089dbce4edc124004847355fc7a24bedc40226c2f66251da604e4d06e95",
      "blockNumber": "0x2d0dc57",
      "gasUsed": "0x34a03",
      "effectiveGasPrice": "0x4e7b90869",
      "from": "0x04e0353b7218b66d6803725ce7342e6e1225db1b",
      "to": "0x4096b75c387df6c16841153cd54418378bdcb15d",
      "contractAddress": null
    },
    {
      "type": "0x2",
      "status": "0x1",
      "cumulativeGasUsed": "0x374c81",
      "logs": [
        {
          "address": "0x00902216bcaff0d205f4dfb8468f178aadcf325f",
          "topics": [
            "0xcc8ffa41e049f188a802e4d9c56cc32f0635bfae836764488c6747dc6e711d65",
            "0x5b07b34fab8831d81c125641fae957baddcecc118cc93ae8fd34236b1bf2b120",
            "0x00000000000000000000000004e0353b7218b66d6803725ce7342e6e1225db1b"
          ],
          "data": "0x000000000000000000000000000000000000000000000000000000000000004000000000000000000000000000000000000000000000000000000000000000800000000000000000000000000000000000000000000000000000000000000016617263706173735f637573746f6d5f6578616d706c65000000000000000000000000000000000000000000000000000000000000000000000000000000000005332e302e30000000000000000000000000000000000000000000000000000000",
          "blockHash": "0x9c0a6089dbce4edc124004847355fc7a24bedc40226c2f66251da604e4d06e95",
          "blockNumber": "0x2d0dc57",
          "blockTimestamp": "0x6a307686",
          "transactionHash": "0x563f3455ef3dd46570065cf11cd8c1454114af69547ebc74c5ccc6ffa9e83623",
          "transactionIndex": "0x11",
          "logIndex": "0x1c",
          "removed": false
        }
      ],
      "logsBloom": "0x00000000000000000000000080000000000000000000010020000000000000000000000000000000000000082000000000000000000000000000000000000000000000000000000000000000000000000000000000000000000000000000000010000000010000000000400000000000000000000000000000000000000000000000000000000000000000000000000000000000000000000000000000000000000000000000000000000000000000000000000000000000000000000000000000000000000000000200000000000000100000400000000000000000000000000000000000000000000002000000000000000000000000000000000000000000",
      "transactionHash": "0x563f3455ef3dd46570065cf11cd8c1454114af69547ebc74c5ccc6ffa9e83623",
      "transactionIndex": "0x11",
      "blockHash": "0x9c0a6089dbce4edc124004847355fc7a24bedc40226c2f66251da604e4d06e95",
      "blockNumber": "0x2d0dc57",
      "gasUsed": "0x468fa",
      "effectiveGasPrice": "0x4e7b90869",
      "from": "0x04e0353b7218b66d6803725ce7342e6e1225db1b",
      "to": "0x00902216bcaff0d205f4dfb8468f178aadcf325f",
      "contractAddress": null
    },
    {
      "type": "0x2",
      "status": "0x1",
      "cumulativeGasUsed": "0x3a9678",
      "logs": [
        {
          "address": "0x4096b75c387df6c16841153cd54418378bdcb15d",
          "topics": [
            "0x17a6fd8ad70546156a551284d0884ffae65dd055132d1fe7a347f4b7de730f47",
            "0x77417c8f9b0187ff9e879d9beabe9a4c6bb4bb0a0d2586c29b126a5181ed67ac",
            "0x00000000000000000000000004e0353b7218b66d6803725ce7342e6e1225db1b",
            "0x00000000000000000000000004e0353b7218b66d6803725ce7342e6e1225db1b"
          ],
          "data": "0x5b07b34fab8831d81c125641fae957baddcecc118cc93ae8fd34236b1bf2b120",
          "blockHash": "0x9c0a6089dbce4edc124004847355fc7a24bedc40226c2f66251da604e4d06e95",
          "blockNumber": "0x2d0dc57",
          "blockTimestamp": "0x6a307686",
          "transactionHash": "0x84003e03dddbb48688a30d11578d4e95c10d856406bacc62b66921be8edd297c",
          "transactionIndex": "0x12",
          "logIndex": "0x1d",
          "removed": false
        }
      ],
      "logsBloom": "0x00000000000000000000000000000000000000000000000000000000000000000000000000000000000000000000000000000200000000000000000400000000000000000000000000000000000000000000000000000000000000000000000010000000010000000000000000000000000000000000000000000000000000000000000000100000004000000000000000010000000000000000000000000000000000000000000000000000000000000000000000000000000000000000000000000000000000000000040000000000000000000000000000000000000000000000000000000000000002000000000000000004400000000000000008000000",
      "transactionHash": "0x84003e03dddbb48688a30d11578d4e95c10d856406bacc62b66921be8edd297c",
      "transactionIndex": "0x12",
      "blockHash": "0x9c0a6089dbce4edc124004847355fc7a24bedc40226c2f66251da604e4d06e95",
      "blockNumber": "0x2d0dc57",
      "gasUsed": "0x349f7",
      "effectiveGasPrice": "0x4e7b90869",
      "from": "0x04e0353b7218b66d6803725ce7342e6e1225db1b",
      "to": "0x4096b75c387df6c16841153cd54418378bdcb15d",
      "contractAddress": null
    }
  ],
  "libraries": [],
  "pending": [],
  "returns": {},
  "timestamp": 1781560967152,
  "chain": 5042002,
  "commit": "c136dbe"
}